:020000040800F2
:1000000000A00020092000084D2000084D20000815
:100010004D2000084D2000084D2000080000000081
:100020000000000000000000000000004D2000085B
:100030004D200008000000004D2000084D20000861
:100040004D2000084D2000084D2000084D200008DC
:100050004D2000084D2000084D2000084D200008CC
:100060004D2000084D2000084D2000084D200008BC
:100070004D2000084D2000084D2000084D200008AC
:100080004D2000084D2000084D2000084D2000089C
:100090004D2000084D2000084D2000084D2000088C
:1000A0004D2000084D2000084D2000084D2000087C
:1000B0004D2000084D2000084D2000084D2000086C
:1000C0004D2000084D2000084D2000084D2000085C
:1000D0004D2000084D2000084D2000084D2000084C
:1000E0004D2000084D2000084D2000084D2000083C
:1000F0004D2000084D2000084D2000084D2000082C
:100100000000000000000000000000004D2000087A
:100110004D2000084D2000084D2000084D2000080B
:100120004D2000084D2000084D2000084D200008FB
:100130004D2000084D2000080000000000000000D5
:100140004D2000084D2000084D2000080000000050
:10015000000000000000000000000000000000009F
:1001600000000000000000004D2000084D200008A5
:100170004D2000080000000000000000000000000A
:10018000000000004D20000880B48BB000AF786004
:1001900000233B620023FB610023BB6100237B61E2
:1001A00000233B6100237B620023FB600023BB60D4
:1001B000924B5B6803F00C033B623B6A042B07D055
:1001C000082B09D0002B30D17B688D4A1A6030E0B3
:1001D0007B688B4A1A602CE0884B5B6803F47013D1
:1001E000FB61864B5B6803F48033BB61FB699B0C4E
:1001F0000233FB61BB69002B05D1FB69814A02FB1D
:1002000003F37B620DE07D4BDB6A03F00F030133E8
:100210007B617B4A7B69B2FBF3F3FA6902FB03F370
:100220007B627B687A6A1A6003E07B68744A1A60B2
:1002300000BF724B5B6803F0F0033B623B6A1B0933
:100240003B62714A3B6A13441B78DBB2BB607B683C
:100250001A68BB68DA407B685A60684B5B6803F4D5
:10026000E0633B623B6A1B0A3B62674A3B6A13449A
:100270001B78DBB23B617B685A683B69DA407B687C
:100280009A605E4B5B6803F460533B623B6ADB0A37
:100290003B625D4A3B6A13441B78DBB2FB607B68C0
:1002A0005A68FB68DA407B68DA60544BDB6A03F417
:1002B000F8733B623B6A1B093B62544A3B6A32F863
:1002C00013309BB23B613B6903F01003002B06D057
:1002D0007A6A3B69B2FBF3F27B681A6103E07B68E0
:1002E0001A687B681A61454BDB6A03F478533B62FA
:1002F0003B6A5B0A3B62454A3B6A32F813309BB269
:100300003B613B6903F01003002B06D07A6A3B691E
:10031000B2FBF3F27B685A6103E07B681A687B6882
:100320005A61364B1B6B03F01003002B03D17B6823
:10033000334A9A6103E07B681A687B689A612F4BA5
:100340001B6B03F02003002B03D17B682C4ADA617E
:1003500003E07B681A687B68DA61284B1B6B03F447
:100360008073002B0DD07B681A687B6A9A4208D193
:10037000FA68BB689A4204D17B6A5A007B681A62A9
:1003800003E07B68DA687B681A621C4B1B6B03F422
:100390000073002B0DD07B681A687B6A9A4208D1E3
:1003A000FA68BB689A4204D17B6A5A007B685A6239
:1003B00003E07B68DA687B685A62104B1B6B03F0C2
:1003C0000303002B04D17B68DA687B689A6228E01B
:1003D0000A4B1B6B03F00303012B04D17B681A68E3
:1003E0007B689A621DE0054B1B6B03F00303022B35
:1003F0000ED17B684FF400429A6212E00010024076
:1004000000127A0000093D000000002010000020CA
:10041000604B1B6B03F00303032B02D17B685E4A26
:100420009A625C4B1B6B03F44033002B04D17B6856
:100430009A687B68DA6221E0564B1B6B03F4403309
:10044000B3F5803F04D17B681A687B68DA6215E0F7
:10045000504B1B6B03F44033B3F5003F04D17B6872
:100460004FF40042DA6209E04A4B1B6B03F440335D
:10047000B3F5403F02D17B68474ADA62454B1B6BBC
:1004800003F44023002B04D17B689A687B681A63CD
:1004900021E0404B1B6B03F44023B3F5802F04D1C4
:1004A0007B681A687B681A6315E03A4B1B6B03F490
:1004B0004023B3F5002F04D17B684FF400421A6348
:1004C00009E0344B1B6B03F44023B3F5402F02D1FA
:1004D0007B68314A1A632F4B1B6B03F44013002BCC
:1004E00004D17B689A687B685A6321E0294B1B6BB7
:1004F00003F44013B3F5801F04D17B681A687B684E
:100500005A6315E0234B1B6B03F44013B3F5001F34
:1005100004D17B684FF400425A6309E01D4B1B6B0A
:1005200003F44013B3F5401F02D17B681A4A5A63A3
:10053000184B1B6B03F44003002B04D17B689A68B3
:100540007B689A6321E0134B1B6B03F44003B3F504
:10055000800F04D17B681A687B689A6315E00D4BA5
:100560001B6B03F44003B3F5000F04D17B684FF419
:1005700000429A6309E0074B1B6B03F44003B3F599
:10058000400F02D17B68044A9A632C37BD465DF860
:10059000047B70470010024000127A0080B483B0E0
:1005A00000AF78600B46FB70FB78002B06D0094942
:1005B000084B5A697B6813434B6106E00549054BBC
:1005C0005A697B68DB4313404B610C37BD465DF8CD
:1005D000047B70470010024080B483B000AF7860A5
:1005E0000B46FB70FB78002B06D00949084B9A6933
:1005F0007B6813438B6106E00549054B9A697B686C
:10060000DB4313408B610C37BD465DF8047B7047BC
:100610000010024080B483B000AF78600B46FB70DE
:10062000FB78002B06D00949084BDA697B68134335
:10063000CB6106E00549054BDA697B68DB43134073
:10064000CB610C37BD465DF8047B7047001002405B
:1006500080B487B000AF7860396000237B610023ED
:100660003B610023FB6000237B617CE07B6901220E
:1006700002FA03F33B613B681A683B691340FB6075
:10068000FA683B699A426BD13B681B79012B03D016
:100690003B681B79022B34D17B689A687B695B00CD
:1006A000194603238B40DB431A407B689A607B68C2
:1006B0009A683B685B7919467B695B0001FA03F332
:1006C0001A437B689A607B689B889AB27B699BB26D
:1006D000194601238B409BB2DB439BB213409AB275
:1006E0007B689A807B689B889AB23B689B791946A5
:1006F0007B699BB201FA03F39BB213439AB27B6806
:100700009A807B681A687B695B00194603238B40DB
:10071000DB431A407B681A607B681A683B681B7968
:1007200019467B695B0001FA03F31A437B681A6080
:100730007B68DA687B699BB25B00032101FA03F3F3
:10074000DB431A407B68DA607B68DA683B68DB79F8
:1007500019467B695B0001FA03F31A437B68DA6090
:100760007B6901337B617B690F2B7FF67FAF1C3781
:10077000BD465DF8047B704780B485B000AF7860FB
:100780000B467B8013467B700023FB600023BB601D
:100790007B787A8802F0070292009340FB607B88A6
:1007A000DB089BB218467B88DB089BB21A467B6845
:1007B000083253F822207B8803F007039B00194678
:1007C0000F238B40DB4302EA03017B6800F1080240
:1007D00043F822107B88DB089BB21A467B680832FC
:1007E00053F82220FB681343BB607B88DB089BB275
:1007F0001A467B680832B96843F822101437BD46A0
:100800005DF8047B704700BF80B582B000AF4FF445
:1008100000300121FFF7C2FE4FF480200121FFF7D5
:10082000BDFE4FF400200121FFF7B8FE4FF4801009
:100830000121FFF7B3FE344805210722FFF79CFF93
:10084000314804210722FFF797FF3048082104228E
:10085000FFF792FF2D4809210422FFF78DFF2C4856
:100860000D210222FFF788FF29480F210222FFF7FE
:1008700083FF254806210222FFF77EFF24480E2130
:100880000222FFF779FF30233B6002233B710323F1
:100890007B710023BB710123FB713B461A4819464B
:1008A000FFF7D6FE4FF460433B6002233B71032306
:1008B0007B710023BB710123FB713B461448194631
:1008C000FFF7C6FE40233B6002233B7103237B718D
:1008D0000023BB710123FB713B460B481946FFF710
:1008E000B7FE4FF440733B6002233B7103237B71DF
:1008F0000023BB710123FB713B4604481946FFF7F7
:10090000A7FE0837BD4680BD000800480004004827
:10091000000C004880B586B000AF4FF48040012144
:10092000FFF75AFE4FF461433B6000237B600023D6
:10093000BB600023FB6000237B610C233B613B46D3
:100940000548194601F084FB0348012101F03AFCF7
:100950001837BD4680BD00BF0038014080B588B063
:1009600000AF4FF400600121FFF736FE02200121A5
:10097000FFF750FE04200121FFF74CFE4723BB8206
:100980000023FB8242F20F73BB610023BB83002371
:10099000BB7707F114032B48194601F013F82948D7
:1009A000012101F085F84723BB820023FB8244F636
:1009B0001F63BB610023BB830023BB7707F11403D4
:1009C0002148194600F0FEFF07F114031F4819469D
:1009D00000F0F8FF60233B604FF47A73BB600123A3
:1009E000BB800023BB813B461748194601F012F932
:1009F0001548002101F088FA3B461348194601F0DA
:100A000007FA1148002101F0B7FA3B460E48194693
:100A100001F080F90C48002101F092FA3B460B48A6
:100A2000194601F065F80948002101F051FA07481C
:100A3000012101F03DF80448012101F039F8203787
:100A4000BD4680BD002C014000080040000400406D
:100A500080B588B000AF4FF400100121FFF7DAFD38
:100A60000023BB610023FB6100237B610023BB608B
:100A70000023FB6000233B61064B7B603B1D064867
:100A8000194600F04DF90448012100F0ADF9203776
:100A9000BD4680BD920DA0000054004080B582B0DC
:100AA00000AF1C233B7100237B710123BB71012329
:100AB000FB713B1D184600F023FF0837BD4680BD83
:100AC000B0B500AFFFF7A0FEFFF7E8FFFFF746FF66
:100AD000FFF720FFFFF7BCFF00F018FA03461A46A5
:100AE0007D4B1A707D48012101F062FA0346002B0C
:100AF00015D07A48012101F075FA794879497A4A86
:100B000000F082FB03461A46734B1A707748784907
:100B1000784A00F0EFFB03461A466F4B1A70704B91
:100B20001B681846744902F077FC03461A46734B5B
:100B30001B681046194602F0B3FA03461A466F4B7B
:100B40001A60684B1B6818466B4902F065FC034647
:100B50001A466B4B1B681046194602F0A1FA034671
:100B60001A46674B1A60614B1B68184601F054FF28
:100B700004460D465F4B1B68184601F04DFF0246C8
:100B80000B462046294601F065FB02460B461046FF
:100B9000194602F02FFA034618465A4902F088FB1C
:100BA00003461A46584B1A60514B1B68184601F011
:100BB00033FF04460D464F4B1B68184601F02CFFCF
:100BC00002460B462046294601F044FB02460B46EE
:100BD0001046194602F00EFA03461846494902F03B
:100BE00067FB03461A46494B1A60444B1B6818467C
:100BF00001F012FF02460B461046194632A3D3E914
:100C0000002301F05DFF02460B4614461D463E4B95
:100C10001B68184601F000FF02460B4610461946B5
:100C20002BA3D3E9002301F04BFF02460B462046DD
:100C3000294601F093FD02460B461046194602F084
:100C4000D9F902462D4B1A602D4B1B68184601F04E
:100C5000E3FE02460B46104619461BA3D3E90023C8
:100C600001F02EFF02460B4614461D46274B1B681B
:100C7000184601F0D1FE02460B461046194614A351
:100C8000D3E9002301F01CFF02460B46204629460B
:100C900001F064FD02460B461046194602F0AAF91F
:100CA0000246174B1A60164B1B68184601F0B4FE3B
:100CB00002460B461648174902F0D4FC1648144960
:100CC00002F0BCFC0EE700BF0AD7A3703D0AEF3F5D
:100CD000B81E85EB51B89E3F2C090020002C014026
:100CE0003C0900201C0900204009002028090020A0
:100CF00024090020440900200000C842CC0800203C
:100D0000D0080020E02E6542D4080020D80800203A
:100D100030090020189800081C980008AFF30080E4
:100D200080B485B000AF786039600023FB607B68D9
:100D30001B6823F001027B681A607B681B68FB60FC
:100D4000FA68284B1340FB603B685A683B689B6815
:100D50001B021343FA681343FB607B68FA681A604E
:100D60003B681B6823F070627B681A617B681B68B4
:100D700043F001027B681A600023FB607B68FA681D
:100D80009A607B68FA68DA603B689A693B681B691D
:100D90001343FB607B68FA689A607B689B6843F446
:100DA00000427B689A603B68DB68FB607B681A687E
:100DB000FB681A437B681A607B685B68FB60FB68B2
:100DC00023F0784323F40043FB603B685B69FA68D7
:100DD0001343FB607B68FA685A601437BD465DF8C0
:100DE000047B7047FFE0CF0080B483B000AF786031
:100DF0000B46FB70FB78002B06D07B681B6843F02A
:100E000001027B681A6005E07B681B6823F0010221
:100E10007B681A600C37BD465DF8047B704700BFE5
:100E200080B487B000AFF8607B600B467B811346CF
:100E30007B7200237B61FB685B687B617A690D4B89
:100E400013407B617B89C3F309027B7A1B0403F4A3
:100E50007F031A437B681A433B6A13437A6913433F
:100E60007B61FB687A695A601C37BD465DF8047B7C
:100E7000704700BF009800FC80B483B000AF78607A
:100E80000B46FB70FA787B689A620C37BD465DF8BA
:100E9000047B704780B483B000AF78607B685B6A86
:100EA000DBB218460C37BD465DF8047B704700BFC7
:100EB00080B485B000AF786039600023BB60002348
:100EC000FB737B689B69BB60BA683B681340BB607F
:100ED000BB68002B02D00123FB7301E00023FB73EE
:100EE000FB7B18461437BD465DF8047B704700BF96
:100EF00080B483B000AF786039607B683A68DA61AB
:100F00000C37BD465DF8047B704700BF80B582B0EA
:100F100000AF012000F060F80346FB71FB79002B65
:100F200001D0FB7914E0082000F016F80346FB71AD
:100F3000FB79002B01D0FB790AE0002000F02CF8AF
:100F40000346FB71FB79002B01D0FB7900E0002305
:100F500018460837BD4680BD80B584B000AF034653
:100F6000FB71FB79184602F04BF90246094B1A60F7
:100F7000FB1DD0201B211A4600F0E4FA0346FB7348
:100F8000FB7B002B01D0FB7B00E0002318461037D1
:100F9000BD4680BD4809002080B584B000AF03463F
:100FA000FB71FB79184602F02BF90246094B5A6097
:100FB000FB1DD0201C211A4600F0C4FA0346FB7327
:100FC000FB7B002B01D0FB7B00E000231846103791
:100FD000BD4680BD4809002080B584B000AF0346FF
:100FE000FB71FB1DD0206B211A4600F0ABFA0346C3
:100FF000FB73FB7B002B01D0FB7B00E0002318463A
:101000001037BD4680BD00BF80B586B000AFF86028
:10101000B9607A6007F11603D02044211A460123F3
:1010200000F0DAF90346FB75FB7D002B01D0FB7D58
:1010300066E007F11503D02043211A46012300F092
:10104000CBF90346FB75FB7D002B01D0FB7D57E000
:1010500007F11403D02046211A46012300F0BCF901
:101060000346FB75FB7D002B01D0FB7D48E007F1BB
:101070001303D02045211A46012300F0ADF90346A1
:10108000FB75FB7D002B01D0FB7D39E007F11203DE
:10109000D02048211A46012300F09EF90346FB7533
:1010A000FB7D002B01D0FB7D2AE007F11103D0204E
:1010B00047211A46012300F08FF90346FB75FB7D9B
:1010C000002B01D0FB7D1BE07B7D1B029AB2BB7D18
:1010D0009BB213439AB2FB681A80FB7C1B029AB244
:1010E0003B7D9BB213439AB2BB681A807B7C1B0288
:1010F0009AB2BB7C9BB213439AB27B681A800023DE
:1011000018461837BD4680BD80B586B000AFF86080
:10111000B9607A6007F11603D0203C211A460123FA
:1011200000F05AF90346FB75FB7D002B01D0FB7DD7
:1011300066E007F11503D0203B211A46012300F099
:101140004BF90346FB75FB7D002B01D0FB7D57E07F
:1011500007F11403D0203E211A46012300F03CF988
:101160000346FB75FB7D002B01D0FB7D48E007F1BA
:101170001303D0203D211A46012300F02DF9034628
:10118000FB75FB7D002B01D0FB7D39E007F11203DD
:10119000D02040211A46012300F01EF90346FB75BA
:1011A000FB7D002B01D0FB7D2AE007F11103D0204D
:1011B0003F211A46012300F00FF90346FB75FB7D22
:1011C000002B01D0FB7D1BE07B7D1B029AB2BB7D17
:1011D0009BB213439AB2FB681A80FB7C1B029AB243
:1011E0003B7D9BB213439AB2BB681A807B7C1B0287
:1011F0009AB2BB7C9BB213439AB27B681A800023DD
:1012000018461837BD4680BD80B588B000AFF8607D
:10121000B9607A6007F1180107F1160207F11403AB
:10122000084611461A46FFF7EFFE0346FB762C4BA5
:101230001B6818464FF0000102F0CEF90346002B60
:1012400002D0284BFB611BE0254B1B6818464FF072
:10125000824102F0C1F90346002B02D0224BFB6110
:101260000EE01F4B1B6818464FF0834102F0B4F9A3
:101270000346002B02D01D4BFB6101E01C4BFB61C0
:101280003B8B1BB2184601F0BFFF03461846F969B5
:1012900002F0C2F803461A46FB681A60FB8A1BB2CA
:1012A000184601F0B1FF03461846F96902F0B4F898
:1012B00003461A46BB681A60BB8A1BB2184601F087
:1012C000A3FF03461846F96902F0A6F803461A463A
:1012D0007B681A60002318462037BD4680BD00BFDA
:1012E00048090020000003430000834233330342D7
:1012F0003333834180B588B000AFF860B9607A605D
:1013000007F1180107F1160207F114030846114608
:101310001A46FFF7F9FE0346FB762E4B5B6818462C
:101320004FF0000102F058F90346002B03D04FF0B4
:101330008D43FB611EE0274B5B6818464FF00001B0
:1013400002F04AF90346002B03D04FF08C43FB61B7
:1013500010E0204B5B6818464FF0000102F03CF9AA
:101360000346002B03D04FF08B43FB6102E04FF0AC
:101370008A43FB613B8B1BB2184601F045FF0346D5
:101380001846F96902F048F803461A46FB681A60E5
:10139000FB8A1BB2184601F037FF03461846F9696D
:1013A00002F03AF803461A46BB681A60BB8A1BB2C1
:1013B000184601F029FF03461846F96902F02CF897
:1013C00003461A467B681A60002318462037BD463C
:1013D00080BD00BF4809002080B584B002AF3A60EC
:1013E0001A460346FB710B46BB711346BB80534B39
:1013F0004FF4A0421A6008E0504B1B685A1E4F4938
:101400000A60002B01D1012394E04D484FF40041C4
:10141000FFF74EFD0346002BEED1FB799AB24FF455
:10142000005300934648114601220023FFF7F8FCC1
:10143000424B4FF4A0421A6008E0404B1B685A1E12
:101440003E490A60002B01D1012373E03C48022190
:10145000FFF72EFD0346002BEFD0BB88012B03D9ED
:10146000BB7963F07F03BB71BB7935481946FFF741
:1014700003FD324B4FF4A0421A6008E02F4B1B686B
:101480005A1E2E490A60002B01D1022352E02C483B
:101490004021FFF70DFD0346002BEFD0FB7999B2F9
:1014A000BB88DAB24FF41053009325484FF0007315
:1014B000FFF7B6FC21E0214B4FF4A0421A6008E090
:1014C0001E4B1B685A1E1D490A60002B01D10323C5
:1014D00030E01B480421FFF7EBFC0346002BEFD064
:1014E0001748FFF7D7FC03461A463B681A703B685B
:1014F00001333B60BB88013BBB80BB88002BDAD14A
:101500000E4B4FF4A0421A6008E00C4B1B685A1EA9
:101510000A490A60002B01D101230BE00848202171
:10152000FFF7C6FC0346002BEFD005482021FFF74C
:10153000DFFC002318460837BD4680BD2C00002084
:101540000054004080B584B002AF03463A60FB719E
:101550000B46BB714A4B4FF4A0421A6008E0484B5F
:101560001B685A1E46490A60002B01D1012382E004
:1015700044484FF40041FFF79BFC0346002BEED19B
:10158000FB799AB24FF4005300933E481146012272
:101590004FF08073FFF744FC394B4FF4A0421A60C0
:1015A00008E0374B1B685A1E35490A60002B01D1F1
:1015B000012360E033480221FFF77AFC0346002B49
:1015C000EFD0BB792F481946FFF756FC2C4B4FF450
:1015D000A0421A6008E02A4B1B685A1E28490A607C
:1015E000002B01D1012346E026488021FFF760FC53
:1015F0000346002BEFD0FB799AB2002300932148D9
:10160000114601224FF00073FFF70AFC1C4B4FF408
:10161000A0421A6008E01A4B1B685A1E18490A605B
:10162000002B01D1012326E016480221FFF740FCE0
:101630000346002BEFD03B681B7812481946FFF792
:101640001BFC0F4B4FF4A0421A6008E00C4B1B68C8
:101650005A1E0B490A60002B01D101230BE00948F7
:101660002021FFF725FC0346002BEFD00548202161
:10167000FFF73EFC002318460837BD4680BD00BF7B
:101680002C0000200054004080B500AF1A4A1A4BCD
:101690001B6843F0010313601749174B5A68174B37
:1016A00013404B60144A144B1B6823F0847323F4DB
:1016B00080331360104A104B1B6823F4802313609F
:1016C0000D4A0D4B5B6823F4FE0353600A4A0A4B34
:1016D000DB6A23F00F03D3620749074B1A6B084BF1
:1016E00013400B63044B00229A6000F00DF8054B89
:1016F0004FF000629A6080BD001002400CC07FF87D
:10170000CCFC00FF00ED00E080B483B000AF00230C
:101710007B6000233B60324A314B1B6843F48033CB
:1017200013602F4B1B6803F400333B607B6801336D
:101730007B603B68002B03D17B68B3F5A06FF0D1D1
:10174000274B1B6803F40033002B02D001233B60BE
:1017500001E000233B603B68012B3CD1214B12226E
:101760001A601F4A1E4B5B6853601D4A1C4B5B6826
:1017700053601B4A1A4B5B6843F480635360184AFA
:10178000174B5B6823F47C135360154A144B5B685A
:1017900043F4E8135360124A114B1B6843F0807303
:1017A000136000BF0E4B1B6803F00073002BF9D0D1
:1017B0000B4A0B4B5B6823F003035360084A084B4A
:1017C0005B6843F00203536000BF054B5B6803F0A6
:1017D0000C03082BF9D10C37BD465DF8047B70472C
:1017E000001002400020024080B485B000AF786055
:1017F0000B4B1B68002B02D1094B0A4A1A60084B9D
:101800001B68FB60064B1A687B681344044A13602C
:10181000FB6818461437BD465DF8047B704700BF6F
:10182000E00800205409002080B483B000AF786045
:101830004FF0FF3318460C37BD465DF8047B704708
:1018400080B483B000AF786039603B684FF40052D9
:101850005A60002318460C37BD465DF8047B70477C
:1018600080B483B000AF7860012318460C37BD46C2
:101870005DF8047B704700BF80B485B000AFF860AE
:10188000B9607A60002318461437BD465DF8047BC2
:10189000704700BF80B485B000AFF860B9607A606F
:1018A0007B6818461437BD465DF8047B704700BF5F
:1018B00080B586B000AFF860B9607A6000237B61C4
:1018C00013E07B69BA6813441B789BB20B48194636
:1018D00000F094FC00BF0948402100F0A1FC034641
:1018E000002BF8D07B6901337B617A697B689A426F
:1018F000E7DB7B6818461837BD4680BD00380140DD
:1019000080B487B000AF786000237B6100233B6127
:101910000F23FB607B68DB78002B3AD0274BDB681A
:10192000DB4303F4E0631B0A7B617B69C3F10403BF
:101930003B617B69FA6822FA03F3FB607B685B78A2
:101940001A463B6902FA03F37B617B689B781A466F
:10195000FB6813407A6913437B617B691B017B61E0
:10196000174A7B681B787969C9B213440A4683F821
:101970000023134A7B681B785B09DBB218467B683F
:101980001B7803F01F03012101FA03F342F8203012
:101990000FE00B497B681B785B09DBB218467B685C
:1019A0001B7803F01F0301229A4000F1200341F845
:1019B00023201C37BD465DF8047B704700ED00E036
:1019C00000E100E080B485B000AF786039600023AA
:1019D000FB817B681B88FB817B682C4A93420FD07C
:1019E0007B682B4A93420BD07B68B3F1804F07D0C2
:1019F0007B68284A934203D07B68274A934208D1E8
:101A0000FB8923F07003FB813B685A88FB891343F1
:101A1000FB817B68214A93420CD07B68204A934229
:101A200008D0FB8923F44073FB813B681A89FB894A
:101A30001343FB817B68FA891A803B685A687B688C
:101A4000DA623B681A887B681A857B680F4A934282
:101A50000FD07B680E4A93420BD07B68114A9342A9
:101A600007D07B68104A934203D07B680F4A9342A9
:101A700004D13B689B7A9AB27B681A867B68012204
:101A80005A611437BD465DF8047B7047002C014055
:101A900000340140000400400008004000100040F5
:101AA0000014004000400140004401400048014053
:101AB00080B483B000AF78600B46FB70FB78002BDE
:101AC00008D07B681B889BB243F001039AB27B6805
:101AD0001A8007E07B681B889BB223F001039AB24F
:101AE0007B681A800C37BD465DF8047B704700BFE9
:101AF00080B487B000AF786039600023FB600023BA
:101B00007B6100233B617B681B6A23F001027B68D9
:101B10001A627B681B6A7B617B685B683B617B68E0
:101B20009B69FB60FB6823F4803323F07003FB6048
:101B3000FB6823F00303FB603B681B68FA681343F0
:101B4000FB607B6923F002037B613B689B891A463B
:101B50007B6913437B613B689B881A467B6913430F
:101B60007B617B68264A93420FD07B68254A93426B
:101B70000BD07B68244A934207D07B68234A934268
:101B800003D07B68224A934227D17B6923F0080364
:101B90007B613B68DB891A467B6913437B617B6908
:101BA00023F004037B613B68DB881A467B6913439F
:101BB0007B613B6923F480733B613B6923F40073D1
:101BC0003B613B681B8A1A463B6913433B613B6898
:101BD0005B8A1A463B6913433B617B683A695A60EA
:101BE0007B68FA689A613B689A687B685A637B688D
:101BF0007A691A621C37BD465DF8047B704700BFE6
:101C0000002C0140003401400040014000440140EC
:101C10000048014080B487B000AF7860396000238D
:101C2000FB6000237B6100233B617B681B6A23F020
:101C300010027B681A627B681B6A7B617B685B6849
:101C40003B617B689B69FB60FB6823F0807323F436
:101C5000E043FB60FB6823F44073FB603B681B6858
:101C60001B02FA681343FB607B6923F020037B614E
:101C70003B689B891B017A6913437B613B689B88A6
:101C80001B017A6913437B617B68204A934203D02E
:101C90007B681F4A934227D17B6923F080037B61D5
:101CA0003B68DB891B017A6913437B617B6923F005
:101CB00040037B613B68DB881B017A6913437B61CE
:101CC0003B6923F480633B613B6923F400633B6120
:101CD0003B681B8A9B003A6913433B613B685B8A04
:101CE0009B003A6913433B617B683A695A607B68A1
:101CF000FA689A613B689A687B689A637B687A693C
:101D00001A621C37BD465DF8047B7047002C014009
:101D10000034014080B487B000AF786039600023A0
:101D2000FB6000237B6100233B617B681B6A23F41B
:101D300080727B681A627B681B6A7B617B685B6868
:101D40003B617B68DB69FB60FB6823F07003FB6031
:101D5000FB6823F00303FB603B681B68FA681343CE
:101D6000FB607B6923F400737B613B689B891B02EA
:101D70007A6913437B613B689B881B027A69134332
:101D80007B617B68204A934203D07B681F4A934261
:101D900027D17B6923F400637B613B68DB891B02ED
:101DA0007A6913437B617B6923F480637B613B68C1
:101DB000DB881B027A6913437B613B6923F4805300
:101DC0003B613B6923F400533B613B681B8A1B0169
:101DD0003A6913433B613B685B8A1B013A691343D1
:101DE0003B617B683A695A607B68FA68DA613B68F4
:101DF0009A687B68DA637B687A691A621C37BD4629
:101E00005DF8047B704700BF002C014000340140A6
:101E100080B487B000AF7860396000233B61002355
:101E2000FB6000237B617B681B6A23F480527B6824
:101E30001A627B681B6AFB607B685B687B617B68FE
:101E4000DB693B613B6923F4E0433B613B6923F47D
:101E500040733B613B681B681B023A6913433B615B
:101E6000FB6823F40053FB603B689B891B03FA6803
:101E70001343FB603B689B881B03FA681343FB60BA
:101E80007B68114A934203D07B68104A934209D180
:101E90007B6923F480437B613B681B8A9B017A69E1
:101EA00013437B617B687A695A607B683A69DA61BF
:101EB0003B689A687B681A647B68FA681A621C3708
:101EC000BD465DF8047B7047002C014000340140A2
:101ED00080B485B000AF78600B467B800023FB6048
:101EE0007B689B69FB60FB6823F00803FB607B88D1
:101EF000FA681343FB607B68FA689A611437BD4641
:101F00005DF8047B704700BF80B485B000AF786097
:101F10000B467B800023FB607B689B69FB60FB6852
:101F200023F40063FB607B881B02FA681343FB60A9
:101F30007B68FA689A611437BD465DF8047B704788
:101F400080B485B000AF78600B467B800023FB60D7
:101F50007B68DB69FB60FB6823F00803FB607B8820
:101F6000FA681343FB607B68FA68DA611437BD4690
:101F70005DF8047B704700BF80B485B000AF786027
:101F80000B467B800023FB607B68DB69FB60FB68A2
:101F900023F40063FB607B881B02FA681343FB6039
:101FA0007B68FA68DA611437BD465DF8047B7047D8
:101FB00080B485B000AF786039600023FB737B6824
:101FC0001A693B681340002B02D00123FB7301E028
:101FD0000023FB73FB7B18461437BD465DF8047B7A
:101FE000704700BF80B483B000AF78600B467B8041
:101FF0007B88DB439BB21A467B681A610C37BD466F
:102000005DF8047B704700BF002103E00A4B5B587A
:102010004350043109480A4B42189A42F6D3094A00
:1020200002E0002342F8043B074B9A42F9D3FFF742
:102030002BFBFEF745FD70470C9A000800000020BE
:10204000CC080020CC08002054090020FEE7000046
:1020500080B594B000AF786039600023FB64002342
:10206000BB6400237B647B681B6823F001027B68F0
:102070001A607B685B687B647B6C23F440537B64F1
:102080003B689B687A6C13437B647B687A6C5A600C
:102090007B681B687B647B6C23F4B05323F00C03D8
:1020A0007B643B685A683B68DB681A433B681B6982
:1020B00013437A6C13437B647B687A6C1A607B6889
:1020C0009B687B647B6C23F440737B643B685B6937
:1020D0007A6C13437B647B687A6C9A6007F108031F
:1020E0001846FEF751F87B68324A934202D13B6BA7
:1020F000BB6416E07B68304A934202D17B6BBB64C1
:102100000FE07B682D4A934202D1BB6BBB6408E0B1
:102110007B682B4A934202D1FB6BBB6401E03B6CB2
:10212000BB647B681B6803F40043002B11D0BB6CBD
:102130005A003B681B68B2FBF3F3FB64BB6C5B00AB
:102140003A681268B3FBF2F102FB01F29B1A7B645E
:102150000EE03B681B68BA6CB2FBF3F3FB643B68B0
:102160001A68BB6CB3FBF2F102FB01F29B1A7B64B1
:102170003B681B685A087B6C9A4202D8FB6C01339F
:10218000FB647B681B6803F40043002B0BD0FB6CE3
:1021900003F00F035B087B64FA6C4FF6F073134097
:1021A0007A6C1343FB64FB6C9AB27B689A8150375C
:1021B000BD4680BD0038014000440040004800405A
:1021C000004C004080B483B000AF78600B46FB70D9
:1021D000FB78002B06D07B681B6843F001027B680C
:1021E0001A6005E07B681B6823F001027B681A60B7
:1021F0000C37BD465DF8047B704700BF80B483B0E8
:1022000000AF78600B467B807B88C3F308039AB2EB
:102210007B681A850C37BD465DF8047B704700BFAC
:1022200080B485B000AF786039600023FB737B68B1
:10223000DA693B681340002B02D00123FB7301E0F5
:102240000023FB73FB7B18461437BD465DF8047B07
:10225000704700BF00F000B82DE9F84F5442144316
:1022600023F00049DFF878C149EAD4746445174681
:102270009E4606460D4641D84442044321F0004B99
:102280004BEAD47464458A4638D803F1404404F5D7
:102290008014144349D09C1704F0020444EAD1741A
:1022A0005BEA000132D059EA070138D04C49894530
:1022B00048D04B498B4532D0C9EB0B094FEA29591D
:1022C000B9F13C0F3ADCBEF1000F64DB3046294621
:1022D00000F020FD00F038FA00F09AF8012C57D0F9
:1022E000022C48D084B138A3D3E9002300F034FA9B
:1022F00037A3D3E9002300F02FFA05E01046194672
:1023000032462B4600F02AFABDE8F88F032CCAD8D3
:10231000DFE804F01212020F32483349F4E7BAF151
:10232000000F304825DB3149EEE7BDE8F84F00F0FB
:102330006FB82C482E49E7E72946E5E726A1D1E901
:102340000001CBE7CB452CD0032CB2D801A151F82A
:1023500024F000BF652300086B2300081923000840
:102360003323000800200146CEE700204FF0004153
:10237000CAE72049C8E714A3D3E9002300F0ECF929
:1023800002460B4612A1D1E9000100F0E5F9BBE7D6
:1023900001F10041B8E719F13C0F97DA0020002164
:1023A0009CE7032CBBD8DFE804F0020B08050D48BE
:1023B0001149A9E711481249A6E710481149A3E7B6
:1023C00008481149A0E700BF075C143326A6A13CCA
:1023D000182D4454FB210940182D4454FB21F93F8A
:1023E0000000F07F182D4454FB210940FB21F93FE8
:1023F000FB2109C0FB21F9BFFB21E93FD221337F3B
:102400007CD902C07CD90240FB21E9BFAFF3008038
:102410002DE9F84FBE4B21F000469E420D468A46FC
:1024200004460FDDBB4B9E4200F3B08000F0AB8052
:10243000B94BBA49BA4CBAF1000FC8BF1946204689
:10244000BDE8F88FB74B9E4200F3BA80A3F1DE736C
:102450009E4240F3A5804FF0FF3B22462B4620468C
:10246000294600F02DFB02460B468046894600F0C7
:1024700027FB8FA3D3E9002306460F4600F020FB7D
:102480008DA3D3E9002300F069F932463B4600F002
:1024900017FB8BA3D3E9002300F060F932463B46DB
:1024A00000F00EFB88A3D3E9002300F057F9324671
:1024B0003B4600F005FB86A3D3E9002300F04EF96C
:1024C00032463B4600F0FCFA83A3D3E9002300F038
:1024D00045F942464B4600F0F3FA81A3D3E90023C5
:1024E000804689463046394600F0EAFA7EA3D3E9B1
:1024F000002300F031F932463B4600F0E1FA7CA3BC
:10250000D3E9002300F028F932463B4600F0D8FA20
:1025100079A3D3E9002300F01FF932463B4600F0CF
:10252000CFFA77A3D3E9002300F016F932463B46F1
:1025300000F0C6FABBF1FF3F02460B4667D04046AB
:10254000494600F00BF922462B4600F0B9FA764EC8
:10255000764B4FEACB0B5E449B44DBE9002300F053
:10256000FBF822462B4600F0F7F802460B46D6E968
:10257000000100F0F1F8BAF1000F0446BFF65FAFBA
:1025800001F100415BE700283FF452AF22462046AC
:1025900029462B4600F0E2F804462046BDE8F88FB5
:1025A00059A3D3E9002300F0D9F80022604B00F0D2
:1025B00017FD00283FF44FAF29462046BDE8F88FAD
:1025C00000F0C2F85B4B9E4204460D462FDCA3F59B
:1025D00050239E4254DC02460B4600F0BFF8002216
:1025E000534B00F0B9F8002206460F462046294614
:1025F0004FF0804300F0B2F802460B4630463946B1
:1026000000F088FB4FF0000B04460D4625E74046DE
:10261000494600F0A3F822462B4600F051FA024644
:102620000B462046294600F097F8044607E7424B40
:102630009E421ADC0022414B00F08EF80022064632
:102640000F46204629463D4B00F03AFA0022384B0F
:1026500000F084F802460B463046394600F05AFB3B
:102660004FF0020B04460D46F7E602460B460020EB
:10267000334900F04FFB4FF0030B04460D46ECE6E8
:1026800000222B4B00F068F8002206460F46204639
:102690002946274B00F062F802460B463046394681
:1026A00000F038FB4FF0010B04460D46D5E600BFA5
:1026B00011DA22E33AAD903FEB0D76244B7BA93F34
:1026C000513DD0A0660DB13F6E204CC5CD45B73F02
:1026D000FF8300922449C23F0D5555555555D53FAE
:1026E0002F6C6A2C44B4A2BF9AFDDE522DDEAD3FA2
:1026F0006D9A74AFF2B0B33F711623FEC671BC3F42
:10270000C4EB98999999C93F9C7500883CE4377E41
:10271000FFFF0F440000F07FFB21F93FFB21F9BFD1
:10272000182D4454FFFFDB3F409800082098000814
:102730000000F03FFFFFF23FFF7F03400000F83F43
:102740000000F0BFAFF3008021F00041704700BFF0
:1027500081F0004102E000BF83F0004330B54FEA52
:1027600041044FEA430594EA050F08BF90EA020FBF
:102770001FBF54EA000C55EA020C7FEA645C7FEA52
:10278000655C00F0E2804FEA5454D4EB5555B8BF75
:102790006D420CDD2C4480EA020281EA030382EAE6
:1027A000000083EA010180EA020281EA0303362D78
:1027B00088BF30BD11F0004F4FEA01314FF4801C4B
:1027C0004CEA113102D0404261EB410113F0004F5D
:1027D0004FEA03334CEA133302D0524263EB430314
:1027E00094EA050F00F0A780A4F10104D5F1200EB2
:1027F0000DDB02FA0EFC22FA05F2801841F100010D
:1028000003FA0EF2801843FA05F359410EE0A5F1E0
:1028100020050EF1200E012A03FA0EFC28BF4CF011
:10282000020C43FA05F3C01851EBE37101F00045C7
:1028300007D54FF0000EDCF1000C7EEB00006EEBD4
:102840000101B1F5801F1BD3B1F5001F0CD349085E
:102850005FEA30004FEA3C0C04F101044FEA4452B5
:1028600012F5800F80F09A80BCF1004F08BF5FEA3C
:10287000500C50F1000041EB045141EA050130BD1C
:102880005FEA4C0C404141EB010111F4801FA4F1BF
:102890000104E9D191F0000F04BF01460020B1FA14
:1028A00081F308BF2033A3F10B03B3F120020CDA4C
:1028B0000C3208DD02F1140CC2F10C0201FA0CF02A
:1028C00021FA02F10CE002F11402D8BFC2F1200C8F
:1028D00001FA02F120FA0CFCDCBF41EA0C01904045
:1028E000E41AA2BF01EB0451294330BD6FEA04048E
:1028F0001F3C1CDA0C340EDC04F11404C4F1200279
:1029000020FA04F001FA02F340EA030021FA04F38A
:1029100045EA030130BDC4F10C04C4F1200220FAE1
:1029200002F001FA04F340EA0300294630BD21FA1F
:1029300004F0294630BD94F0000F83F4801306BFE5
:1029400081F480110134013D4EE77FEA645C18BFD9
:102950007FEA655C29D094EA050F08BF90EA020F70
:1029600005D054EA000C04BF1946104630BD91EA68
:10297000030F1EBF0021002030BD5FEA545C05D16B
:102980004000494128BF41F0004130BD14F58004AA
:102990003CBF01F5801130BD01F0004545F0FE411E
:1029A00041F470014FF0000030BD7FEA645C1ABF53
:1029B000194610467FEA655C1CBF0B46024650EA8A
:1029C000013406BF52EA033591EA030F41F40021B6
:1029D00030BD00BF90F0000F04BF0021704730B53C
:1029E0004FF4806404F132044FF000054FF0000111
:1029F00050E700BF90F0000F04BF0021704730B5D2
:102A00004FF4806404F1320410F0004548BF4042A6
:102A10004FF000013EE700BF42004FEAE2014FEAFB
:102A200031014FEA02701FBF12F07F4393F07F4FD6
:102A300081F06051704792F0000F14BF93F07F4F08
:102A4000704730B54FF4607401F0004521F000414B
:102A500020E700BF50EA010208BF704730B54FF0D1
:102A600000050AE050EA010208BF704730B511F0D6
:102A7000004502D5404261EB41014FF4806404F10E
:102A800032045FEA915C3FF4DCAE4FF003025FEA90
:102A9000DC0C18BF03325FEADC0C18BF033202EB18
:102AA000DC02C2F1200300FA03FC20FA02F001FA72
:102AB00003FE40EA0E0021FA02F11444C1E600BF11
:102AC00070B54FF0FF0C4CF4E06C1CEA11541DBFC4
:102AD0001CEA135594EA0C0F95EA0C0F00F0DEF88F
:102AE0002C4481EA030621EA4C5123EA4C5350EA74
:102AF000013518BF52EA033541F4801143F48013C5
:102B000038D0A0FB02CE4FF00005E1FB02E506F055
:102B10000042E0FB03E54FF00006E1FB03569CF0AA
:102B2000000F18BF4EF0010EA4F1FF04B6F5007FB0
:102B300064F5407404D25FEA4E0E6D4146EB060622
:102B400042EAC62141EA55514FEAC52040EA5E50AB
:102B50004FEACE2EB4F1FD0C88BFBCF5E06F1ED855
:102B6000BEF1004F08BF5FEA500E50F1000041EB8C
:102B7000045170BD06F0004646EA010140EA020039
:102B800081EA0301B4EB5C04C2BFD4EB0C0541EA5B
:102B9000045170BD41F480114FF0000E013C00F370
:102BA000AB8014F1360FDEBF002001F0004170BD94
:102BB000C4F10004203C35DA0C341BDC04F11404AD
:102BC000C4F1200500FA05F320FA04F001FA05F239
:102BD00040EA020001F0004221F0004110EBD37006
:102BE00021FA04F642EB06015EEA430E08BF20EA32
:102BF000D37070BDC4F10C04C4F1200500FA04F3D5
:102C000020FA05F001FA04F240EA020001F0004166
:102C100010EBD37041F100015EEA430E08BF20EAD9
:102C2000D37070BDC4F1200500FA05F24EEA020E21
:102C300020FA04F301FA05F243EA020321FA04F050
:102C400001F0004121FA04F220EA020000EBD37007
:102C50005EEA430E08BF20EAD37070BD94F0000F07
:102C60000FD101F00046400041EB010111F4801F3B
:102C700008BF013CF7D041EA060195F0000F18BFEC
:102C8000704703F00046520043EB030313F4801F28
:102C900008BF013DF7D043EA0603704794EA0C0FE2
:102CA0000CEA135518BF95EA0C0F0CD050EA4106F8
:102CB00018BF52EA4306D1D181EA030101F0004175
:102CC0004FF0000070BD50EA410606BF104619469D
:102CD00052EA430619D094EA0C0F02D150EA0136A9
:102CE00013D195EA0C0F05D152EA03361CBF1046EA
:102CF00019460AD181EA030101F0004141F0FE4189
:102D000041F470014FF0000070BD41F0FE4141F40C
:102D1000780170BD70B54FF0FF0C4CF4E06C1CEA0C
:102D200011541DBF1CEA135594EA0C0F95EA0C0FC1
:102D300000F0A7F8A4EB050481EA030E52EA03357C
:102D40004FEA013100F088804FEA03334FF080559D
:102D500045EA131343EA12634FEA022245EA1115CA
:102D600045EA10654FEA00260EF000419D4208BF7B
:102D7000964244F1FD0404F5407402D25B084FEA28
:102D80003202B61A65EB03055B084FEA32024FF4D4
:102D900080104FF4002CB6EB020E75EB030E22BF31
:102DA000B61A754640EA0C005B084FEA3202B6EBF1
:102DB000020E75EB030E22BFB61A754640EA5C00A0
:102DC0005B084FEA3202B6EB020E75EB030E22BF30
:102DD000B61A754640EA9C005B084FEA3202B6EB31
:102DE000020E75EB030E22BFB61A754640EADC00F0
:102DF00055EA060E18D04FEA051545EA16754FEA52
:102E000006164FEAC30343EA52734FEAC2025FEA6F
:102E10001C1CC0D111F4801F0BD141EA00014FF0FE
:102E200000004FF0004CB6E711F4801F04BF0143CF
:102E30000020B4F1FD0C88BFBCF5E06F3FF6AFAEEB
:102E4000B5EB030C04BFB6EB020C5FEA500C50F17B
:102E5000000041EB045170BD0EF0004E4EEA1131FE
:102E600014EB5C04C2BFD4EB0C0541EA045170BD05
:102E700041F480114FF0000E013C90E645EA060E49
:102E80008DE60CEA135594EA0C0F08BF95EA0C0F77
:102E90003FF43BAF94EA0C0F0AD150EA01347FF4BF
:102EA00034AF95EA0C0F7FF425AF104619462CE796
:102EB00095EA0C0F06D152EA03353FF4FDAE1046F9
:102EC000194622E750EA410618BF52EA43067FF44A
:102ED000C5AE50EA41047FF40DAF52EA43057FF4DA
:102EE000EBAE12E74FF0FF3C06E000BF4FF0010CE5
:102EF00002E000BF4FF0010C4DF804CD4FEA410C49
:102F00007FEA6C5C4FEA430C18BF7FEA6C5C1BD015
:102F100001B050EA410C0CBF52EA430C91EA030F96
:102F200002BF90EA020F0020704710F1000F91EAF3
:102F3000030F58BF994208BF90422CBFD8176FEAC1
:102F4000E37040F0010070474FEA410C7FEA6C5C8F
:102F500002D150EA013C07D14FEA430C7FEA6C5C96
:102F6000D6D152EA033CD3D05DF8040B704700BFC2
:102F70008446104662468C461946634600E000BF10
:102F800001B5FFF7B7FF002848BF10F1000F01BDE2
:102F90004DF808EDFFF7F4FF0CBF012000205DF8AD
:102FA00008FB00BF4DF808EDFFF7EAFF34BF012032
:102FB00000205DF808FB00BF4DF808EDFFF7E0FFCB
:102FC00094BF012000205DF808FB00BF4DF808ED1C
:102FD000FFF7CEFF94BF012000205DF808FB00BF83
:102FE0004DF808EDFFF7C4FF34BF012000205DF865
:102FF00008FB00BF4FEA4102B2F1E04324BFB3F542
:10300000001CDCF1FE5C0DD901F0004C4FEAC0025F
:103010004CEA5070B2F1004F40EB830008BF20F043
:103020000100704711F0804F21D113F13872BCBFFD
:1030300001F00040704741F480114FEA5252C2F152
:103040001802C2F1200C10FA0CF320FA02F018BF9B
:1030500040F001004FEAC1234FEAD32303FA0CFCEE
:1030600040EA0C0023FA02F34FEA4303CCE77FEA7D
:10307000625307D150EA01331EBF4FF0FE4040F4C7
:103080004000704701F0004040F0FE4040F4000076
:10309000704700BF80F0004002E000BF81F00041B7
:1030A00042001FBF5FEA410392EA030F7FEA226CEE
:1030B0007FEA236C6AD04FEA1262D2EB1363C1BF7E
:1030C000D218414048404140B8BF5B42192B88BFED
:1030D000704710F0004F40F4000020F07F4018BF10
:1030E000404211F0004F41F4000121F07F4118BF30
:1030F000494292EA030F3FD0A2F1010241FA03FCD8
:1031000010EB0C00C3F1200301FA03F100F00043BF
:1031100002D5494260EB4000B0F5000F13D3B0F187
:10312000807F06D340084FEA310102F10102FE2AF6
:1031300051D2B1F1004F40EBC25008BF20F0010066
:1031400040EA03007047490040EB000010F4000F14
:10315000A2F10102EDD1B0FA80FCACF1080CB2EBA7
:103160000C0200FA0CF0AABF00EBC2505242184306
:10317000BCBFD0401843704792F0000F81F40001AB
:1031800006BF80F400000132013BB5E74FEA41037E
:103190007FEA226C18BF7FEA236C21D092EA030FEA
:1031A00004D092F0000F08BF0846704790EA010F64
:1031B0001CBF0020704712F07F4F04D1400028BF91
:1031C00040F00040704712F100723CBF00F5000073
:1031D000704700F0004343F0FE4040F400007047A9
:1031E0007FEA226216BF08467FEA23630146420255
:1031F00006BF5FEA412390EA010F40F48000704768
:103200004FF0000304E000BF10F0004348BF40420D
:103210005FEA000C08BF704743F0964301464FF049
:1032200000001CE050EA010208BF70474FF00003A5
:103230000AE000BF50EA010208BF704711F00043E6
:1032400002D5404261EB41015FEA010C02BF8446B6
:103250000146002043F0B64308BFA3F18053A3F515
:103260000003BCFA8CF2083AA3EBC25310DB01FA5C
:1032700002FC634400FA02FCC2F12002BCF1004FE0
:1032800020FA02F243EB020008BF20F00100704771
:1032900002F1200201FA02FCC2F1200250EA4C00C5
:1032A00021FA02F243EB020008BF20EADC7070470B
:1032B0004FF0FF0C1CEAD0521EBF1CEAD15392EA19
:1032C0000C0F93EA0C0F6FD01A4480EA010C4002F5
:1032D00018BF5FEA41211ED04FF0006343EA50104F
:1032E00043EA5111A0FB01310CF00040B1F5000F91
:1032F0003EBF490041EAD3715B0040EA010062F140
:103300007F02FD2A1DD8B3F1004F40EBC25008BF29
:1033100020F00100704790F0000F0CF0004C08BF47
:1033200049024CEA502040EA51207F3AC2BFD2F114
:10333000FF0340EAC250704740F400004FF0000322
:10334000013A5DDC12F1190FDCBF00F0004070475C
:10335000C2F10002410021FA02F1C2F1200200FA9A
:1033600002FC5FEA310040F1000053EA4C0308BF61
:1033700020EADC70704792F0000F00F0004C02BFB2
:10338000400010F4000F013AF9D040EA0C0093F02D
:10339000000F01F0004C02BF490011F4000F013B87
:1033A000F9D041EA0C018FE70CEAD15392EA0C0FF5
:1033B00018BF93EA0C0F0AD030F0004C18BF31F060
:1033C000004CD8D180EA010000F00040704790F036
:1033D000000F17BF90F0004F084691F0000F91F0DA
:1033E000004F14D092EA0C0F01D142020FD193EAA0
:1033F0000C0F03D14B0218BF084608D180EA010028
:1034000000F0004040F0FE4040F40000704740F003
:10341000FE4040F4400070474FF0FF0C1CEAD052D1
:103420001EBF1CEAD15392EA0C0F93EA0C0F69D02D
:10343000A2EB030280EA010C49024FEA402037D098
:103440004FF0805343EA111143EA10130CF000408F
:103450008B4238BF5B0042F17D024FF4000C8B427F
:1034600024BF5B1A40EA0C00B3EB510F24BFA3EB5F
:10347000510340EA5C00B3EB910F24BFA3EB91032F
:1034800040EA9C00B3EBD10F24BFA3EBD10340EA89
:10349000DC001B0118BF5FEA1C1CE0D1FD2A3FF6CF
:1034A00050AF8B4240EBC25008BF20F00100704784
:1034B0000CF0004C4CEA50207F32C2BFD2F1FF0327
:1034C00040EAC250704740F400004FF00003013A58
:1034D00037E792F0000F00F0004C02BF400010F4FC
:1034E000000F013AF9D040EA0C0093F0000F01F010
:1034F000004C02BF490011F4000F013BF9D041EA32
:103500000C0195E70CEAD15392EA0C0F08D1420264
:103510007FF47DAF93EA0C0F7FF470AF084676E737
:1035200093EA0C0F04D14B023FF44CAF08466EE710
:1035300030F0004C18BF31F0004CCAD130F00042DE
:103540007FF45CAF31F000437FF43CAF5FE700BF36
:103550004FF0FF3C06E000BF4FF0010C02E000BF5F
:103560004FF0010C4DF804CD4FEA40024FEA410301
:103570007FEA226C18BF7FEA236C11D001B052EAB7
:10358000530C18BF90EA010F58BFB2EB030088BF7D
:10359000C81738BF6FEAE17018BF40F001007047EC
:1035A0007FEA226C02D15FEA402C05D17FEA236CCE
:1035B000E4D15FEA412CE1D05DF8040B704700BF15
:1035C000844608466146FFE70FB5FFF7C9FF0028AC
:1035D00048BF10F1000F0FBD4DF808EDFFF7F4FFE5
:1035E0000CBF012000205DF808FB00BF4DF808ED7E
:1035F000FFF7EAFF34BF012000205DF808FB00BFA1
:103600004DF808EDFFF7E0FF94BF012000205DF8C2
:1036100008FB00BF4DF808EDFFF7D2FF94BF012073
:1036200000205DF808FB00BF4DF808EDFFF7C8FF6C
:1036300034BF012000205DF808FB00BF0FB400B5C7
:10364000074983B004AB086853F8042B81680193E1
:1036500001F078FA03B05DF804EB04B0704700BFE6
:10366000580400200EB4F0B59CB021AB0F4953F8BC
:10367000042B019305466FF00044086802954FF44F
:1036800002774FF6FF7602A90695ADF81470049400
:103690000794ADF8166000F00BF8029B00221A7038
:1036A0001CB0BDE8F04003B0704700BF58040020D4
:1036B0002DE9F04FC1B089460A920E93089003F0AD
:1036C00059FF03681793184604F000FFB9F80C304F
:1036D00018901A0604D5D9F81030002B01F08C8010
:1036E000002330AF139325932493169319930B93D0
:1036F0002397149315933C464E460A9D2B78002B36
:1037000000F0A980252B02D1A5E0252B03D015F8C8
:10371000013F002BF9D10A9BEB1A73B1249A25992A
:103720000A98206001321944072A63602591249287
:1037300072DC08340B9A1A440B922B78002B00F0A1
:10374000B5870023691C6D788DF86F301A460C938D
:1037500007934FF0FF3A4B1CA5F12001582900F2C6
:10376000D983DFE811F07002D703D7037403D703BE
:10377000D703D703D703D703D703F0020D02D7032C
:10378000F4011102D7037B03BA02BA02BA02BA02E9
:10379000BA02BA02BA02BA02BA02D703D703D703EF
:1037A000D703D703D703D703D703D703D703C90258
:1037B0008B03D7038B03D703D703D703D7036D033B
:1037C000D703D7030503D703D703D703D703D703FB
:1037D0002303D703D7033D03D703D703D703D70367
:1037E000D703D703D703D703D703D70358032C0234
:1037F0008B038B038B03FE022C02D703D703E60255
:10380000D7037E02FB01C0037702D7039202D703DE
:103810007A00D703D7034A0208980793314623AAB0
:1038200004F082FE50B93C46079B83E70898314676
:1038300023AA04F079FE002800F08581B146B9F88A
:103840000C3013F0400F0B9B18BF4FF0FF3318469E
:1038500041B0BDE8F08F0A9D6FE70A93079B980679
:1038600040F1AD820E9B03F1070929F0070303F134
:103870000802D3E900890E9201234FF0000C8DF865
:103880006FC0CDF844A0BAF1000F03DB079A22F015
:103890008002079258EA090240F04C83BAF1000F07
:1038A00000F05184012B00F04F83022B00F0908434
:1038B00039464FEAD80242EA49724FEAD90008F085
:1038C000070381469046303358EA090201F8013D6A
:1038D000EFD1079A1091D20700F144857B1A0D931E
:1038E0000D9A92455346B8BF13460993002312938D
:1038F000BCF1000F02D0099B01330993079B13F021
:1039000002030F9302D0099B02330993079B13F024
:10391000840940F00C830C9B099AC2EB0308B8F1B0
:10392000000F40F30483B8F1100F2599249ADFF8B3
:1039300044A529DD53464FF0100BC246A8461D464C
:1039400006E0AAF1100ABAF1100F04F1080417DD1D
:1039500001321031072A2591249284E82008F0DDF5
:103960000898314623AA04F0DFFD00287FF466AFF3
:10397000AAF1100ABAF1100F2599249A3C46E7DC07
:103980002B464546D0469A46013208EB010B072AE2
:10399000CDF894B02492C4F800A0C4F8048000F3D9
:1039A0007B849DF86FC00834BCF1000F0FD0249BBE
:1039B00001330BF1010B0DF16F010122072BCDF843
:1039C00094B0249384E8060000F3DA8308340F9B54
:1039D00073B1249B01330BF1020B1CA90222072BAC
:1039E000CDF894B0249384E8060000F3D58308341E
:1039F000B9F1800F00F01183119B0D9AC2EB030AFD
:103A0000BAF1000F3CDDBAF1100F249ADFF8689488
:103A10002BDD49465B46A9464FF01008DDF820B083
:103A20000D4606E0AAF1100ABAF1100F04F10804DD
:103A300017DD01321033072A2593249284E82001F0
:103A4000F0DD5846314623AA04F06EFD00287FF4CD
:103A5000F5AEAAF1100ABAF1100F259B249A3C4644
:103A6000E7DC9B462B464D4699460132D344072A54
:103A7000CDF894B0249284E8000600F375830834EE
:103A8000079BD90500F16C82249B0D99109A226046
:103A900001338B44072BCDF894B06160249300F37D
:103AA00046830834079B5A0741D50C9B099A9D1AF7
:103AB000002D3CDD102D249BDFF8B8A323DD4FF053
:103AC00010085A46DDF8209004E0103D102D04F156
:103AD000080417DD01331032072B25922493C4F814
:103AE00000A0C4F80480F0DD4846314623AA04F063
:103AF0001BFD00287FF4A2AE103D102D259A249BBB
:103B00003C46E7DC93460133AB44072BCDF894B039
:103B10002493C4F800A0656009DD0898314623AA03
:103B200004F002FD00287FF489AEDDF894B00B9B11
:103B3000099A0C998A42ACBF9B185B180B93BBF196
:103B4000000F7FF473AE002324933C46D5E519465D
:103B500007981D7840F004000790FCE50A93079B46
:103B600013F0200300F00E810E9B03F1070929F0EA
:103B7000070303F10802D3E900890E9200237CE6D3
:103B80001D7819462B22E6E51D782A2D03F1010147
:103B900000F0AD87A5F1300009280B464FF0000A70
:103BA0003FF6DAAD13F8015B0AEB8A0A00EB4A0A2A
:103BB000A5F130000928F5D94AEAEA7ACCE50A935A
:103BC000079B8DF86F209B0640F1A1800E9B03F1AF
:103BD000070929F00709D9E9002309F108010E9125
:103BE00090469946002A73F10003C0F20B849DF8B9
:103BF0006FC0CDF844A0012345E60A939B4B169372
:103C0000079B8DF86F209B0640F1F3800E9B03F11C
:103C1000070929F00703D3E9008903F108020E928E
:103C2000079BD90740F1F58058EA090300F0F180BD
:103C3000079A8DF87150302342F002028DF87030EF
:103C40000792022319E61D781946002A7FF483ADF6
:103C5000202280E5079941F0200107911D7819463F
:103C600079E50A93079B8DF86F209A0640F1A184AD
:103C70000B990E9A4FEAE179136808468846043298
:103C800049460E92C3E9000137E50E9A0A9313687C
:103C900010934FF0000B8DF86FB002F10409002B68
:103CA00000F03B86BAF1000F1098C0F2E985594642
:103CB000524603F061FF002800F06C86109BCDF89F
:103CC00044B0C31A0D93CDF8389023EAE3730993F7
:103CD000CDF848B09DF86FC00AE6A5F1300000218C
:103CE00013F8015B01EB810100EB4101A5F130000C
:103CF0000928F5D90C912FE50A93079B8DF86F20C1
:103D000043F010030793079B9B063FF55FAF079BAC
:103D1000D80600F16883079B590640F164830E9929
:103D2000B1F9008004314FEAE87942464B460E91E2
:103D300058E71D7807996C2D00F0CB8441F01001F5
:103D40000791194607E50E9D29680C910846002841
:103D5000294601F10401C0F2B5840E911D7819467F
:103D6000F9E4079941F0400107911D781946F2E402
:103D70000A93079B43F010030793079B13F020035C
:103D80007FF4F2AE079A12F0100240F01983079BFD
:103D900013F0400300F014830E9913460A460432D0
:103DA000B1F800800E924FF0000966E50A93079B78
:103DB00043F010030793079B98063FF553AD079B0D
:103DC000D90600F10683079B5A0640F102830E9A3A
:103DD000B2F8008004324FF0000901230E924CE546
:103DE0000A93234B1693079B8DF86F209B063FF594
:103DF0000DAF079BD80640F1CD830E9A13461B6882
:103E00009846079B0432D9070E924FF000093FF500
:103E10000BAF022331E50E990A930A688DF89820BA
:103E20000023012204319C4609920E918DF86F30D7
:103E300026ABCDF844C0CDF848C00D9210935DE597
:103E4000079941F0080107911D78194683E4079905
:103E500041F0010107911D7819467CE4079941F072
:103E6000800107911D78194675E400BF94980008F9
:103E70008098000860980008B49800080A930E9B88
:103E80008DF86F2003F1070929F0070303F10802F9
:103E90000E921A6814925B6815931599149804F0A1
:103EA00095FA0128D3461498159940F059830022B9
:103EB0000023FFF777F8002840F064859DF86FC075
:103EC000079BBE4ADFF800E323F080030793134605
:103ED00003210020472DD8BF7346099111901093FC
:103EE0000D91129004E50E9807990A933022036809
:103EF0008DF870200246782541F002010432984680
:103F0000AF4B169307910E924FF000098DF8715048
:103F10000223B2E40A938DF86F20002D00F0C683CF
:103F2000002301229C4609928DF898507EE7DDF827
:103F300094B039E5012B7FF4B8ACB9F1000F08BF9C
:103F4000B8F10A0F80F01C820DF5807B08F1300873
:103F50000BF8418DCBEB07030D93CDF840B0BFE4D8
:103F6000652D40F3A0801498159900220023FFF7D7
:103F70000FF8002800F04581249B924A226001330B
:103F80000BF1010B0122072BCDF894B02493626052
:103F900000F3348308341D9B139A934203DB079B81
:103FA000DA077FF57FAD249B1899179A22600133B9
:103FB0008B44072BCDF894B06160249300F3908379
:103FC0000834139B5D1E002D7FF76CAD102D249BD4
:103FD000DFF8F89140F3BA814FF010085A46DDF847
:103FE00020A004E00834103D102D40F3AE810133D1
:103FF0001032072B25922493C4F80090C4F8048053
:10400000F0DD5046314623AA04F08EFA00287FF4F2
:1040100015AC259A249B3C46E5E70C9B099AC2EB1C
:10402000030ABAF1000F7FF7E7ACBAF1100F249A38
:10403000DFF898912BDD49465B46A9464FF0100802
:10404000DDF820B00D4606E0AAF1100ABAF1100F13
:1040500004F1080417DD01321033072A2593249256
:1040600084E82001F0DD5846314623AA04F05CFACA
:1040700000287FF4E3ABAAF1100ABAF1100F259BD8
:10408000249A3C46E7DC9B462B464D469946013236
:10409000D344072ACDF894B0249284E8000600F3B4
:1040A00052820834A8E4139B249D012B40F3208204
:1040B000109B236001350BF101030122072D25938D
:1040C0002495626000F326820834189961600135F6
:1040D00003EB010B072D179BCDF894B024952360BB
:1040E00000F3248208340023149815990022FEF767
:1040F0004FFF139B002840F0DE80109A013B0135F2
:1041000001329B44072D2495CDF894B02260636062
:1041100000F30E810834199A6260013593441FAB95
:10412000072DCDF894B0249523607FF7BAAC08989A
:10413000314623AA04F0F8F900287FF47FABDDF8BC
:1041400094B03C46AEE4002B32D1079BD8072FD564
:104150000DF5807B30230BF8413DCBEB07030D932E
:10416000CDF840B0FFF7BCBB0898314623AA04F055
:10417000DBF900287FF462ABDDF894B03C467FE4C5
:104180000898314623AA04F0CFF900287FF456ABF3
:10419000DDF894B03C461AE40898314623AA04F0AE
:1041A000C3F900287FF44AABDDF894B03C461FE425
:1041B000CDF834A01097FFF793BB00BF74980008A8
:1041C00094980008B098000870980008B498000807
:1041D0001698BB464FEA181308F00F0143EA09731B
:1041E0004FEA191298469146435C0BF8013D58EA94
:1041F0000903EFD15B46CDF840B0FB1A0D93FFF7F2
:104200006FBB1D9D002D40F30582139A12998A42BF
:104210001346A8BF0B461D461099002D01EB020A5C
:104220000BDD249B21600133AB44072BCDF894B008
:104230006560249300F34D830834129B002DA8BFC2
:104240005B1B002B1D4640F3F580102D249BDFF8EF
:10425000F49540F3C6815A464FF01008DDF820B0BF
:1042600004E00834103D102D40F3BA8101331032C0
:10427000072B25922493C4F80090C4F80480F0DD45
:104280005846314623AA04F04FF900287FF4D6AAF5
:10429000259A249B3C46E5E70898314623AA04F07A
:1042A00043F900287FF4CAAA9DF86FC0DDF894B0E6
:1042B0003C46FFF779BB03F1FF38B8F1000F7FF7F9
:1042C0002AAFB8F1100FDFF87C9525DD5B464FF083
:1042D000100ADDF820B006E0A8F11008B8F1100FC0
:1042E00004F1080417DD01351033072D25932495BB
:1042F00084E80006F0DD5846314623AA04F014F99C
:1043000000287FF49BAAA8F11008B8F1100F259B94
:10431000249D3C46E7DC9B460135C344072DCDF880
:1043200094B02495C4F80090C4F804807FF7F2AEEE
:104330000898314623AA04F0F7F800287FF47EAAF3
:10434000DDF894B0249D3C46E5E693460133AB444A
:10435000072BCDF894B02493C4F8009065607FF7E4
:10436000A0ABE4E6302B109B3FF447AF013B1A466D
:104370001093BA1A30230D9201F8013CFFF7B0BA3E
:10438000BB46CDF824C0404649460A22002304F02B
:1043900077FF3032404649460BF8012D00230A22B0
:1043A00004F06EFF8046894658EA0903EBD15B466C
:1043B000FB1ADDF824C0CDF840B00D93FFF790BA9A
:1043C0000E990A6804310E9190464FF00009FFF7EC
:1043D00054BA0E990A68043101230E9190464FF0A9
:1043E0000009FFF74ABA0E9A136898464FEAE37934
:1043F0001346043342460E93002A4B4673F10003E2
:10440000BFF6F5AB4FF02D0CD8F1000869EB490968
:104410008DF86FC0CDF844A00123FFF734BA089897
:10442000314623AA04F080F800287FF407AADDF8BB
:1044300094B03C46109A12991D9B0A449046139AD8
:10444000934246DB079AD00743D4139AC8EB0A0578
:10445000D31A9D42A8BF1D46002D0CDD249AC4F836
:1044600000800132AB44072ACDF894B065602492F5
:1044700000F367820834002DACBF5D1B1D46002D84
:104480007FF710AB102D249BDFF8B8937FF75EAF5A
:104490004FF010085A46DDF820A004E00834103D23
:1044A000102D7FF752AF01331032072B2592249342
:1044B000C4F80090C4F80480F0DD5046314623AAC9
:1044C00004F032F800287FF4B9A9259A249B3C46D1
:1044D000E5E7249A18981799216001328344072A46
:1044E000CDF894B06060249200F30A820834ACE7FF
:1044F000079BD9073FF5DCAD109B236001350BF11D
:10450000010B0123072DCDF894B0249563607FF74C
:1045100001AE0DE70898314623AA04F005F80028FB
:104520007FF48CA9259B249D3C46CEE50898314616
:1045300023AA03F0F9FF00287FF480A9DDF894B0E6
:10454000249D3C46CFE50898314623AA03F0ECFFB2
:1045500000287FF473A9DDF894B03C46FFF74CBA0D
:1045600003F034FF002840F0C7808646B24AB34BC0
:10457000119007989DF86FC0CDF848E0032120F016
:104580008000472DD8BF1A460991079010920D91CF
:10459000FFF7AEB9079B0E9A13F0400F13463FF496
:1045A0002EAC0433B2F800800E934FF00009FFF7F1
:1045B00037BB079BDB060BD4079B5D0608D50E9A1D
:1045C000136804320E92BDF82C201A80FFF795B8BC
:1045D0000E9A136804320E920B9A1A60FFF78DB888
:1045E00093460133AB44072BCDF894B02493C4F821
:1045F000009065603FF713AF08341BE70898314619
:1046000023AA03F091FF00287FF418A9DDF894B0E5
:104610003C46C0E4249B8A4A226001330BF1010B23
:104620000122072BCDF894B02493626000F3F4804C
:1046300008342DB9139B1BB9079BDB077FF532AA02
:10464000249B1898179A226001330BEB0001072B6B
:1046500025916060249300F3F38104F108026D4218
:10466000002D40F3FC80102DDFF8D89140F33D8100
:104670001024DDF8208004E00832103D102D40F3B6
:10468000348101331031072B25912493C2F8009017
:104690005460F1DD4046314623AA03F045FF00286F
:1046A0007FF4CCA82599249B3A46E6E7259BB146A2
:1046B000002B3FF4C4A80898314623AA03F034FF26
:1046C000FFF7BDB80C980E9140420C901946FFF7C9
:1046D0003FBA41F0200107915D78591CFFF73BB8C4
:1046E0000898314623AA03F01FFF00287FF4A6A8EC
:1046F000DDF894B03C4664E425F02003BAF1FF3FB6
:104700000D9300F09680472B05D1BAF1000F14BF2E
:10471000D3464FF0010B079B43F480731193159B15
:10472000B3F1000A149B0993BBBF534603F1004A3F
:1047300000232D23662D0F9300F0AC80462D00F052
:10474000A9800D9B099A452B0CBF0BF10109D94695
:1047500002201DA98DE8010202911EA821A9039043
:1047600053460491089801F017FD672D109002D070
:10477000472D40F09F80079BDB0740F18981109B0C
:1047800003EB09080998514600220023FEF700FCBC
:10479000002840F0FD80219B984506D930215A1C05
:1047A00021921970219B9845F9D8109A9B1A13935E
:1047B0000D9B472B1D9B00F0DE80652D40F3F8809C
:1047C000662D129300F05781139B129A934200F3C7
:1047D0004481079BD90700F1738122EAE2730D92AD
:1047E0000F9A002A40F0BC800993119B0793119205
:1047F0009DF86FC0FFF77CB80898402102F02EFFAB
:10480000C9F80000C9F81000002800F08C8140238E
:10481000C9F81430FEF764BF0898314623AA03F0A4
:1048200083FE00287FF40AA81D9DDDF894B03C4665
:10483000FFE64FF0060B6EE77C98000878980008BA
:10484000B0980008B49800080898314623AA03F0ED
:104850006BFE00287EF4F2AF2599249B3A46139C08
:104860005460013301EB040B072B1099CDF894B081
:10487000249311603FF75BAC02F10804FFF712B913
:10488000CDF844B003F022FECDF838900D900346E9
:10489000FFF71BBA03201DA98DE8010802911EA88D
:1048A00021A90390099A04915346089801F074FCD9
:1048B000D9461090109B03EB09080D9B462B7FF403
:1048C00061AF109B1B78302B00F0E4801D9B984457
:1048D00058E70898314623AA03F026FE00287EF404
:1048E000ADAFDDF894B03C46A7E401332944072B73
:1048F00025912493C2F800905560A5DC0832AEE7FC
:104900000898314623AA03F00FFE00287EF496AFE4
:104910001D9BDDF894B03C4697E55346062B28BF17
:1049200006230D9323EAE373DDF840C00993834B1C
:10493000CDF83890CDF844C0CDF848C01093FEF7BC
:10494000D7BF0898314623AA03F0EEFD00287EF475
:1049500075AF1D9B139ADDF894B0D31A3C468AE5D7
:104960000993119B07934FF02D0C00238DF86FC016
:104970001193FEF7C0BFDA1C19DB9B4517DB1293BE
:10498000672521E74FF02D0C8DF86FC0FFF798BA1F
:1049900043460AE72AEAEA731190CDF8389012905C
:1049A0009DF86FC00993CDF834A0FEF7A1BF023D7A
:1049B000013B002B1D93BABF5B422D222B22092BFA
:1049C0008DF87C508DF87D2072DD0DF18B0E7046D8
:1049D0005B4A82FB0321DA17C2EBA10202EB8201E0
:1049E000A3EB410303F13001092A134600F8011D2E
:1049F000EEDC02463033D9B202F8011D964540F292
:104A000099800DF17E02034601E013F8011B02F8C4
:104A1000011B7345F9D123AB1B1A0DF17E02134420
:104A20001FAA9B1A139A1993012A13440D936BDD45
:104A30000D9B002201330D93129223EAE373CFE61C
:104A40000898314623AA03F06FFD00287EF4F6AEE5
:104A50001D9D2599249B3A4601E6129B002BD8BF49
:104A6000C3F10208139BC8BF4FF0010843440D93E4
:104A700023EAE373B4E6002B30DDBBF1000F25D150
:104A8000079BDB0722D4129A0D9222EAE273A7E673
:104A9000219B8AE60998514600220023FEF778FA06
:104AA00000287FF413AFC9F101031D93984469E610
:104AB000303330228DF87F308DF87E2020ABAFE789
:104AC000129B01330D9323EAE37389E6129B0BF1EA
:104AD000010843440D9323EAE37381E6BBF1000F21
:104AE0001BD1079BD80718D401230D9378E60E9DA0
:104AF000D5F800A028460430BAF1000F5D780E907A
:104B0000BEF629AEFEF725BE079B13F001038FD139
:104B100012930D9B23EAE37362E60BF102030D93FC
:104B200023EAE3735CE6089A0C2313604FF0FF302E
:104B3000FEF78EBE0DF17E0372E700BFA898000855
:104B4000676666662DE9F04FBFB01C46894608923D
:104B5000074602F00FFD03681593184603F0B6FCF4
:104B60000C9416901FB1BB6B002B00F0F380B9F8CA
:104B70000C2093B29D040AD4D9F8641042F4005377
:104B800021F40051A9F80C30C9F864109BB2180741
:104B900040F1AA80D9F81020002A00F0A58003F087
:104BA0001A030A2B00F0AC8000231A4611932393BA
:104BB00022931493179309932EAB9C462193129240
:104BC00013926446B846089D2B78002B00F0C680EF
:104BD000252B02D1C2E0252B03D015F8013F002B75
:104BE000F9D1089BEE1A7EB1229B239A0899216085
:104BF00001333244072B66602392229300F39380A3
:104C00000834099B334409932B78002B00F09380E0
:104C10000023691C4FF0FF3A6D788DF867301A4613
:104C20000A93069356464B1CA5F12001582900F221
:104C3000C183DFE811F05602BF03BF03F602BF03D2
:104C4000BF03BF03BF03BF03BF03FD02C602BF0311
:104C5000F2014703BF03CA02D102D102D102D1023D
:104C6000D102D102D102D102D102BF03BF03BF03DF
:104C7000BF03BF03BF03BF03BF03BF03BF036B0279
:104C80008D02BF038D02BF03BF03BF03BF03BF027B
:104C9000BF03BF036203BF03BF03BF03BF03BF0361
:104CA000A903BF03BF037F03BF03BF03BF03BF034A
:104CB000BF03BF03BF03BF03BF03BF0394030B03C3
:104CC0008D028D028D0224030B03BF03BF032B0350
:104CD000BF033503F901E0025D02BF030B02BF030E
:104CE0009500BF03BF0330023846494601F05AF928
:104CF000A0B9B9F80C3003F01A030A2B7FF454AFB3
:104D0000B9F90E30002BFFF64FAF38464946089AE6
:104D1000234601F00BF93FB0BDE8F08F4FF0FF30B4
:104D20003FB0BDE8F08F4046494621AA03F0BAFCE7
:104D300040B92EAC65E7239B23B14046494621AAE2
:104D400003F0B0FCB9F80C305A06E7D409983FB02C
:104D5000BDE8F08F384602F0A9FA08E7089D53E74E
:104D60000893069BB2469E0640F118830C9F0737B6
:104D700027F0070303F10802D3E900670C9201232F
:104D80004FF0000C8DF867C0CDF83CA0BAF1000FD1
:104D900003DB069A22F08002069256EA070240F0F0
:104DA0001983BAF1000F00F01684012B00F01A836A
:104DB000022B00F04C842EA9F20842EA4772F80850
:104DC00006F0070307461646303356EA070201F895
:104DD000013DF1D1069A0E91D00700F10D852EAB61
:104DE0005B1A0B930B9A92455346B8BF1346079331
:104DF00000231093BCF1000F02D0079B01330793EF
:104E0000069B13F002030D9302D0079B0233079316
:104E1000069B13F0840640F0DA820A9B079AC2EBE5
:104E2000030ABAF1000F40F3D282BAF1100F2399AE
:104E3000229AB34FC8BF4FF0100B07DC1EE0AAF157
:104E4000100ABAF1100F04F1080417DD0132103115
:104E5000072A2391229284E88008F0DD40464946E3
:104E600021AA03F01FFC00287FF46CAFAAF1100AFE
:104E7000BAF1100F2399229A2EACE7DC01320AEB2B
:104E8000010B072ACDF88CB0229284E8800400F34D
:104E900043849DF867C00834BCF1000F0FD0229BFB
:104EA00001330BF1010B0DF167010122072BCDF846
:104EB0008CB0229384E8060000F3B78308340D9B7E
:104EC00073B1229B01330BF1020B1AA90222072BAB
:104ED000CDF88CB0229384E8060000F39A8308345E
:104EE000802E00F0EA820F9B0B9AC2EB030ABAF104
:104EF000000F32DDBAF1100F229A824F22DD102608
:104F00005B4606E0AAF1100ABAF1100F04F108049A
:104F100017DD01321033072A23932292276066603F
:104F2000F0DD4046494621AA03F0BCFB00287FF48F
:104F300009AFAAF1100ABAF1100F239B229A2EACE6
:104F4000E7DC9B460132D344072ACDF88CB022928D
:104F500084E8800400F351830834069BDB0500F1EC
:104F60005582229B0B990E9A226001338B44072BAA
:104F7000CDF88CB06160229300F317830834069B50
:104F800059073AD50A9B079A9D1A002D35DD102D39
:104F9000229B5B4F1EDD10265A4604E0103D102D6B
:104FA00004F1080415DD01331032072B23922293FC
:104FB00027606660F2DD4046494621AA03F072FB95
:104FC00000287FF4BFAE103D102D239A229B2EACFB
:104FD000E9DC93460133AB44072BCDF88CB0229328
:104FE0002760656009DD4046494621AA03F05AFB67
:104FF00000287FF4A7AEDDF88CB0099B079A0A99C8
:105000008A42ACBF9B185B180993BBF1000F40F0BC
:10501000D882002322932EACD5E5194606981D7838
:1050200040F004000690FEE50893069B13F0200371
:10503000B24600F06D810C9F073727F0070303F19C
:105040000802D3E900670C92002399E60C9A0893B2
:1050500013680E934FF0000B8DF867B0171D002BEF
:1050600000F04F86002E0E98C0F201865946324657
:1050700002F082FD002800F080860E9BCDF83CB047
:10508000C31A0B930C9723EAE3730793CDF840B050
:105090009DF867C0AEE608931B4B1493069B8DF8F2
:1050A00067209906B24640F14F810C9F073727F0E1
:1050B0000703D3E9006703F108020C92069BDB07A4
:1050C00040F1DE8256EA070300F0DA82069A8DF894
:1050D0006950302342F002028DF8683006920223B4
:1050E0004EE61D781946002A7FF49DAD20229AE5F0
:1050F000069941F0200106911D78194693E500BFFD
:10510000D4980008C4980008949800080893069B57
:105110008DF8672043F010030693069B9906B2466C
:1051200040F19C800C9F073727F00707D7E9002341
:1051300007F108010C9116461F46002A73F100037F
:10514000C0F215849DF867C0CDF83CA001231DE690
:105150000C9F0893073727F007038DF8672003F1AA
:1051600008020C921A6812925B68139313991298B2
:1051700003F02CF90128B3461298139940F00684E5
:1051800000220023FDF70EFF002840F0EE859DF879
:1051900067C0069E994A9A4B0321002026F080069C
:1051A000472DD8BF1A4607910F9006960E920B9185
:1051B00010901FE6069941F0080106911D781946E6
:1051C00031E51D7819462B222DE5069941F0800125
:1051D00006911D78194626E5A5F13000002113F847
:1051E000015B01EB810100EB4101A5F130000928D1
:1051F000F5D90A9118E50C9908933023069A8DF891
:1052000068300B460433782542F002020C937D4B44
:105210001493B24606920E688DF869500027022357
:10522000AEE5069941F0010106911D781946FAE4B0
:105230000C9D29680A9108460028294601F10401BD
:10524000C0F2E3840C911D781946ECE40893069BA8
:105250008DF867209906B2463FF564AF069BDA06E3
:1052600000F19282069B5B0640F18E820C99B1F9A7
:1052700000600431F71732463B460C915DE7069912
:1052800041F0400106911D781946CCE41D7806993D
:105290006C2D00F0B38441F0100106911946C2E470
:1052A0000893069B8DF867209A0640F100840C9ABB
:1052B00009991368CF170846043239460C92C3E99E
:1052C000000180E41D782A2D03F1010100F00E8613
:1052D000A5F1300009280B464FF000063FF6A4ACBC
:1052E00013F8015B06EB860600EB4606A5F13000DD
:1052F0000928F5D946EAE67696E40893069B43F03A
:1053000010030693069B13F02003B2467FF493AE7E
:10531000069A12F0100240F04082069B13F0400300
:1053200000F03B820C9913460A4604320E880C9218
:10533000002725E50893344B1493069B8DF86720CE
:105340009906B2463FF5B1AE069BDA0640F1C68338
:105350000C9A1346043316680C930027AEE60C999A
:1053600008930A688DF890200023012204319C469E
:1053700007920C918DF8673024ABCDF83CC0CDF886
:1053800040C00B920E933BE50893069B43F010033D
:105390000693069BB2469E063FF5E8AC069BD806F0
:1053A00040F177830C9A134604321E680C92012355
:1053B0000027E5E408938DF86720002D3FF4BBAC8F
:1053C000002301229C4607928DF89050D2E7DDF829
:1053D0008CB061E5012B7FF4EBAC002F08BF0A2EE7
:1053E00080F0EF810DF1F80B30360BF8416D2EABEC
:1053F000CBEB03030B93CDF838B0F3E474980008BB
:10540000709800089498000880980008652D40F373
:105410008A801298139900220023FDF7B9FD002815
:1054200000F03181229BBA4A226001330BF1010B5B
:105430000122072BCDF88CB02293626000F36783C2
:1054400008341B9B119A934203DB069BDF077FF511
:1054500096AD229B1699159A226001338B44072B37
:10546000CDF88CB06160229300F3D6830834119B91
:105470005D1E002D7FF783AD102D229BA54F40F3BD
:10548000958110265A4604E00834103D102D40F353
:105490008C8101331032072B2392229327606660A0
:1054A000F2DD4046494621AA03F0FCF800287FF4CB
:1054B00049AC239A229B2EACE7E70A9B079A9E1AD7
:1054C000002E7FF710AD102E229A924F1FDD4FF065
:1054D000100A5B4604E0103E102E04F1080415DDAE
:1054E00001321033072A2393229284E88004F2DDEC
:1054F0004046494621AA03F0D5F800287FF422ACA3
:10550000103E102E239B229A2EACE9DC9B460132E2
:10551000B344072ACDF88CB022922760666000F36E
:1055200019820834DFE4119B229D012B40F3D481C2
:105530000E9B236001350BF101060123072D2396F5
:105540002295636000F3E4810834169A159B23606A
:1055500001351644072D23962295626000F3E481FD
:1055600008340023129813990022FDF711FD119BB6
:10557000002840F0E0800E9A013B013501321E44C4
:10558000072D229523962260636000F3B5810834CD
:10559000179A6260013506EB020B1DAB072DCDF8A3
:1055A0008CB0229523607FF7E9AC4046494621AA9A
:1055B00003F078F800287FF4C5ABDDF88CB02EAC92
:1055C000DDE44046494621AA03F06CF800283FF488
:1055D00020ADFFF7B7BB002B33D1069BDA0730D5E0
:1055E0000DF1F80B30230BF8413D2EABCBEB030351
:1055F0000B93CDF838B0FFF7F5BB4046494621AADA
:1056000003F050F800287FF49DABDDF88CB02EAC91
:10561000A3E44046494621AA03F044F800287FF459
:1056200091ABDDF88CB02EAC5AE44046494621AA35
:1056300003F038F800287FF485ABDDF88CB02EAC91
:105640003DE42EABCDF82CA00E93FFF7CBBB149806
:105650000DF1B80B330906F00F0143EA07733A095D
:105660001E461746435C0BF8013D56EA0703F1D18D
:105670005A462EAB9B1ACDF838B00B93FFF7B2BB4E
:105680000223FFF77DBB1B9D002D40F34C82119A36
:1056900010998A421346A8BF0B461D460E99002D4D
:1056A00001EB020A0BDD229B21600133AB44072B87
:1056B000CDF88CB06560229300F300830834109B12
:1056C000002DA8BF5B1B002B1D4640F3AF80102DA3
:1056D000229B104F40F30F8210265A4604E00834F4
:1056E000103D102D40F3068201331032072B239218
:1056F000229327606660F2DD4046494621AA02F007
:10570000D1FF00287FF41EAB239A229B2EACE7E743
:10571000B0980008C49800084046494621AA02F003
:10572000C1FF00287FF40EAB9DF867C0DDF88CB098
:105730002EACFFF7B1BB03F1FF3ABAF1000F7FF7D0
:1057400027AFBAF1100F904FC8BF4FF0100B07DC16
:10575000F6E00834AAF1100ABAF1100F40F3F08015
:1057600001351036072D2396229584E88008F0DD58
:105770004046494621AA02F095FF00287FF4E2AA9C
:10578000239E229D2EACE5E70C9A1668134604333F
:10579000F7170C9332463B46CFE40C990A46043285
:1057A0000E680C920027FFF7EBBA93460133AB4427
:1057B000072BCDF88CB02293276065607FF7DEABB6
:1057C000F3E60DF1B80BCDF81CC0304639460A227D
:1057D000002303F055FD3032304639460BF8012DD9
:1057E00000230A2203F04CFD06460F4656EA070343
:1057F000EBD1DDF81CC03BE7302B00F019820E9B8B
:10580000013B1A462EA80E93821A30230B9201F800
:10581000013CFFF7E7BA4046494621AA02F042FFA1
:1058200000287FF48FAADDF88CB02EAC0E9A109968
:105830001B9B0A441646119A93423EDB069AD507F3
:105840003BD4119AC6EB0A05D31A9D42A8BF1D4648
:10585000002D2F460BDD229A26600132AB44072A29
:10586000CDF88CB06560229200F35E820834002F80
:10587000ACBFDD1B1D46002D7FF781AB102D229B99
:10588000414F93DD10265A4603E00834103D102D99
:105890008BDD01331032072B239222932760666041
:1058A000F3DD4046494621AA02F0FCFE00287FF4C1
:1058B00049AA239A229B2EACE8E7229A16981599BA
:1058C000216001328344072ACDF88CB060602292B7
:1058D00000F30A820834B4E7069BD8073FF528AEE8
:1058E0000E9B236001350BF101060123072D239642
:1058F000229563607FF74BAE4046494621AA02F0ED
:10590000D1FE00287FF41EAA239E229D2EAC3FE6E6
:105910004046494621AA02F0C5FE00287FF412AA9B
:10592000239E229D2EAC10E64046494621AA02F055
:10593000B9FE00287FF406AA239E229D2EAC10E615
:1059400001355644072D2396229584E880047FF77D
:105950001EAED1E74046494621AA02F0A3FE002828
:105960007FF4F0A9DDF88CB02EACFFF7BCBA4FF095
:105970002D0C764267EB47078DF867C0CDF83CA049
:105980000123FFF703BA00BFC498000802F01EFD10
:10599000002800F00D8125F02003B6F1FF3F0B93A6
:1059A00000F05882472B04D1002E14BFB3464FF0AD
:1059B000010B069B43F480730F93139BB3F1000A12
:1059C000129B0793BBBF534603F1004A00232D23CC
:1059D000662D0D9300F05481462D00F051810B9BF4
:1059E000079A452B0CBF0BF101075F4602201BA94C
:1059F0008DE8810002911CA81FA9039053460491D1
:105A0000404600F0C9FB672D0E9002D0472D40F0B4
:105A10004781069BDB0740F13A820E9BDE1907980F
:105A2000514600220023FDF7B3FA002840F0A3817D
:105A30001F9B9E4206D930215A1C1F9219701F9B32
:105A40009E42F9D80E9A9B1A11930B9B472B1B9BD6
:105A500000F07981652D40F39C81662D109300F054
:105A60000982119B109A934200F3F781069BD90794
:105A700000F1178222EAE2730B920D9A002A40F09D
:105A8000698107930F9B06930F929DF867C0FFF7FC
:105A9000B1B9069B0C9A13F0400F13463FF484AC47
:105AA00016880432002701230C92FFF769B9069B80
:105AB000DB060BD4069B5F0608D50C9A13680432EC
:105AC0000C92BDF824201A80FFF77DB80C9A136859
:105AD00004320C92099A1A60FFF775B8069B0C9A6B
