:020000040800F2
:1000000000A0002099190008DD190008DD1900087A
:10001000DD190008DD190008DD19000800000000E6
:10002000000000000000000000000000DD190008D2
:10003000DD19000800000000DD190008DD190008C6
:10004000DD190008DD190008DD190008DD190008B8
:10005000DD190008DD190008DD190008DD190008A8
:10006000DD190008DD190008DD190008DD19000898
:10007000DD190008DD190008DD190008DD19000888
:10008000DD190008DD190008DD190008DD19000878
:10009000DD190008DD190008DD190008DD19000868
:1000A000DD190008DD190008DD190008DD19000858
:1000B000DD190008DD190008DD190008DD19000848
:1000C000DD190008DD190008DD190008DD19000838
:1000D000DD190008DD190008DD190008DD19000828
:1000E000DD190008DD190008DD190008DD19000818
:1000F000DD190008DD190008DD190008DD19000808
:10010000000000000000000000000000DD190008F1
:10011000DD190008DD190008DD190008DD190008E7
:10012000DD190008DD190008DD190008DD190008D7
:10013000DD190008DD1900080000000000000000C3
:10014000DD190008DD190008DD19000800000000B5
:10015000000000000000000000000000000000009F
:100160000000000000000000DD190008DD19000893
:10017000DD19000800000000000000000000000081
:1001800000000000DD19000880B48BB000AF78607B
:1001900000233B620023FB610023BB6100237B61E2
:1001A00000233B6100237B620023FB600023BB60D4
:1001B000924B5B6803F00C033B623B6A042B07D055
:1001C000082B09D0002B30D17B688D4A1A6030E0B3
:1001D0007B688B4A1A602CE0884B5B6803F47013D1
:1001E000FB61864B5B6803F48033BB61FB699B0C4E
:1001F0000233FB61BB69002B05D1FB69814A02FB1D
:1002000003F37B620DE07D4BDB6A03F00F030133E8
:100210007B617B4A7B69B2FBF3F3FA6902FB03F370
:100220007B627B687A6A1A6003E07B68744A1A60B2
:1002300000BF724B5B6803F0F0033B623B6A1B0933
:100240003B62714A3B6A13441B78DBB2BB607B683C
:100250001A68BB68DA407B685A60684B5B6803F4D5
:10026000E0633B623B6A1B0A3B62674A3B6A13449A
:100270001B78DBB23B617B685A683B69DA407B687C
:100280009A605E4B5B6803F460533B623B6ADB0A37
:100290003B625D4A3B6A13441B78DBB2FB607B68C0
:1002A0005A68FB68DA407B68DA60544BDB6A03F417
:1002B000F8733B623B6A1B093B62544A3B6A32F863
:1002C00013309BB23B613B6903F01003002B06D057
:1002D0007A6A3B69B2FBF3F27B681A6103E07B68E0
:1002E0001A687B681A61454BDB6A03F478533B62FA
:1002F0003B6A5B0A3B62454A3B6A32F813309BB269
:100300003B613B6903F01003002B06D07A6A3B691E
:10031000B2FBF3F27B685A6103E07B681A687B6882
:100320005A61364B1B6B03F01003002B03D17B6823
:10033000334A9A6103E07B681A687B689A612F4BA5
:100340001B6B03F02003002B03D17B682C4ADA617E
:1003500003E07B681A687B68DA61284B1B6B03F447
:100360008073002B0DD07B681A687B6A9A4208D193
:10037000FA68BB689A4204D17B6A5A007B681A62A9
:1003800003E07B68DA687B681A621C4B1B6B03F422
:100390000073002B0DD07B681A687B6A9A4208D1E3
:1003A000FA68BB689A4204D17B6A5A007B685A6239
:1003B00003E07B68DA687B685A62104B1B6B03F0C2
:1003C0000303002B04D17B68DA687B689A6228E01B
:1003D0000A4B1B6B03F00303012B04D17B681A68E3
:1003E0007B689A621DE0054B1B6B03F00303022B35
:1003F0000ED17B684FF400429A6212E00010024076
:1004000000127A0000093D000000002010000020CA
:10041000604B1B6B03F00303032B02D17B685E4A26
:100420009A625C4B1B6B03F44033002B04D17B6856
:100430009A687B68DA6221E0564B1B6B03F4403309
:10044000B3F5803F04D17B681A687B68DA6215E0F7
:10045000504B1B6B03F44033B3F5003F04D17B6872
:100460004FF40042DA6209E04A4B1B6B03F440335D
:10047000B3F5403F02D17B68474ADA62454B1B6BBC
:1004800003F44023002B04D17B689A687B681A63CD
:1004900021E0404B1B6B03F44023B3F5802F04D1C4
:1004A0007B681A687B681A6315E03A4B1B6B03F490
:1004B0004023B3F5002F04D17B684FF400421A6348
:1004C00009E0344B1B6B03F44023B3F5402F02D1FA
:1004D0007B68314A1A632F4B1B6B03F44013002BCC
:1004E00004D17B689A687B685A6321E0294B1B6BB7
:1004F00003F44013B3F5801F04D17B681A687B684E
:100500005A6315E0234B1B6B03F44013B3F5001F34
:1005100004D17B684FF400425A6309E01D4B1B6B0A
:1005200003F44013B3F5401F02D17B681A4A5A63A3
:10053000184B1B6B03F44003002B04D17B689A68B3
:100540007B689A6321E0134B1B6B03F44003B3F504
:10055000800F04D17B681A687B689A6315E00D4BA5
:100560001B6B03F44003B3F5000F04D17B684FF419
:1005700000429A6309E0074B1B6B03F44003B3F599
:10058000400F02D17B68044A9A632C37BD465DF860
:10059000047B70470010024000127A0080B483B0E0
:1005A00000AF78600B46FB70FB78002B06D0094942
:1005B000084B5A697B6813434B6106E00549054BBC
:1005C0005A697B68DB4313404B610C37BD465DF8CD
:1005D000047B70470010024080B483B000AF7860A5
:1005E0000B46FB70FB78002B06D00949084B9A6933
:1005F0007B6813438B6106E00549054B9A697B686C
:10060000DB4313408B610C37BD465DF8047B7047BC
:100610000010024080B483B000AF78600B46FB70DE
:10062000FB78002B06D00949084BDA697B68134335
:10063000CB6106E00549054BDA697B68DB43134073
:10064000CB610C37BD465DF8047B7047001002405B
:1006500080B487B000AF7860396000237B610023ED
:100660003B610023FB6000237B617CE07B6901220E
:1006700002FA03F33B613B681A683B691340FB6075
:10068000FA683B699A426BD13B681B79012B03D016
:100690003B681B79022B34D17B689A687B695B00CD
:1006A000194603238B40DB431A407B689A607B68C2
:1006B0009A683B685B7919467B695B0001FA03F332
:1006C0001A437B689A607B689B889AB27B699BB26D
:1006D000194601238B409BB2DB439BB213409AB275
:1006E0007B689A807B689B889AB23B689B791946A5
:1006F0007B699BB201FA03F39BB213439AB27B6806
:100700009A807B681A687B695B00194603238B40DB
:10071000DB431A407B681A607B681A683B681B7968
:1007200019467B695B0001FA03F31A437B681A6080
:100730007B68DA687B699BB25B00032101FA03F3F3
:10074000DB431A407B68DA607B68DA683B68DB79F8
:1007500019467B695B0001FA03F31A437B68DA6090
:100760007B6901337B617B690F2B7FF67FAF1C3781
:10077000BD465DF8047B704780B485B000AF7860FB
:100780000B467B8013467B700023FB600023BB601D
:100790007B787A8802F0070292009340FB607B88A6
:1007A000DB089BB218467B88DB089BB21A467B6845
:1007B000083253F822207B8803F007039B00194678
:1007C0000F238B40DB4302EA03017B6800F1080240
:1007D00043F822107B88DB089BB21A467B680832FC
:1007E00053F82220FB681343BB607B88DB089BB275
:1007F0001A467B680832B96843F822101437BD46A0
:100800005DF8047B704700BF80B582B000AF4FF445
:1008100000300121FFF7C2FE4FF480200121FFF7D5
:10082000BDFE4FF400200121FFF7B8FE4FF4801009
:100830000121FFF7B3FE344805210722FFF79CFF93
:10084000314804210722FFF797FF3048082104228E
:10085000FFF792FF2D4809210422FFF78DFF2C4856
:100860000D210222FFF788FF29480F210222FFF7FE
:1008700083FF254806210222FFF77EFF24480E2130
:100880000222FFF779FF30233B6002233B710323F1
:100890007B710023BB710123FB713B461A4819464B
:1008A000FFF7D6FE4FF460433B6002233B71032306
:1008B0007B710023BB710123FB713B461448194631
:1008C000FFF7C6FE40233B6002233B7103237B718D
:1008D0000023BB710123FB713B460B481946FFF710
:1008E000B7FE4FF440733B6002233B7103237B71DF
:1008F0000023BB710123FB713B4604481946FFF7F7
:10090000A7FE0837BD4680BD000800480004004827
:10091000000C004880B586B000AF4FF48040012144
:10092000FFF75AFE4FF416533B6000237B60002311
:10093000BB600023FB6000237B610C233B613B46D3
:100940000548194601F04CF80348012101F002F96D
:100950001837BD4680BD00BF0038014080B588B063
:1009600000AF02200121FFF755FE04200121FFF70F
:1009700051FE4723BB820023FB8244F61F63BB6109
:100980000023BB830023BB7707F1140320481946DB
:1009900000F00CFD07F114031E48194600F006FD97
:1009A00060233B604FF47A73BB600123BB8000235C
:1009B000BB813B461648194600F020FE1448002132
:1009C00000F096FF3B461248194600F015FF10480C
:1009D000002100F0C5FF3B460D48194600F08EFE91
:1009E0000B48002100F0A0FF3B460A48194600F0E2
:1009F00073FD0848002100F05FFF0648012100F068
:100A00004BFD0348012100F047FD2037BD4680BD66
:100A1000000800400004004080B588B000AF4FF4EB
:100A200000100121FFF7F6FD0023BB610023FB61ED
:100A300000237B610023BB600023FB6000233B613C
:100A4000064B7B603B1D0648194600F039F8044808
:100A5000012100F099F82037BD4680BDFFC010F09D
:100A60000054004080B582B000AFFFF7CDFEFFF725
:100A700075FFFFF74FFFFFF7CFFF00F017F90346B1
:100A8000FB71391DBA1C3B46084611461A4600F058
:100A9000D3FA0346FB71BB880748194601F0A2F858
:100AA0007B880548194601F09DF83B8803481946A4
:100AB00001F098F8E5E700BF807000088870000832
:100AC00080B485B000AF786039600023FB607B683C
:100AD0001B6823F001027B681A607B681B68FB605F
:100AE000FA68284B1340FB603B685A683B689B6878
:100AF0001B021343FA681343FB607B68FA681A60B1
:100B00003B681B6823F070627B681A617B681B6816
:100B100043F001027B681A600023FB607B68FA687F
:100B20009A607B68FA68DA603B689A693B681B697F
:100B30001343FB607B68FA689A607B689B6843F4A8
:100B400000427B689A603B68DB68FB607B681A68E0
:100B5000FB681A437B681A607B685B68FB60FB6814
:100B600023F0784323F40043FB603B685B69FA6839
:100B70001343FB607B68FA685A601437BD465DF822
:100B8000047B7047FFE0CF0080B483B000AF786093
:100B90000B46FB70FB78002B06D07B681B6843F08C
:100BA00001027B681A6005E07B681B6823F0010284
:100BB0007B681A600C37BD465DF8047B704700BF48
:100BC00080B487B000AFF8607B600B467B81134632
:100BD0007B7200237B61FB685B687B617A690D4BEC
:100BE00013407B617B89C3F309027B7A1B0403F406
:100BF0007F031A437B681A433B6A13437A691343A2
:100C00007B61FB687A695A601C37BD465DF8047BDE
:100C1000704700BF009800FC80B483B000AF7860DC
:100C20000B46FB70FA787B689A620C37BD465DF81C
:100C3000047B704780B483B000AF78607B685B6AE8
:100C4000DBB218460C37BD465DF8047B704700BF29
:100C500080B485B000AF786039600023BB600023AA
:100C6000FB737B689B69BB60BA683B681340BB60E1
:100C7000BB68002B02D00123FB7301E00023FB7350
:100C8000FB7B18461437BD465DF8047B704700BFF8
:100C900080B483B000AF786039607B683A68DA610D
:100CA0000C37BD465DF8047B704700BF80B582B04D
:100CB00000AF012000F0A8F90346FB71FB79002B7F
:100CC00001D0FB7914E0002000F06EF90346FB71BF
:100CD000FB79002B01D0FB790AE0002000F07CF9C1
:100CE0000346FB71FB79002B01D0FB7900E0002368
:100CF00018460837BD4680BD80B584B002AF3A6063
:100D00001A460346FB710B46BB711346BB80534B1F
:100D10004FF420421A6008E0504B1B685A1E4F499E
:100D20000A60002B01D1012394E04D484FF40041AB
:100D3000FFF78EFF0346002BEED1FB799AB24FF4FA
:100D4000005300934648114601220023FFF738FF65
:100D5000424B4FF420421A6008E0404B1B685A1E79
:100D60003E490A60002B01D1012373E03C48022177
:100D7000FFF76EFF0346002BEFD0BB88012B03D992
:100D8000BB7963F07F03BB71BB7935481946FFF728
:100D900043FF324B4FF420421A6008E02F4B1B6890
:100DA0005A1E2E490A60002B01D1022352E02C4822
:100DB0004021FFF74DFF0346002BEFD0FB7999B29E
:100DC000BB88DAB24FF41053009325484FF00073FC
:100DD000FFF7F6FE21E0214B4FF420421A6008E0B5
:100DE0001E4B1B685A1E1D490A60002B01D10323AC
:100DF00030E01B480421FFF72BFF0346002BEFD008
:100E00001748FFF717FF03461A463B681A703B68FE
:100E100001333B60BB88013BBB80BB88002BDAD130
:100E20000E4B4FF420421A6008E00C4B1B685A1E10
:100E30000A490A60002B01D101230BE00848202158
:100E4000FFF706FF0346002BEFD005482021FFF7F0
:100E50001FFF002318460837BD4680BD2C00002028
:100E60000054004080B584B002AF03463A60FB7185
:100E70000B46BB714A4B4FF420421A6008E0484BC6
:100E80001B685A1E46490A60002B01D1012382E0EB
:100E900044484FF40041FFF7DBFE0346002BEED140
:100EA000FB799AB24FF4005300933E481146012259
:100EB0004FF08073FFF784FE394B4FF420421A60E5
:100EC00008E0374B1B685A1E35490A60002B01D1D8
:100ED000012360E033480221FFF7BAFE0346002BEE
:100EE000EFD0BB792F481946FFF796FE2C4B4FF4F5
:100EF00020421A6008E02A4B1B685A1E28490A60E3
:100F0000002B01D1012346E026488021FFF7A0FEF7
:100F10000346002BEFD0FB799AB2002300932148BF
:100F2000114601224FF00073FFF74AFE1C4B4FF4AD
:100F300020421A6008E01A4B1B685A1E18490A60C2
:100F4000002B01D1012326E016480221FFF780FE85
:100F50000346002BEFD03B681B7812481946FFF779
:100F60005BFE0F4B4FF420421A6008E00C4B1B68ED
:100F70005A1E0B490A60002B01D101230BE00948DE
:100F80002021FFF765FE0346002BEFD00548202106
:100F9000FFF77EFE002318460837BD4680BD00BF20
:100FA0002C0000200054004080B584B000AF034600
:100FB000FB71FB1DD0201B211A46FFF753FF034690
:100FC000FB73FB7B002B01D0FB7B00E0002318466A
:100FD0001037BD4680BD00BF80B584B000AF03466A
:100FE000FB71FB1DD0201C211A46FFF73BFF034677
:100FF000FB73FB7B002B01D0FB7B00E0002318463A
:101000001037BD4680BD00BF80B584B000AF034639
:10101000FB71FB1DD0206B211A46FFF723FF03460F
:10102000FB73FB7B002B01D0FB7B00E00023184609
:101030001037BD4680BD00BF80B586B000AFF860F8
:10104000B9607A6007F11603D0203C211A460123CB
:10105000FFF752FE0346FB75FB7D002B01D0FB7DA5
:1010600063E007F11503D0203B211A460123FFF767
:1010700043FE0346FB75FB7D002B01D0FB7D54E056
:1010800007F11403D0203E211A460123FFF734FE56
:101090000346FB75FB7D002B01D0FB7D45E007F18E
:1010A0001303D0203D211A460123FFF725FE0346F6
:1010B000FB75FB7D002B01D0FB7D36E007F11203B1
:1010C000D02040211A460123FFF716FE0346FB7588
:1010D000FB7D002B01D0FB7D27E007F11103D02021
:1010E0003F211A460123FFF707FE0346FB75FB7DF0
:1010F000002B01D0FB7D18E0BB7D9AB27B7D9BB2BB
:1011000013449AB2FB681A803B7D9AB2FB7C9BB277
:1011100013449AB2BB681A80BB7C9AB27B7C9BB2A8
:1011200013449AB27B681A80002318461837BD46CC
:1011300080BD00BF80B500AF1A4A1A4B1B6843F050
:10114000010313601749174B5A68174B13404B6044
:10115000144A144B1B6823F0847323F48033136008
:10116000104A104B1B6823F4802313600D4A0D4B6B
:101170005B6823F4FE0353600A4A0A4BDB6A23F0E0
:101180000F03D3620749074B1A6B084B13400B63DD
:10119000044B00229A6000F00DF8054B4FF00062FE
:1011A0009A6080BD001002400CC07FF8CCFC00FFAC
:1011B00000ED00E080B483B000AF00237B6000232B
:1011C0003B60324A314B1B6843F4803313602F4B32
:1011D0001B6803F400333B607B6801337B603B6832
:1011E000002B03D17B68B3F5A06FF0D1274B1B68B0
:1011F00003F40033002B02D001233B6001E0002305
:101200003B603B68012B3CD1214B12221A601F4AE4
:101210001E4B5B6853601D4A1C4B5B6853601B4A46
:101220001A4B5B6843F480635360184A174B5B6842
:1012300023F47C135360154A144B5B6843F4E813A2
:101240005360124A114B1B6843F08073136000BF58
:101250000E4B1B6803F00073002BF9D00B4A0B4BAD
:101260005B6823F003035360084A084B5B6843F054
:101270000203536000BF054B5B6803F00C03082BAF
:10128000F9D10C37BD465DF8047B70470010024071
:101290000020024080B485B000AF78600B4B1B6823
:1012A000002B02D1094B0A4A1A60084B1B68FB60ED
:1012B000064B1A687B681344044A1360FB6818469F
:1012C0001437BD465DF8047B704700BFCC08002092
:1012D0000809002080B483B000AF78604FF0FF337E
:1012E00018460C37BD465DF8047B704780B483B068
:1012F00000AF786039603B684FF400525A600023B9
:1013000018460C37BD465DF8047B704780B483B047
:1013100000AF7860012318460C37BD465DF8047BAA
:10132000704700BF80B485B000AFF860B9607A60E4
:10133000002318461437BD465DF8047B704700BF94
:1013400080B485B000AFF860B9607A607B681846F9
:101350001437BD465DF8047B704700BF80B586B08A
:1013600000AFF860B9607A6000237B6113E07B69AD
:10137000BA6813441B789BB20B48194600F006FC70
:1013800000BF0948402100F013FC0346002BF8D0B1
:101390007B6901337B617A697B689A42E7DB7B6812
:1013A00018461837BD4680BD0038014080B485B06E
:1013B00000AF786039600023FB817B681B88FB816C
:1013C0007B682C4A93420FD07B682B4A93420BD008
:1013D0007B68B3F1804F07D07B68284A934203D0E3
:1013E0007B68274A934208D1FB8923F07003FB8175
:1013F0003B685A88FB891343FB817B68214A9342EF
:101400000CD07B68204A934208D0FB8923F44073B8
:10141000FB813B681A89FB891343FB817B68FA894E
:101420001A803B685A687B68DA623B681A887B6876
:101430001A857B680F4A93420FD07B680E4A93420D
:101440000BD07B68114A934207D07B68104A9342C5
:1014500003D07B680F4A934204D13B689B7A9AB2CF
:101460007B681A867B6801225A611437BD465DF895
:10147000047B7047002C0140003401400004004010
:1014800000080040001000400014004000400140EF
:10149000004401400048014080B483B000AF786050
:1014A0000B46FB70FB78002B08D07B681B889BB237
:1014B00043F001039AB27B681A8007E07B681B88BF
:1014C0009BB223F001039AB27B681A800C37BD46A9
:1014D0005DF8047B704700BF80B487B000AF7860D0
:1014E00039600023FB6000237B6100233B617B6844
:1014F0001B6A23F001027B681A627B681B6A7B61AE
:101500007B685B683B617B689B69FB60FB6823F4DD
:10151000803323F07003FB60FB6823F00303FB6060
:101520003B681B68FA681343FB607B6923F0020386
:101530007B613B689B891A467B6913437B613B68EF
:101540009B881A467B6913437B617B68264A9342DA
:101550000FD07B68254A93420BD07B68244A934284
:1015600007D07B68234A934203D07B68224A934288
:1015700027D17B6923F008037B613B68DB891A462E
:101580007B6913437B617B6923F004037B613B68C8
:10159000DB881A467B6913437B613B6923F48073C4
:1015A0003B613B6923F400733B613B681B8A1A462D
:1015B0003B6913433B613B685B8A1A463B691343B3
:1015C0003B617B683A695A607B68FA689A613B685C
:1015D0009A687B685A637B687A691A621C37BD46D1
:1015E0005DF8047B704700BF002C014000340140CF
:1015F00000400140004401400048014080B487B0F1
:1016000000AF786039600023FB6000237B6100231A
:101610003B617B681B6A23F010027B681A627B685F
:101620001B6A7B617B685B683B617B689B69FB60D5
:10163000FB6823F0807323F4E043FB60FB6823F432
:101640004073FB603B681B681B02FA681343FB6036
:101650007B6923F020037B613B689B891B017A69CE
:1016600013437B613B689B881B017A6913437B6151
:101670007B68204A934203D07B681F4A934227D15C
:101680007B6923F080037B613B68DB891B017A69FE
:1016900013437B617B6923F040037B613B68DB88FC
:1016A0001B017A6913437B613B6923F480633B61CF
:1016B0003B6923F400633B613B681B8A9B003A69EA
:1016C00013433B613B685B8A9B003A6913433B6170
:1016D0007B683A695A607B68FA689A613B689A68E5
:1016E0007B689A637B687A691A621C37BD465DF82D
:1016F000047B7047002C01400034014080B487B067
:1017000000AF786039600023FB6000237B61002319
:101710003B617B681B6A23F480727B681A627B687A
:101720001B6A7B617B685B683B617B68DB69FB6094
:10173000FB6823F07003FB60FB6823F00303FB608E
:101740003B681B68FA681343FB607B6923F40073F2
:101750007B613B689B891B027A6913437B613B6811
:101760009B881B027A6913437B617B68204A934202
:1017700003D07B681F4A934227D17B6923F400631F
:101780007B613B68DB891B027A6913437B617B6960
:1017900023F480637B613B68DB881B027A69134317
:1017A0007B613B6923F480533B613B6923F4005325
:1017B0003B613B681B8A1B013A6913433B613B68F1
:1017C0005B8A1B013A6913433B617B683A695A6043
:1017D0007B68FA68DA613B689A687B68DA637B68E1
:1017E0007A691A621C37BD465DF8047B704700BFFA
:1017F000002C01400034014080B487B000AF786015
:10180000396000233B610023FB6000237B617B6820
:101810001B6A23F480527B681A627B681B6AFB6038
:101820007B685B687B617B68DB693B613B6923F4B8
:10183000E0433B613B6923F440733B613B681B68B9
:101840001B023A6913433B61FB6823F40053FB60BE
:101850003B689B891B03FA681343FB603B689B88CA
:101860001B03FA681343FB607B68114A934203D061
:101870007B68104A934209D17B6923F480437B61E2
:101880003B681B8A9B017A6913437B617B687A6999
:101890005A607B683A69DA613B689A687B681A64C7
:1018A0007B68FA681A621C37BD465DF8047B704796
:1018B000002C01400034014080B485B000AF786056
:1018C0000B467B800023FB607B689B69FB60FB68A9
:1018D00023F00803FB607B88FA681343FB607B6896
:1018E000FA689A611437BD465DF8047B704700BF03
:1018F00080B485B000AF78600B467B800023FB602E
:101900007B689B69FB60FB6823F40063FB607B885A
:101910001B02FA681343FB607B68FA689A6114370C
:10192000BD465DF8047B704780B485B000AF786039
:101930000B467B800023FB607B68DB69FB60FB68F8
:1019400023F00803FB607B88FA681343FB607B6825
:10195000FA68DA611437BD465DF8047B704700BF52
:1019600080B485B000AF78600B467B800023FB60BD
:101970007B68DB69FB60FB6823F40063FB607B88AA
:101980001B02FA681343FB607B68FA68DA6114375C
:10199000BD465DF8047B7047002103E00A4B5B58AD
:1019A0004350043109480A4B42189A42F6D3094A77
:1019B00002E0002342F8043B074B9A42F9D3FFF7B9
:1019C000B9FBFFF74FF870471472000800000020C1
:1019D000CC080020CC08002008090020FEE7000009
:1019E00080B594B000AF786039600023FB640023B9
:1019F000BB6400237B647B681B6823F001027B6867
:101A00001A607B685B687B647B6C23F440537B6467
:101A10003B689B687A6C13437B647B687A6C5A6082
:101A20007B681B687B647B6C23F4B05323F00C034E
:101A30007B643B685A683B68DB681A433B681B69F8
:101A400013437A6C13437B647B687A6C1A607B68FF
:101A50009B687B647B6C23F440737B643B685B69AD
:101A60007A6C13437B647B687A6C9A6007F1080395
:101A70001846FEF789FB7B68324A934202D13B6BE2
:101A8000BB6416E07B68304A934202D17B6BBB6437
:101A90000FE07B682D4A934202D1BB6BBB6408E028
:101AA0007B682B4A934202D1FB6BBB6401E03B6C29
:101AB000BB647B681B6803F40043002B11D0BB6C34
:101AC0005A003B681B68B2FBF3F3FB64BB6C5B0022
:101AD0003A681268B3FBF2F102FB01F29B1A7B64D5
:101AE0000EE03B681B68BA6CB2FBF3F3FB643B6827
:101AF0001A68BB6CB3FBF2F102FB01F29B1A7B6428
:101B00003B681B685A087B6C9A4202D8FB6C013315
:101B1000FB647B681B6803F40043002B0BD0FB6C59
:101B200003F00F035B087B64FA6C4FF6F07313400D
:101B30007A6C1343FB64FB6C9AB27B689A815037D2
:101B4000BD4680BD003801400044004000480040D0
:101B5000004C004080B483B000AF78600B46FB704F
:101B6000FB78002B06D07B681B6843F001027B6882
:101B70001A6005E07B681B6823F001027B681A602D
:101B80000C37BD465DF8047B704700BF80B483B05E
:101B900000AF78600B467B807B88C3F308039AB262
:101BA0007B681A850C37BD465DF8047B704700BF23
:101BB00080B485B000AF786039600023FB737B6828
:101BC000DA693B681340002B02D00123FB7301E06C
:101BD0000023FB73FB7B18461437BD465DF8047B7E
:101BE000704700BF0FB400B5074983B004AB086865
:101BF00053F8042B8168019300F008F803B05DF8F6
:101C000004EB04B0704700BF580400202DE9F04FEA
:101C1000BFB01C4689460892074602F00FFD0368D4
:101C20001593184603F0B6FC0C9416901FB1BB6BCD
:101C3000002B00F0F380B9F80C2093B29D040AD475
:101C4000D9F8641042F4005321F40051A9F80C3083
:101C5000C9F864109BB2180740F1AA80D9F8102087
:101C6000002A00F0A58003F01A030A2B00F0AC80D4
:101C700000231A46119323932293149317930993E5
:101C80002EAB9C462193129213926446B846089D4F
:101C90002B78002B00F0C680252B02D1C2E0252B2B
:101CA00003D015F8013F002BF9D1089BEE1A7EB145
:101CB000229B239A0899216001333244072B6660E6
:101CC0002392229300F393800834099B33440993B1
:101CD0002B78002B00F093800023691C4FF0FF3A13
:101CE0006D788DF867301A460A93069356464B1C5A
:101CF000A5F12001582900F2C183DFE811F0560256
:101D0000BF03BF03F602BF03BF03BF03BF03BF038D
:101D1000BF03FD02C602BF03F2014703BF03CA02AD
:101D2000D102D102D102D102D102D102D102D1021B
:101D3000D102BF03BF03BF03BF03BF03BF03BF0382
:101D4000BF03BF03BF036B028D02BF038D02BF033E
:101D5000BF03BF03BF03BF02BF03BF036203BF03D1
:101D6000BF03BF03BF03BF03A903BF03BF037F03B9
:101D7000BF03BF03BF03BF03BF03BF03BF03BF0353
:101D8000BF03BF0394030B038D028D028D02240356
:101D90000B03BF03BF032B03BF033503F901E002AD
:101DA0005D02BF030B02BF039500BF03BF033002F8
:101DB0003846494601F05AF9A0B9B9F80C3003F099
:101DC0001A030A2B7FF454AFB9F90E30002BFFF63B
:101DD0004FAF38464946089A234601F00BF93FB009
:101DE000BDE8F08F4FF0FF303FB0BDE8F08F4046C8
:101DF000494621AA03F038FC40B92EAC65E7239B85
:101E000023B14046494621AA03F02EFCB9F80C3014
:101E10005A06E7D409983FB0BDE8F08F384602F083
:101E2000A9FA08E7089D53E70893069BB2469E0669
:101E300040F118830C9F073727F0070303F10802CE
:101E4000D3E900670C9201234FF0000C8DF867C0B6
:101E5000CDF83CA0BAF1000F03DB069A22F0800215
:101E6000069256EA070240F01983BAF1000F00F01B
:101E70001684012B00F01A83022B00F04C842EA94B
:101E8000F20842EA4772F80806F0070307461646CA
:101E9000303356EA070201F8013DF1D1069A0E915E
:101EA000D00700F10D852EAB5B1A0B930B9A924570
:101EB0005346B8BF1346079300231093BCF1000F9D
:101EC00002D0079B01330793069B13F002030D9387
:101ED00002D0079B02330793069B13F0840640F061
:101EE000DA820A9B079AC2EB030ABAF1000F40F3A9
:101EF000D282BAF1100F2399229AB34FC8BF4FF084
:101F0000100B07DC1EE0AAF1100ABAF1100F04F161
:101F1000080417DD01321031072A2391229284E848
:101F20008008F0DD4046494621AA03F09DFB0028C9
:101F30007FF46CAFAAF1100ABAF1100F2399229A1C
:101F40002EACE7DC01320AEB010B072ACDF88CB08E
:101F5000229284E8800400F343849DF867C008342B
:101F6000BCF1000F0FD0229B01330BF1010B0DF1DF
:101F700067010122072BCDF88CB0229384E806007C
:101F800000F3B78308340D9B73B1229B01330BF12F
:101F9000020B1AA90222072BCDF88CB0229384E8F9
:101FA000060000F39A830834802E00F0EA820F9B2B
:101FB0000B9AC2EB030ABAF1000F32DDBAF1100F2F
:101FC000229A824F22DD10265B4606E0AAF1100A13
:101FD000BAF1100F04F1080417DD01321033072A9B
:101FE0002393229227606660F0DD4046494621AA8D
:101FF00003F03AFB00287FF409AFAAF1100ABAF106
:10200000100F239B229A2EACE7DC9B460132D3446F
:10201000072ACDF88CB0229284E8800400F3518323
:102020000834069BDB0500F15582229B0B990E9A22
:10203000226001338B44072BCDF88CB06160229372
:1020400000F317830834069B59073AD50A9B079A71
:102050009D1A002D35DD102D229B5B4F1EDD1026B5
:102060005A4604E0103D102D04F1080415DD01333B
:102070001032072B2392229327606660F2DD4046E0
:10208000494621AA03F0F0FA00287FF4BFAE103DC4
:10209000102D239A229B2EACE9DC93460133AB44EE
:1020A000072BCDF88CB022932760656009DD404690
:1020B000494621AA03F0D8FA00287FF4A7AEDDF83C
:1020C0008CB0099B079A0A998A42ACBF9B185B188F
:1020D0000993BBF1000F40F0D882002322932EAC6D
:1020E000D5E5194606981D7840F004000690FEE5F7
:1020F0000893069B13F02003B24600F06D810C9FFD
:10210000073727F0070303F10802D3E900670C92B1
:10211000002399E60C9A089313680E934FF0000B76
:102120008DF867B0171D002B00F04F86002E0E981B
:10213000C0F201865946324602F082FD002800F0C6
:1021400080860E9BCDF83CB0C31A0B930C9723EA04
:10215000E3730793CDF840B09DF867C0AEE60893EF
:102160001B4B1493069B8DF867209906B24640F1ED
:102170004F810C9F073727F00703D3E9006703F16E
:1021800008020C92069BDB0740F1DE8256EA070349
:1021900000F0DA82069A8DF86950302342F002028C
:1021A0008DF86830069202234EE61D781946002A03
:1021B0007FF49DAD20229AE5069941F02001069119
:1021C0001D78194693E500BFE07000088C70000888
:1021D000C07000080893069B8DF8672043F0100339
:1021E0000693069B9906B24640F19C800C9F0737E8
:1021F00027F00707D7E9002307F108010C911646DD
:102200001F46002A73F10003C0F215849DF867C0D1
:10221000CDF83CA001231DE60C9F0893073727F05B
:1022200007038DF8672003F108020C921A681292D6
:102230005B6813931399129803F02CF90128B346A5
:102240001298139940F006840022002304F0FCFB4E
:10225000002840F0EE859DF867C0069E994A9A4B8B
:102260000321002026F08006472DD8BF1A4607918B
:102270000F9006960E920B9110901FE6069941F072
:10228000080106911D78194631E51D7819462B2263
:102290002DE5069941F0800106911D78194626E545
:1022A000A5F13000002113F8015B01EB810100EB87
:1022B0004101A5F130000928F5D90A9118E50C99DA
:1022C00008933023069A8DF868300B46043378253E
:1022D00042F002020C937D4B1493B24606920E68B4
:1022E0008DF8695000270223AEE5069941F00101FF
:1022F00006911D781946FAE40C9D29680A91084652
:102300000028294601F10401C0F2E3840C911D78F4
:102310001946ECE40893069B8DF867209906B246AF
:102320003FF564AF069BDA0600F19282069B5B06DE
:1023300040F18E820C99B1F900600431F7173246F2
:102340003B460C915DE7069941F0400106911D78EE
:102350001946CCE41D7806996C2D00F0B38441F049
:10236000100106911946C2E40893069B8DF8672078
:102370009A0640F100840C9A09991368CF17084611
:10238000043239460C92C3E9000180E41D782A2DFD
:1023900003F1010100F00E86A5F1300009280B467B
:1023A0004FF000063FF6A4AC13F8015B06EB86067F
:1023B00000EB4606A5F130000928F5D946EAE67695
:1023C00096E40893069B43F010030693069B13F0D4
:1023D0002003B2467FF493AE069A12F0100240F04A
:1023E0004082069B13F0400300F03B820C99134699
:1023F0000A4604320E880C92002725E50893344BD8
:102400001493069B8DF867209906B2463FF5B1AE4E
:10241000069BDA0640F1C6830C9A1346043316680D
:102420000C930027AEE60C9908930A688DF890206B
:102430000023012204319C4607920C918DF86730ED
:1024400024ABCDF83CC0CDF840C00B920E933BE5D9
:102450000893069B43F010030693069BB2469E0624
:102460003FF5E8AC069BD80640F177830C9A1346FB
:1024700004321E680C9201230027E5E408938DF8CE
:102480006720002D3FF4BBAC002301229C4607923D
:102490008DF89050D2E7DDF88CB061E5012B7FF428
:1024A000EBAC002F08BF0A2E80F0EF810DF1F80B86
:1024B00030360BF8416D2EABCBEB03030B93CDF80D
:1024C00038B0F3E4A07000089C700008C0700008E9
:1024D000AC700008652D40F38A8012981399002291
:1024E000002304F0A7FA002800F03181229BBA4AA9
:1024F000226001330BF1010B0122072BCDF88CB0C8
:102500002293626000F3678308341B9B119A934205
:1025100003DB069BDF077FF596AD229B1699159A84
:10252000226001338B44072BCDF88CB0616022937D
:1025300000F3D6830834119B5D1E002D7FF783AD19
:10254000102D229BA54F40F3958110265A4604E09A
:102550000834103D102D40F38C8101331032072BCD
:102560002392229327606660F2DD4046494621AA05
:1025700003F07AF800287FF449AC239A229B2EAC12
:10258000E7E70A9B079A9E1A002E7FF710AD102EE0
:10259000229A924F1FDD4FF0100A5B4604E0103E76
:1025A000102E04F1080415DD01321033072A23939D
:1025B000229284E88004F2DD4046494621AA03F0D5
:1025C00053F800287FF422AC103E102E239B229A51
:1025D0002EACE9DC9B460132B344072ACDF88CB01F
:1025E00022922760666000F319820834DFE4119BB1
:1025F000229D012B40F3D4810E9B236001350BF10A
:1026000001060123072D23962295636000F3E481E0
:102610000834169A159B236001351644072D23961E
:102620002295626000F3E481083400231298139924
:10263000002204F0FFF9119B002840F0E0800E9A80
:10264000013B013501321E44072D2295239622605D
:10265000636000F3B5810834179A6260013506EBB8
:10266000020B1DAB072DCDF88CB0229523607FF7B0
:10267000E9AC4046494621AA02F0F6FF00287FF463
:10268000C5ABDDF88CB02EACDDE44046494621AA4E
:1026900002F0EAFF00283FF420ADFFF7B7BB002BA4
:1026A00033D1069BDA0730D50DF1F80B30230BF848
:1026B000413D2EABCBEB03030B93CDF838B0FFF7C6
:1026C000F5BB4046494621AA02F0CEFF00287FF420
:1026D0009DABDDF88CB02EACA3E44046494621AA60
:1026E00002F0C2FF00287FF491ABDDF88CB02EAC75
:1026F0005AE44046494621AA02F0B6FF00287FF47A
:1027000085ABDDF88CB02EAC3DE42EABCDF82CA023
:102710000E93FFF7CBBB14980DF1B80B330906F0FD
:102720000F0143EA07733A091E461746435C0BF84C
:10273000013D56EA0703F1D15A462EAB9B1ACDF85C
:1027400038B00B93FFF7B2BB0223FFF77DBB1B9D95
:10275000002D40F34C82119A10998A421346A8BF6B
:102760000B461D460E99002D01EB020A0BDD229B44
:1027700021600133AB44072BCDF88CB06560229308
:1027800000F300830834109B002DA8BF5B1B002BB7
:102790001D4640F3AF80102D229B104F40F30F8257
:1027A00010265A4604E00834103D102D40F30682EE
:1027B00001331032072B2392229327606660F2DDEB
:1027C0004046494621AA02F04FFF00287FF41EAB85
:1027D000239A229B2EACE7E7DC7000088C7000087F
:1027E0004046494621AA02F03FFF00287FF40EAB85
:1027F0009DF867C0DDF88CB02EACFFF7B1BB03F1DC
:10280000FF3ABAF1000F7FF727AFBAF1100F904FE0
:10281000C8BF4FF0100B07DCF6E00834AAF1100A2D
:10282000BAF1100F40F3F08001351036072D2396D2
:10283000229584E88008F0DD4046494621AA02F04E
:1028400013FF00287FF4E2AA239E229D2EACE5E729
:102850000C9A166813460433F7170C9332463B461E
:10286000CFE40C990A4604320E680C920027FFF759
:10287000EBBA93460133AB44072BCDF88CB02293CF
:10288000276065607FF7DEABF3E60DF1B80BCDF89E
:102890001CC0304639460A22002304F025F93032A4
:1028A000304639460BF8012D00230A2204F01CF9AA
:1028B00006460F4656EA0703EBD1DDF81CC03BE79E
:1028C000302B00F019820E9B013B1A462EA80E9366
:1028D000821A30230B9201F8013CFFF7E7BA404619
:1028E000494621AA02F0C0FE00287FF48FAADDF835
:1028F0008CB02EAC0E9A10991B9B0A441646119A66
:1029000093423EDB069AD5073BD4119AC6EB0A05E3
:10291000D31A9D42A8BF1D46002D2F460BDD229ADB
:1029200026600132AB44072ACDF88CB06560229254
:1029300000F35E820834002FACBFDD1B1D46002D66
:102940007FF781AB102D229B414F93DD10265A4615
:1029500003E00834103D102D8BDD01331032072BBE
:102960002392229327606660F3DD4046494621AA00
:1029700002F07AFE00287FF449AA239A229B2EAC0B
:10298000E8E7229A16981599216001328344072AB4
:10299000CDF88CB06060229200F30A820834B4E76C
:1029A000069BD8073FF528AE0E9B236001350BF13F
:1029B00001060123072D2396229563607FF74BAE16
:1029C0004046494621AA02F04FFE00287FF41EAA85
:1029D000239E229D2EAC3FE64046494621AA02F0A6
:1029E00043FE00287FF412AA239E229D2EAC10E6FF
:1029F0004046494621AA02F037FE00287FF406AA85
:102A0000239E229D2EAC10E601355644072D2396B9
:102A1000229584E880047FF71EAED1E74046494600
:102A200021AA02F021FE00287FF4F0A9DDF88CB085
:102A30002EACFFF7BCBA4FF02D0C764267EB470780
:102A40008DF867C0CDF83CA00123FFF703BA00BFA3
:102A50008C70000802F01EFD002800F00D8125F0AA
:102A60002003B6F1FF3F0B9300F05882472B04D1AF
:102A7000002E14BFB3464FF0010B069B43F4807346
:102A80000F93139BB3F1000A129B0793BBBF5346EE
:102A900003F1004A00232D23662D0D9300F054818D
:102AA000462D00F051810B9B079A452B0CBF0BF173
:102AB00001075F4602201BA98DE8810002911CA836
:102AC0001FA9039053460491404600F0C9FB672DAF
:102AD0000E9002D0472D40F04781069BDB0740F166
:102AE0003A820E9BDE19079851460022002303F01C
:102AF000A1FF002840F0A3811F9B9E4206D93021F0
:102B00005A1C1F9219701F9B9E42F9D80E9A9B1A4D
:102B100011930B9B472B1B9B00F07981652D40F394
:102B20009C81662D109300F00982119B109A9342AC
:102B300000F3F781069BD90700F1178222EAE273BE
:102B40000B920D9A002A40F0698107930F9B069320
:102B50000F929DF867C0FFF7B1B9069B0C9A13F06E
:102B6000400F13463FF484AC16880432002701233B
:102B70000C92FFF769B9069BDB060BD4069B5F0638
:102B800008D50C9A136804320C92BDF824201A80E0
:102B9000FFF77DB80C9A136804320C92099A1A60F8
:102BA000FFF775B8069B0C9A13F0400F134676D0CA
:102BB000043316880C930027FFF7E4BA93460133D9
:102BC000AB44072BCDF88CB02293276065603FF7AC
:102BD00086AE08348EE64046494621AA02F044FDFE
:102BE00000287FF413A9DDF88CB02EAC8DE4229B75
:102BF000B04A226001330BF1010B0122072BCDF803
:102C00008CB02293626050DC08342DB9119B1BB943
:102C1000069BDE077FF517AA229B1699159A22605C
:102C200001330BEB0102072B23926160229300F327
:102C3000688108346D42002D6FDD102D9E4FC8BF96
:102C4000102605DCAAE00834103D102D40F3A680C4
:102C500001331032072B2392229327606660F2DD46
:102C60004046494621AA02F0FFFC00287FF4CEA886
:102C7000239A229B2EACE7E7069E904A904B9DF844
:102C800067C00F90032126F08006472DD8BF1A4653
:102C90000791069610900E920B91FFF70FB904332F
:102CA00016680C930027FFF76DBA4046494621AAE3
:102CB00002F0DAFC00287FF4A9A81B9DDDF88CB097
:102CC0002EACA2E741F0200106915D78591CFFF778
:102CD0000EB80A980C9140420A901946FFF702BAC2
:102CE0004046494621AA02F0BFFC00287FF48EA886
:102CF000DDF88CB02EAC1EE40E9A2EAB9B1A0B9313
:102D0000FFF7D4B84046494621AA02F0ADFC00289E
:102D10007FF47CA8239A229B2EAC1198606001332B
:102D200002EB000B072B0E9ACDF88CB02293226099
:102D30007FF788A99DE4CDF83CB002F02BFC0C97FE
:102D40000B900346FFF703BA03201BA98DE8010887
:102D500002911CA81FA90390079A0491534640466C
:102D600000F07EFA5F460E900E9BDE190B9B462B01
:102D70007FF4B9AE0E9B1B78302B00F0FC801B9FBC
:102D80003E44B0E64046494621AA02F06DFC0028C8
:102D90007FF43CA8DDF88CB02EACF4E401332A4477
:102DA000072B2392229327606560ABDC0834B4E7DD
:102DB0004046494621AA02F057FC00287FF426A885
:102DC0001B9BDDF88CB02EAC9FE5062E334628BF4A
:102DD00006230B9323EAE373DDF838C00793394BDE
:102DE0000C97CDF83CC0CDF840C00E93FFF766B805
:102DF0004046494621AA02F037FC00287FF406A885
:102E00001B9B119ADDF88CB0D31A2EAC93E5DF1C16
:102E100022DB9B4520DB1093672586E607930F9BFB
:102E200006934FF02D0C00238DF867C00F93FFF72A
:102E300048B84FF02D0C8DF867C0FFF70EBA334637
:102E400064E626EAE6730F900C9710909DF867C031
:102E500007930B96FFF732B8023D013B002B1B9303
:102E6000BABF5B422D222B22092B8DF874508DF8AE
:102E7000752072DD0DF183063046134A82FB032173
:102E8000DA17C2EBA10202EB8201A3EB410303F1CB
:102E90003001092A134600F8011DEEDC02463033EA
:102EA000D9B202F8011D964240F2A0800DF17602DF
:102EB00003460DE0DC7000088C700008A870000864
:102EC000A4700008D47000086766666613F8011BDA
:102ED00002F8011BB342F9D121AB1B1A0DF17602A6
:102EE00013441DAA9B1A119A1793012A13440B939A
:102EF0006DDD0B9B002201330B93109223EAE373E9
:102F00001FE64046494621AA02F0AEFB00287EF4A7
:102F10007DAF1B9D239A229B2EAC8BE64FF0060BB8
:102F2000ABE5109B002BD8BFC3F10206119BC8BFB5
:102F30000126F3180B9323EAE37302E6002B30DD3E
:102F4000BBF1000F25D1069BDE0722D4109A0B920D
:102F500022EAE273F5E51F9BD8E5303330228DF885
:102F600077308DF876201EABBBE7109B01330B93B7
:102F700023EAE373E5E5079851460022002303F0B6
:102F800059FD00287FF4FBAEC7F101071B973E44B3
:102F9000A9E5109B0BF1010633440B9323EAE3737D
:102FA000CFE5BBF1000F1BD1069BD80718D4012336
:102FB0000B93C6E50C9D2E6828460430002E5D78E4
:102FC0000C90BEF694AE4FF0FF36FEF790BE069B17
:102FD00013F001038DD110930B9B23EAE373B0E54B
:102FE0000BF102030B9323EAE373AAE50DF17603D9
:102FF00077E700BF2DE9F0420C46ADF58D6DB1F8D5
:103000000CE0E769496EB4F80E9019911AAD4FF4CF
:1030100080662EF0020E4FF0000C07976946676A33
:103020000095049502960596ADF80CE0ADF80E906B
:103030000997CDF818C00646FEF7E8FD051E07DB28
:103040003046694601F002F9002818BF4FF0FF35FD
:10305000BDF80C305B0603D5A38943F04003A38180
:1030600028460DF58D6DBDE8F08200BF38B52F4BB9
:103070001B6805460C4613B19A6B002A36D0A2890C
:1030800093B218070CD52069A8B113F001021ED025
:10309000636900225B42A361A260F0B1002038BDE9
:1030A000D9063BD5580725D4206942F00803A381EF
:1030B0009BB20028E9D103F42072B2F5007FE4D07E
:1030C0002846214601F0BEFAA3892069DDE7990769
:1030D00058BF6269A2600028E0D1A3891A06DED534
:1030E00043F04003A3814FF0FF3038BD184601F094
:1030F00041F9C4E7216B49B104F14003994203D07F
:10310000284601F08FF9A2890023236322F02402CC
:1031100000232069636092B22060C6E742F040025B
:1031200009232B604FF0FF30A28138BD58040020E6
:1031300002690B69934200F38F802DE9F04F03F190
:10314000FF3801F1140700F1140B57F828205BF841
:1031500028304FEA880483B00132B3FBF2F90BEB5D
:103160000403009407EB040A0193B9F1000F3BD06C
:1031700000263246BC46DE4634465CF8046BDEF878
:103180000050B3B2360C03FB094406FB09F606EB0C
:103190001446A3B2D31AB4B213FA85F3C4EB1544A0
:1031A00004EB23449BB243EA0443E2454FEA244242
:1031B0004EF8043B4FEA1644DFD2009B5BF8033025
:1031C00093B9019C231F9B450CD254F8043C4BB986
:1031D000A4F1080302E01A68043B1AB99B4508F100
:1031E000FF38F8D3C0F81080044602F069F80028D0
:1031F0002EDB09F101095D46002357F8041B2868FE
:103200008AB29A1A090C12FA80F2C1EB104303EB4E
:10321000224391B241EA0341BA4545F8041B4FEA03
:103220002343EAD25BF828200BEB880382B91A1FEC
:1032300093450BD253F8042C42B9083B02E01A68BC
:10324000043B1AB99B4508F1FF38F8D3C4F8108045
:10325000484603B0BDE8F08F002070470000000032
:103260002DE9F04F016C97B00446239DCDE9022370
:1032700041B1426C4A60012393408B6001F03CFEF7
:1032800000232364DDE90223002B994636DB00236B
:103290002B60A54B1A4609EA0303934217D0DDE9D8
:1032A0000267002230463946002303F0C3FB804604
:1032B00000282BD0229A01231360249B002B00F0BE
:1032C000CB809A481860013817B0BDE8F08F229A79
:1032D00042F20F731360029B002B00F0A68094480B
:1032E000249B002BF0D0C378002B00F0B78000F1B6
:1032F0000803249A136017B0BDE8F08F039A0123E6
:1033000022F000492B60CDF80C90C2E715AA14AB4F
:103310008DE80C00204632463B4602F05FF85FEA3B
:103320001955834640F08A80DDF85080159D6FF472
:10333000826345449D42C0F297827E4A521B09FA3D
:1033400002F9029A05F2124322FA03F049EA000058
:1033500003F092F80123013DA1F1F8710D930022D1
:10336000754B02F04BFF6AA3D3E9002303F0FAF890
:1033700069A3D3E9002302F043FF064628460F461F
:1033800003F08AF866A3D3E9002303F0EBF80246C2
:103390000B463046394602F033FF06460F4603F02F
:1033A0007BFB3946049000223046002303F04CFB9F
:1033B000002840F0A681049B162B00F29F81049AFE
:1033C0005E4B03EBC203D3E90001DDE9022303F006
:1033D00059FB002800F04E82049B013B049300231C
:1033E0000B93C5EB0805B5F1010A00F1A18100239B
:1033F0000593049B002BC0F292819A440A93002308
:103400000893209B092B2BD8052B40F37086043B97
:1034100020930025209B023B032B00F24E86DFE821
:1034200013F0CC03BE03B2026306414B444AC9F316
:103430001300002814BF1846104651E7C7F31303C2
:1034400043F07F51CDF834803046A5F2FF3541F48A
:103450004011DDF8508082E73A4835E7C31C48E761
:10346000002161642046209101F020FD4FF0FF33E0
:103470000693209A0C9301230790219220640993CC
:10348000159B002BC0F2D280049A0E2A00F3CE8046
:103490002A4B03EBC203D3E90089219B002BC0F226
:1034A0008F83DDE9026742464B463046394603F0DA
:1034B00083F903F0F1FA824602F0EEFF42464B46F2
:1034C00003F050F80B4602463946304602F096FEAD
:1034D000079D0AF130032B70069B012B06460F4611
:1034E00005F1010562D00022174B03F03BF80022E2
:1034F000002306460F4603F09DFA002840F0838023
:10350000CDF808B00594DDF81CB0069C29E000BF9A
:1035100061436F63A787D23FB3C8608B288AC63FD9
:10352000FB799F501344D33F0000F07FDD7000080B
:10353000FC7000080EFCFFFF0000F83F107100084F
:10354000F0700008DC7000080000244003F00AF866
:103550000022002306460F4603F06CFA002840F0D4
:10356000DE8342464B463046394603F025F903F0E8
:1035700093FA824602F090FF42464B4602F0F2FF79
:1035800002460B463046394602F038FE0AF1300E4C
:1035900005F801EBCBEB050E744506460F464FF0E0
:1035A0000002B54BD2D1DDF808B0059C32463B464F
:1035B0003046394602F024FE06460F46404649464C
:1035C00032463B4603F040FA48B940464946324647
:1035D0003B4603F02FFAB0B11AF0010F13D015F8E3
:1035E000018C07996B1E04E08B4200F0408413F8B5
:1035F000018DB8F1390F03F101051A46F4D008F135
:103600000103DBB213702046594601F075FC00221D
:10361000049B2A70229A01331360249B002B00F034
:10362000458307981D6017B0BDE8F08F099A002AFE
:1036300000F08480209A012A40F30483069B5F1ED9
:10364000089BBB42C0F2A983DF1B069B002BC0F284
:103650009C84059D069B059A20461A4401210592EB
:103660009A4401F0E3FC064665B1BAF1000F09DDAA
:10367000AA45059A5346A8BF2B46D21A0592ED1AC1
:10368000C3EB0A0A089B002B1ADD099B002B00F0F4
:103690007D83002F10DD31463A46204601F06AFD59
:1036A00006465A463146204601F0CAFC5946804635
:1036B000204601F021FCC346089BDA1B40F0A282A1
:1036C0002046012101F0B2FC0A9B002B804639DD27
:1036D00001461A46204601F04DFD209B012B8046F5
:1036E00040F396824FF00009D8F8103008EB8303BE
:1036F000186901F04DFCC0F120002DE001230B936F
:103700006FE6049802F0C8FE32463B4603F092F999
:1037100000287FF450AE049B013B04934BE6059ACE
:10372000049BD21A5B420893002305920A9368E631
:10373000CAF1000305934FF0000A5AE6089F059D61
:10374000099E91E7209B012B40F3B3824FF00009C3
:103750000A9B002BC8D10120504410F01F0000F03C
:103760008180C0F12003042B40F3B884C0F11C0019
:10377000059B0344059305448244059B002B05DD0E
:1037800059461A46204601F045FD8346BAF1000F1E
:1037900005DD41465246204601F03CFD80460B9B2C
:1037A000002B40F06882069B002B40F39582099B1A
:1037B000002B71D1DDF81C90069F4D4602E001F010
:1037C000A5FB834641465846FFF7B2FC00F1300C9A
:1037D00005F801CBC9EB0503BB42204659464FF023
:1037E0000A024FF00003EADB079B069A012AACBFEE
:1037F0009B1801331D464FF0000A5946012220460E
:10380000CDF808C001F006FD4146834601F058FDA1
:103810000028DDF808C040F3F68215F8012C07995E
:103820006B1E04E08B4200F0738213F8012D392ADD
:1038300003F10105F6D001321A704146204601F02D
:103840005BFB002E3FF4DFAEBAF1000F05D0B245AE
:1038500003D05146204601F04FFB3146204601F08F
:103860004BFBD0E61C2083E7044B029A5B1B02FA59
:1038700003F06DE50B90B4E500002440EEFBFFFF84
:103880003146002320460A2201F040FB0C9B002B0E
:10389000064640F30C840693002D05DD31462A468A
:1038A000204601F0B7FC0646B9F1000F40F0E9826E
:1038B000B146069B079A013BD3180893029B03F07D
:1038C00001030993174641465846FFF731FC31463C
:1038D0000546584601F0F4FC4A46824641462046D9
:1038E00001F012FDC268034605F1300C002A40F0D9
:1038F000B88119465846CDF818C0059301F0E0FC90
:10390000059B02901946204601F0F6FA029ADDF86E
:1039100018C02AB9209B1BB9099B002B00F0A78374
:10392000BAF1000FC0F2518205D1209B1BB9099B4F
:10393000002B00F04A82002A00F3B782089B87F828
:1039400000C007F1010A9F42554600F0BA8259466D
:103950000A220023204601F0D9FA4E45834631461B
:1039600020464FF00A024FF0000300F0748101F08E
:10397000CDFA494606460A222046002301F0C6FA3F
:10398000574681469FE701230993219B002B40F373
:1039900013821F461E460C9306930021172F616465
:1039A0000AD9012204235B0003F114008742114667
:1039B00002F10102F7D26164204601F077FA0E2E7F
:1039C000079020643FF65CAD002D3FF459ADDDE972
:1039D000022304990029CDE90E2340F32182B74B3D
:1039E00001F00F020D1103EBC203E906D3E90067F2
:1039F00040F1DB81B24BDDE90E01D3E9082302F08F
:103A0000DBFECDE9020105F00F054FF003088DB193
:103A1000DFF8AC9230463946EA0705D5D9E90023EC
:103A200008F1010802F09EFD6D1009F10809F3D1BB
:103A300006460F46DDE9020132463B4602F0BCFE77
:103A4000CDE902010B9B43B1DDE9020100229D4B50
:103A500002F0FAFF002840F0AC82404602F01CFD64
:103A6000DDE9022302F07EFD974B002202F0C8FB45
:103A7000069B0646A1F15077002B00F06281049B63
:103A8000DDF818901293099B002B00F021828B4BDC
:103A90008E4903EBC90353E90223002002F08CFE98
:103AA00032463B4602F0AAFBDDE90267CDE9100190
:103AB0003946304602F0F0FF054602F0EDFC3035A5
:103AC00002460B463046394602F098FB5FFA85F80D
:103AD000079DDDE9102385F8008006460F46013575
:103AE00002F0B2FF002840F0B28232463B4600208E
:103AF000744902F083FB02460B46DDE9100102F037
:103B0000C1FF002840F0AC82B9F1010F40F33881C9
:103B1000079BCDF84CA0CDF808B09944DDE910AB77
:103B2000A0460DE00020674902F068FB52465B4664
:103B300002F08AFF002840F08E824D4500F01B8184
:103B4000504659460022624B02F00CFD0022604BA9
:103B500082468B463046394602F004FD0F46064643
:103B600002F09AFF044602F097FC02460B463046EC
:103B7000394602F043FB3034E4B252465B4605F866
:103B8000014B06460F4602F05FFF32463B460028D7
:103B9000C8D0129BDDF808B00493444633E50023F7
:103BA0000993219B049A13440C930133002B069331
:103BB00040F30981069E3746EFE600230993E4E6C9
:103BC000069B002B3FF76DAC40F06282404600221E
:103BD000404B494602F0C6FCDDE9022302F048FFF3
:103BE000DDF818804646002800F08A80219B079D5A
:103BF000DB4304934146204601F07EF9002E7FF41A
:103C00002CAE00E55946204601F0B4FA834657E54C
:103C1000029B002B7FF466AD039BC3F31303002BC1
:103C20007FF494AD039B23F000473F0D3F05002F29
:103C300000F01A82059B013305930AF1010A4FF047
:103C4000010985E50D9A002A00F0A58103F23343AE
:103C5000089F059DFFE401F059F957460646814645
:103C600031E601462046CDF808C001F045F90122B1
:103C7000DDF808C054E65846414601F021FB002813
:103C8000BFF691AD049F5946002320460A22013F0A
:103C9000049701F03BF9099B8346002B7FF4F0ADBC
:103CA0000C9B002B40F3F881069383E50798FFF700
:103CB0000BBB029B002B7FF449ADADE710710008F0
:103CC000D87100080000F03F00001C400000E03FF9
:103CD0000000244000001440209B022B7FF767ADBA
:103CE000069B002B82D141460522204601F00EF9A9
:103CF00080464146584601F0E3FA00287FF776AF48
:103D0000049A07993123013204920B704D1C71E71C
:103D1000049A01320492079A312313708DE5DDF87D
:103D200008B0059C6FE4404602F0B6FBDDE90223D3
:103D300002F018FC0022BC4B02F062FA0646A1F128
:103D40005077DDE902010022B84B02F057FA324603
:103D50003B46CDE9020102F095FE8046002840F086
:103D6000B380324607F10043DDE9020102F06CFE48
:103D700030B146463AE7DDF84CA0DDF808B04446DD
:103D8000DDE90E23CDE90223FFF77ABB5946089AF5
:103D9000204601F0EFF9834692E4089B0A9A0897BF
:103DA000FB1A1A440A9200274FE4DDE90E234FF074
:103DB0000208CDE902232AE6012621960C960696F2
:103DC00000216164F8E51E46FAE7002A15DD594630
:103DD00001222046CDF808C001F01CFA4146834676
:103DE00001F06EFA0028DDF808C040F34A81BCF10A
:103DF000390F00F006810CF1010CB24687F800C0C3
:103E00007D1C4E4619E504D11CF0010F01D004E5DC
:103E1000154615F8013C302B05F1FF32F8D00CE5C2
:103E2000049B5D42002D00F0BD80814B05F00F0228
:103E300003EBC203D3E90023DDE90E0102F092FB9C
:103E40002D11CDE9020100F02C817A4E4FF00208CD
:103E5000EB0705D5D6E9002308F1010802F082FB43
:103E60006D1006F10806F3D1CDE90201EAE5049AE6
:103E700001320492079A3023137031231370FFF735
:103E8000C2BB7168204601F011F833699A1C0546DF
:103E9000920006F10C010C3000F01CFF2046294670
:103EA000012201F0B7F9814603E5BCF1390F00F0BA
:103EB000A8800CF1010CB24687F800C07D1C4E466C
:103EC000BBE4B2464E4698E44FF00008464617E77A
:103ED000574909F1FF3301EBC30132461393D1E98E
:103EE00000013B4602F03EFBDDE90267CDE910012F
:103EF0003946304602F0D0FD054602F0CDFA0246C2
:103F00000B463046394602F079F9079A3035B9F157
:103F1000010F157006460F4602F1010523D0079BDD
:103F2000CDF808A04B445E469A46AB460022424B71
:103F300002F018FB8946804602F0AEFD074602F00B
:103F4000ABFA303702460B464046494602F056F976
:103F50000BF8017BD345E9D1139BDDF808A0B346EC
:103F60000F4606461D440022344BDDE9100102F0E5
:103F700047F932463B4602F067FD002847D0129BC6
:103F8000049315F8018CFFF72CBB059B069A9D1A2C
:103F90000023FFF760BB149B089F059DC3F1360308
:103FA000FFF759BBDDE90E234FF00208CDE90223EC
:103FB00048E5069B002B3FF4B6AE0C9D002D7FF725
:103FC000DFAE00221C4BDDE9020102F0CBFA06460F
:103FD0000F4608F10100CDE9026702F05DFA0246E2
:103FE0000B463046394602F0BDFA0F4B002202F074
:103FF00007F9049B013B0646A1F150771293A946AD
:1040000041E53922B2463A704E467D1C07E4DDE9AF
:1040100010230020094902F0F1F832463B4602F035
:1040200031FD70B9ACE600BF00001C400000144038
:1040300010710008D8710008000024400000E03F23
:10404000154615F8013C302B05F1FF32F8D0129BD4
:104050000493FFF7D8BA4346DDF808B0A0461C46E3
:10406000129B0493FFF7BDBAB946FFF771BBBCF1D1
:10407000390FC6D0BAF1000F7FF7BFAE05F1310C92
:10408000BBE67FF4BAAE1CF0010F3FF4B6AEAEE66D
:104090004FF000084646A9E5209B022B04DC0C9B50
:1040A00002E64FF00208CDE40C9B069318E6209B35
:1040B000022BF9DC0C9BFFF7EEBB0025656429465B
:1040C000204600F0F3FE4FF0FF3306930C930123DC
:1040D0000790219520640993FFF7D2B93FF44DABC7
:1040E000C0F13C00FFF744BB0123099359E50125CA
:1040F000FFF790B9AFF300808B899AB22DE9F041B8
:104100000D46110780463CD46A6843F40063002AD8
:10411000AB8165DDAE6A002E4BD09BB203F48052BA
:10412000002192B2D8F80040C8F80010002A5BD0F5
:104130002A6D5F0705D569682B6B521A0BB1EB6BC3
:10414000D21A4046E9690023B047461C56D0AB89D5
:104150002A692A6023F400639BB200226A60DA04B1
:10416000AB813BD4296BC8F8004011B305F1400383
:10417000994202D0404600F055F900202863BDE87E
:10418000F0812E69AEB12C682E6091070CBF6B696F
:104190000023A41BAB600AE0324623466F6AE9693C
:1041A0004046B8470028A4EB0004064404DD002C78
:1041B000F2DC0020BDE8F081AB8943F04003AB8125
:1041C0004FF0FF30BDE8F081AB892A69696023F4C4
:1041D00000639BB2AB81DB042A60C3D52865C1E7CD
:1041E000EA6B002A96DCE4E701234046E969B04720
:1041F000431C024619D0AB89AE6A9AE7D8F8001082
:104200000029E1D01D2907D0162905D0AB8943F03C
:104210004003AB81BDE8F081AB892A692A6023F4B1
:1042200000630022AB816A609CE7D8F80030002B65
:10423000E1D01D2B07D0162B05D0AB8943F04003EE
:10424000AB81BDE8F081C8F80040B2E710B5044684
:1042500082B008B1836B53B1B1F90C0008B902B058
:1042600010BD204602B0BDE81040FFF745BF0191E8
:1042700000F080F80199EFE7014900F0ABB900BF09
:104280002D5700082DE9F04F354B4568C3630024D6
:10429000074600F53B7204230321C0F8E412C0F87E
:1042A000E822C0F8E04283B02C606C60AC606C66C1
:1042B000EC812C616C61AC61AB81214605F15C0045
:1042C000082200F0A1FDBE68DFF898B0DFF898A0E2
:1042D000DFF89890DFF89880C5F820B00123092214
:1042E000C5F824A0C5F82890C5F82C80ED612146BA
:1042F000F381B28106F15C0034607460B46074666E
:1043000034617461B4610822019300F07DFDFD68A1
:10431000F66112200222C6F820B0C6F824A0C6F822
:104320002890C6F82C802146A881EA812C606C6018
:10433000AC606C662C616C61AC6105F15C000822BC
:1043400000F062FD019BED61C5F820B0C5F824A026
:10435000C5F82890C5F82C80BB6303B0BDE8F08F8A
:104360007942000811550008355500086D550008C0
:104370008D550008836B03B17047FFF783BF00BF03
:10438000704700BF704700BFF8B5234F0C46064684
:1043900000F088FDBB685D6825F00305291B01F668
:1043A000EF7121F47F6121F00F01A1F58054B4F584
:1043B000805F07DB3046002101F098F8BB682B4492
:1043C000984204D0304600F06FFD0020F8BD304622
:1043D000614201F08BF801300DD0104BBA681968BA
:1043E0002D1B45F001053046091B5560196000F092
:1043F0005BFD0120F8BD3046002101F077F8BA6876
:10440000831A0F2BDEDD064C0449246843F00103B8
:10441000001B53600860D5E7B8040020DC080020CA
:10442000C408002000294ED02DE9F0410C468046FA
:1044300000F038FD54F8047C624927F00102A4F131
:104440000805AB188E6858689E4220F003005AD0C9
:10445000FE0758600BD454F8087CED1B01F1080EE0
:10446000AC6874453A4467D0EF68E760BC601C18DC
:104470006468E4070CD4544F9C68BC4202447CD06E
:10448000D868E06042F0010384606B60AA5003E0EA
:1044900042F001036B60AA50B2F5007F14D2D2083B
:1044A00001EBC20348689F68AF609210012404FAD0
:1044B00002F21043EB6048609D60FD604046BDE83D
:1044C000F04100F0F1BC7047530A042B47D8930920
:1044D00003F13804600001EB80003A4983688342AD
:1044E00043D0596821F00301914202D99B68984258
:1044F000F7D1DA68EA60AB6040469560DD60BDE800
:10450000F04100F0D1BCFF07024407D454F8083C46
:10451000ED1A1A44A868EB68C36098602B4B1B68BF
:1045200042F001009A4268608D60C7D3284B404634
:104530001968FFF729FFC1E719184968C90709D4A5
:10454000D9689B68024442F00100D9608B606860C2
:10455000AA50B3E742F001036B60AA50AEE7142BF8
:1045600014D803F15B046000B5E74A68A410012089
:10457000A04002434A601A46BCE742F001034D6185
:104580000D61EC60AC606B60AA5097E7542B04D8C7
:10459000130B03F16E0460009DE7B3F5AA7F04D806
:1045A000D30B03F17704600095E740F25450834247
:1045B00004D8930C03F17C0460008CE7FC207E247B
:1045C00089E700BFB8040020C0040020C008002014
:1045D000D80800202DE9F84310F538771FD0884619
:1045E00006464FF000097D68BC68013D11D4A389DF
:1045F000012B05F1FF3508D9B4F90E3001332146FE
:10460000304602D0C04749EA00096B1C04F1680437
:10461000EDD13F68002FE6D14846BDE8F883B946A2
:104620004846BDE8F88300BF004870479404002066
:10463000014B1868704700BFB40400200048704761
:104640005C0400208B899AB212F0020F3CD1F0B5C5
:104650000C46B1F90E10002991B0054619DB01AAEC
:1046600001F008F9002812DB029B03F47043B3F554
:10467000004FA3F50057B7FA87F74FEA57172AD02C
:10468000A38943F40063A3814FF480660BE0A38900
:104690009AB212F0800F43F40063A3810CBF4FF471
:1046A0008066402600272846314600F03BF8A38963
:1046B00040B31A4AEA6343F08003A381206020617B
:1046C00066619FB911B0F0BD01F1430301220B6097
:1046D0000B614A617047124BA26A9A42D0D1A389FA
:1046E0004FF480663343A381E664DCE72846B4F9DF
:1046F0000E1001F05FFA0028E4D0A38943F0010313
:10470000A381DFE79A05DDD404F1430243F00203FD
:104710000121A381226022616161D3E7794200080F
:104720006D5500082DE9F04F01F10B05162D83B0F2
:10473000064627D935F0070500F1B680A94200F2F8
:10474000B38000F0AFFBB5F5FC7F22D2C24FE80882
:1047500007EBC003DC689C4200F0C9816368E16834
:10476000A56823F00303234430465A68E96042F009
:1047700001028D605A6000F097FB0834204603B0B8
:10478000BDE8F08F102900F28F8000F08BFB102520
:10479000DCE7680A00F08F80042800F25481A80941
:1047A00038304100AC4F07EB8101CC68A14206D103
:1047B0000CE0002A80F28280E468A14206D063689F
:1047C00023F003035A1B0F2AF3DD01380130A249FD
:1047D0003C6901F1080E744500F07E81636823F0A6
:1047E00003035A1B0F2A00F36481002AC1F814E066
:1047F000C1F810E073DAB3F5007F80F03981DB088F
:1048000001EBC3084FEAA30C4A68D8F80890C4F833
:104810000890012303FA0CF31343C4F80C804B6097
:10482000C8F80840C9F80C408210012494409C420A
:1048300062D8234206D120F003006400234200F135
:104840000400FAD007EBC008C4468146DCF80C30FF
:104850009C4507D142E1002980F25281DB689C45EA
:1048600000F03C815A6822F00302511B0F29F2DD4F
:104870001C46D3F80CC054F8088F5A1945F00109AA
:1048800041F00105C3F804903046C8F80CC0CCF8DC
:1048900008807A613A61C2F80CE0C2F808E055601D
:1048A000515000F001FB69E700240C2320463360DF
:1048B00003B0BDE8F08F7E213F2073E72344E16819
:1048C0005A68A56842F00102E96030468D605A607E
:1048D00000F0EAFA0834204603B0BDE8F08F234424
:1048E00030465A6842F001025A6000F0DDFA08349E
:1048F000204603B0BDE8F08FBC68636823F003086E
:10490000454504D8C5EB08030F2B00F38C80534BAF
:10491000DFF858A11A68DAF8003001332A4404EBB2
:10492000080B00F0508102F580520F3222F47F62B2
:1049300022F00F0211463046019200F0D7FDB0F18F
:10494000FF3F8146019A00F0F580834500F2EF8039
:10495000434B1968CB451144196000F03D81DAF8EA
:104960000000DFF808E101301BBFCBEB090B594415
:10497000CEF80090196019F0070100F00781C1F12D
:104980000800C1F58051814408314A44C2F30B024A
:10499000C2EB010A51463046019300F0A7FD431CCB
:1049A000019B00F02781C9EB0002524442F0010252
:1049B0001968C7F808905144BC42C9F8042019602E
:1049C000DFF89CA016D0B8F10F0F40F2E2806268C9
:1049D000A8F10C0323F00703E01802F001024FF0E6
:1049E000050E1A430F2B6260C0F804E0C0F808E01F
:1049F00000F204811B4BBC681A68914288BF1960A1
:104A0000194B1A689142626888BF196022F003024C
:104A10009542A2EB050301D80F2B04DC304600F0D1
:104A200043FA0024AAE6621943F0010345F00105A8
:104A300065603046BA60536000F036FA08342046AC
:104A400003B0BDE8F08F142869D9542800F297808C
:104A5000280B6E304100A5E6B8040020D8080020DD
:104A6000DC080020D4080020D0080020C408002062
:104A70005A0A042A56D9142A00F2A7805B324FEA58
:104A8000420C07EB8C0CDFF8B481DCF808106145B0
:104A900000F085804A6822F00302934202D28968BE
:104AA0008C45F7D1CA687B68E260A1609460CC60F5
:104AB000BAE6631942F0010745F00105656030462A
:104AC0004B610B61C3F80CE0C3F808E05F609A50DB
:104AD000083400F0E9F951E64B68A5E609F101094F
:104AE00019F0030F0CF1080C7FF4B0AE2BE004F1C9
:104AF00008036469A34208BF02303FF468AE2DE6A4
:104B00001A441C465168DB6854F8085F41F0010103
:104B100051603046EB609D6000F0C6F92EE65B30D8
:104B200041003FE69A0938324FEA420CA9E7BC42FD
:104B30003FF40EAFBC68626822F0030268E7D8F861
:104B40000080984577D110F0030FA8F1080300F119
:104B5000FF30F4D17B6823EA04037B6064009C424D
:104B60003FF6CAAE002C3FF4C7AE234248467FF45E
:104B700069AE6400234200F10400FAD062E6B0F5A9
:104B8000AA7F18D8E80B773041000BE64FF480512C
:104B9000FBE60123C9F804304C46002238E7D8F878
:104BA000043092104FF0010C0CFA02F21343C8F8D3
:104BB00004300A4678E740F25453984217D8A80CBC
:104BC0007C304100EEE51032B4E6542A1ED81A0BB0
:104BD0006E324FEA420C54E7CBF30B0000287FF40F
:104BE000BEAE4244BB6842F001025A6002E7FC21BB
:104BF0007E20D7E501224FF0000AD9E604F1080132
:104C00003046FFF70FFCDAF80010F3E6B2F5AA7FA2
:104C100004D8DA0B77324FEA420C32E740F25451B3
:104C20008A4204D89A0C7C324FEA420C29E74FF0B2
:104C3000FC0C7E2225E77B6890E700BFB8040020CB
:104C4000830770B4C9B240D0541E002A3FD0037805
:104C50008B4218BF431C06D11DE0F4B102788A4292
:104C600004F1FF3417D013F0030F184603F10103CA
:104C7000F3D1032C14D884B103788B420BD00519DF
:104C8000431C02E002788A4205D0AB42184603F189
:104C90000103F7D1002070BC7047204670BC7047FC
:104CA00041EA0126024646EA0646104604320368F7
:104CB0007340A3F1013525EA030313F0803FDAD1F5
:104CC000043C032C1046F0D8D5E71446D1E7104633
:104CD000E1E700BF844641EA000313F003036DD10E
:104CE000403A41D351F8043B40F8043B51F8043BAF
:104CF00040F8043B51F8043B40F8043B51F8043BB6
:104D000040F8043B51F8043B40F8043B51F8043BA5
:104D100040F8043B51F8043B40F8043B51F8043B95
:104D200040F8043B51F8043B40F8043B51F8043B85
:104D300040F8043B51F8043B40F8043B51F8043B75
:104D400040F8043B51F8043B40F8043B51F8043B65
:104D500040F8043B51F8043B40F8043B51F8043B55
:104D600040F8043B403ABDD2303211D351F8043BF5
:104D700040F8043B51F8043B40F8043B51F8043B35
:104D800040F8043B51F8043B40F8043B103AEDD2A4
:104D90000C3205D351F8043B40F8043B043AF9D2F5
:104DA000043208D0D2071CBF11F8013B00F8013BC8
:104DB00001D30B8803806046704700BF082A13D3D5
:104DC0008B078DD010F003038AD0C3F10403D21AED
:104DD000DB071CBF11F8013B00F8013B80D331F821
:104DE000023B20F8023B7BE7043AD9D3013A11F8A1
:104DF000013B00F8013BF9D20B7803704B7843700C
:104E00008B7883706046704770B4840746D0541E18
:104E1000002A41D0CDB2034602E0621EE4B314463C
:104E200003F8015B9A07F8D1032C2ED9CDB245EADD
:104E300005250F2C45EA054519D903F11002264630
:104E4000103E0F2E42F8105C42F80C5C42F8085CF1
:104E500042F8045C02F11002F2D8A4F1100222F030
:104E60000F0204F00F041032032C13440DD91E4618
:104E70002246043A032A46F8045BFAD8221F22F09D
:104E800003020432134404F003042CB1C9B21C44DD
:104E900003F8011BA342FBD170BC704714460346C4
:104EA000C2E700BF704700BF704700BFC36C70B55A
:104EB00005460C464BB153F8240080B1026843F814
:104EC000242000230361C36070BD0421212200F06F
:104ED000EBFBE86403460028EDD1002070BD012102
:104EE00001FA04F6721D2846920000F0DDFB00284E
:104EF000F3D044608660E4E731B1C36C4A6853F88C
:104F00002200086043F82210704700BFF0B50C691A
:104F100083B00D46064601F1140E0027DEF800109E
:104F200088B2090C02FB003302FB01F101EB1341D3
:104F300001379BB203EB0143BC424EF8043B4FEAFE
:104F40001143EBDC3BB1AA68944207DA05EB84021B
:104F5000013453612C61284603B0F0BD69680193A8
:104F600001313046FFF7A2FF2A69023205F10C0138
:104F7000074692000C30FFF7ADFEF26C6968019BAA
:104F800052F82100286042F821503D46DEE700BF7C
:104F9000030C1B04B3B90004102310F07F4F04BFAF
:104FA0000002083310F0704F04BF0001043310F00A
:104FB000404F04BF80000233002807DB420003D4C7
:104FC000202070470023E8E7581C704718467047B8
:104FD000036813F0070207D0D90720D49A0720D41A
:104FE0009B0803600220704799B209B91B0C10227C
:104FF00013F0FF0F04BF1B0A0832190704BF1B0977
:105000000432990704BF9B080232D90704D45B0815
:1050100001D1202070470132036010467047002004
:1050200070475B0803600120704700BF10B50C4655
:105030000121FFF73BFF01224461026110BD00BF67
:105040002DE9F04F0F691669B74283B00D4614463B
:10505000C0F28D8033463E461F46AB68696806EB5A
:1050600007089845C8BF0131FFF720FF00F1140C75
:105070000CEB8809CC45009005D26346002143F82B
:10508000041B9945FBD804F1140202EB870A05F1D1
:105090001403524503EB860E54D2CDF80490994682
:1050A00052F8043B1FFA83FBBBF1000F20D0002015
:1050B0004F466646054600E01E4657F8044B3068EA
:1050C000A1B283B20BFB0131240C000C4B190BFB7A
:1050D000040000EB134099B2334641EA0041BE455B
:1050E0004FEA104543F8041BE6D8756052F8043CBB
:1050F0005FEA134B20D0DCF80030674618464D4677
:10510000002100E037462C88000C0BFB0400014412
:105110009CB23E4644EA014346F8043B786855F8A1
:10512000044B83B2240C0BFB043404EB1143AE4557
:105130004FEA1341E6D87B6092450CF1040CAFD8DE
:10514000DDF80490B8F1000F0BDD59F8043CA9F12B
:1051500004091BB105E059F8043D13B9B8F1010881
:10516000F9D10098C0F8108003B0BDE8F08F154663
:105170000C4672E712F003032DE9F041144607468E
:105180000E462DD1A4101CD0BD6C95B3E3074FF093
:10519000000806D4641014D02868A8B10546E307B7
:1051A000F8D5384631462A46FFF74AFFB6B172684D
:1051B000FB6C641053F82210316043F822600646FD
:1051C000EAD13046BDE8F08129462A463846FFF745
:1051D00037FF2860C0F800800546E0E70646D9E7BB
:1051E0005A1E0B4D002355F82220FFF78FFE06466E
:1051F000C8E701213846FFF759FE40F2712101222C
:105200000023416102610546B8640360BEE700BF48
:10521000007200082DE9F0470F698B684FEA6219A8
:105220004F447D1C9D420E4614464968804604DD6D
:105230005B009D4201F10101FADC4046FFF736FEBA
:10524000B9F1000F00F1140109DD00239E460A4662
:1052500001334B4542F804EBFAD101EB830132698B
:1052600006F1140314F01F0C03EB820E1FD0CCF1D7
:10527000200900221C6804FA0CF414438A4641F801
:10528000044B53F8044B9E4524FA09F2F2D8CAF8AD
:10529000042002B1BD1CD8F84C307268013D53F8AF
:1052A00022100561316043F82260BDE8F0870439BF
:1052B00053F8042B41F8042F9E45F9D8EBE700BFC3
:1052C00002690B69D21A13D19B00143014311944AE
:1052D00010B4034401E098420CD253F8044D51F845
:1052E000042D9442F7D009D301205DF8044B704798
:1052F0001046704700205DF8044B70474FF0FF30B8
:105300005DF8044B704700BF2DE9F0410E4605469D
:10531000114630461446FFF7D3FF071E54D04DDB2D
:105320004FF0000871682846FFF7C0FD3769236910
:10533000C0F80C80143604F1140202EB830C00F167
:10534000140506EB870E002356F8048B52F8044B25
:1053500013FA88F3A1B2240C591AC4EB184303EBD7
:10536000214389B241EA0341944545F8041B4FEAC1
:1053700023433446E8D8B645AC4615D954F8042B37
:1053800013FA82F1130C03EB214389B241EA034182
:10539000A64545F8041B4FEA2343EFD8F64376446D
:1053A00026F0030504356544043D21B955F8043D54
:1053B000013F002BFAD00761BDE8F08133464FF082
:1053C000010826461C46ADE728463946FFF76EFD24
:1053D000012347610361BDE8F08100BF2DE9F04181
:1053E00082B001211C46C3F30A571546089EFFF7F9
:1053F0005DFDC4F3130480460FB144F4801401949E
:105400001DB302A840F8085DFFF7E2FD002834D183
:105410009DE80C00C8F81420002B14BF02240124BE
:10542000C8F81830C8F81040DFB908EB8403A0F2C0
:10543000324030601869FFF7ABFD099BC0EB4410A8
:105440001860404602B0BDE8F08101A8FFF7C0FD3A
:105450000124019BC8F814302030C8F81040002FF8
:10546000E3D0099BA7F233470744C0F1350037600A
:105470001860404602B0BDE8F0819DE80C00C0F124
:10548000200103FA01F10A43C3400193C8F8142034
:10549000C2E700BF10B431F0004408D0114BA1F5B1
:1054A00080129A4208D804205DF8044B704718B95E
:1054B00002205DF8044B704701F1FF41094B01F5F3
:1054C000E0019942EFD9B4F5801F01D20320EBE748
:1054D000054B9C4201D00020E6E7B0FA80F040097D
:1054E000E2E700BFFFFFDF7F0000F07F38B5074C29
:1054F0000023054608462360FBF7CCFE431C00D082
:1055000038BD2368002BFBD02B6038BD0409002078
:1055100010B50C46B1F90E1000F0D6FB002803DBE5
:10552000236D0344236510BDA38923F48053A38115
:1055300010BD00BF2DE9F04116468A891D46D305EE
:105540000C46074606D50022B1F90E10022300F0E2
:1055500043FBA289B4F90E1022F48052A28138468E
:1055600032462B46BDE8F04100F08AB810B50C4633
:10557000B1F90E1000F030FBA389421C0EBF23F4DA
:10558000805343F480532065A38110BDB1F90E1000
:1055900000F0BAB820F0030110F00300C0F10000E1
:1055A00051F8043B00F1040C4FEACC0C6FF0000200
:1055B0001CBF22FA0CF213434FF0010C4CEA0C2CE6
:1055C0004CEA0C4CA3EB0C0222EA030212EACC12C6
:1055D00004BF51F8043B0430F4D0C2F1000102EAE8
:1055E0000102B2FA82F2C2F11F0200EBD200704750
:1055F0004B6E2DE9F0479C040F4692462BD59368DD
:10560000126833B3804602F1080919E96000B60850
:1056100017D0043D002401E0A64210D0404655F8C2
:10562000041F3A4600F0C4F8431C04F10104F3D10E
:105630000023CAF80830CAF80430BDE8F087DAF869
:105640000830A3EB8603CAF8083009F10809002BDB
:10565000DBD10020ECE700F021F90023CAF8083084
:10566000CAF80430BDE8F087936810B41BB15DF848
:10567000044BFFF7BDBF184653605DF8044B7047FD
:1056800070B5084C06460025084611461A462560A6
:10569000FBF764FE431C00D070BD2368002BFBD0D9
:1056A000336070BD0409002010B502FB01F1FFF763
:1056B00039F8044668B150F8042C22F00302043A89
:1056C000242A18D8132A06D8034600221A605A60E2
:1056D0009A60204610BD00231B2A036043600FD947
:1056E000242A8360C36005BF0361436100F1100396
:1056F00000F11803E9E70021FFF786FB204610BD03
:1057000000F10803E1E700BF38B5074C0023054668
:1057100008462360FBF7DEFD431C00D038BD23683C
:10572000002BFBD02B6038BD0409002000293DD0A0
:1057300070B505460C4608B1836B7BB3B4F90C30E9
:105740000BB9002070BD28462146FEF7D5FCE36A60
:10575000064633B12846E16998470028B8BF4FF0A4
:10576000FF36A3891B061CD4216B41B104F1400311
:10577000994202D02846FEF755FE00232363616C50
:1057800021B12846FEF74EFE00236364FEF7F8FDC4
:105790000023A381FEF7F6FD304670BDFEF7EAFD5B
:1057A000CCE728462169FEF73DFEDDE70020704783
:1057B0002DE9F041938914469A0482B007460E46BB
:1057C00006D4626E43F4005342F40052A381626631
:1057D000FEF72EFF012841D0384601A9324604F1D8
:1057E0005C0300F0CFFCB0F1FF3F80462FD00028D3
:1057F0003CD09DF80410002509E023681970236847
:10580000013323600135A84530D901AB595DA36848
:10581000013B002BA360F0DAA269934207DB236807
:105820001970236819780A2903F10103E9D1384670
:10583000224600F053FCA0F1FF30B0FA80F040099E
:105840000028DFD04FF0FF3002B0BDE8F081A3891F
:1058500043F04003A38102B0BDE8F081731EFE2B2C
:10586000BAD8F1B280468DF80410C4E7304602B0D1
:10587000BDE8F08138B5084C0023054608461146BE
:105880002360FBF733FD431C00D038BD2368002B99
:10589000FBD02B6038BD00BF040900209368002BAB
:1058A0007AD02DE9F04FB1F80CE01EF0080F83B06C
:1058B0000C468146164626D00B6923B30EF002082B
:1058C0001FFA88F0356870B34FF0000ADFF8E0B2D5
:1058D000D046D8454346524628BF5B464846B8F1B5
:1058E000000F53D0E169676AB847002873DDB368D9
:1058F0001B1A8244C0EB0808B360002BE9D10020DA
:1059000003B0BDE8F08F48462146FDF7AFFB002805
:1059100040F04581B4F80CE035680EF002081FFA3B
:1059200088F00028D0D11EF0010B5DD1D846B8F127
:10593000000F25D01EF4007FA7682FD0B845BA46C7
:10594000C0F0A9801EF4906F40F0B68020685246E7
:10595000594600F055F9A0682268C01B02EB0A0303
:10596000A06023604046B3681B1A8344C0EB08085C
:10597000B360002BC3D0B4F80CE0B8F1000FD9D15C
:10598000D5F800B0D5F804800835D0E7D5F800A0E8
:10599000D5F8048008359CE700207047206823690B
:1059A000984203D86269904580F0B980474528BF86
:1059B00047463A46594600F023F9A3682268DB1BA4
:1059C0003A44A3602260002B4AD148462146FEF7A4
:1059D0003DFC002844D0A38943F040034FF0FF3042
:1059E000A38103B0BDE8F08F8046009083468246D5
:1059F000BAF1000F2CD0009B002B50D020682169F9
:105A0000D4F808E06269D045434628BF534688422F
:105A10001F4604D90EEB020C634500F392809342BB
:105A200020DB1346676AE16948465A46B847071EB5
:105A3000D1DDB8EB070825D0B368DB1BBB44C7EB4F
:105A40000A0AB360002B3FF45AAFBAF1000FD2D16B
:105A50000023D5F800B0D5F804A000930835C7E7B7
:105A6000384680E71A465946019300F0C9F8A26803
:105A70002168019BB8EB0708A2EB03020B44A2606C
:105A80002360D9D148462146FEF7E0FB0028A2D189
:105A9000CDF80080D0E720684746C24657E7584611
:105AA0000A215246FFF7CCF8002873D001300123B9
:105AB000CBEB00080093A1E767692169236807EB36
:105AC00047075B1A07EBD777581C7F104044874283
:105AD0003A463CBF07463A461EF4806F009346D0D4
