:020000040800F2
:1000000000A0002015150008591500085915000812
:10001000591500085915000859150008000000007E
:10002000000000000000000000000000591500085A
:10003000591500080000000059150008591500085E
:1000400059150008591500085915000859150008D8
:1000500059150008591500085915000859150008C8
:1000600059150008591500085915000859150008B8
:1000700059150008591500085915000859150008A8
:100080005915000859150008591500085915000898
:100090005915000859150008591500085915000888
:1000A0005915000859150008591500085915000878
:1000B0005915000859150008591500085915000868
:1000C0005915000859150008591500085915000858
:1000D0005915000859150008591500085915000848
:1000E0005915000859150008591500085915000838
:1000F0005915000859150008591500085915000828
:100100000000000000000000000000005915000879
:100110005915000859150008591500085915000807
:1001200059150008591500085915000859150008F7
:1001300059150008591500080000000000000000D3
:10014000591500085915000859150008000000004D
:10015000000000000000000000000000000000009F
:1001600000000000000000005915000859150008A3
:100170005915000800000000000000000000000009
:10018000000000005915000880B48BB000AF786003
:1001900000233B620023FB610023BB6100237B61E2
:1001A00000233B6100237B620023FB600023BB60D4
:1001B000924B5B6803F00C033B623B6A042B07D055
:1001C000082B09D0002B30D17B688D4A1A6030E0B3
:1001D0007B688B4A1A602CE0884B5B6803F47013D1
:1001E000FB61864B5B6803F48033BB61FB699B0C4E
:1001F0000233FB61BB69002B05D1FB69814A02FB1D
:1002000003F37B620DE07D4BDB6A03F00F030133E8
:100210007B617B4A7B69B2FBF3F3FA6902FB03F370
:100220007B627B687A6A1A6003E07B68744A1A60B2
:1002300000BF724B5B6803F0F0033B623B6A1B0933
:100240003B62714A3B6A13441B78DBB2BB607B683C
:100250001A68BB68DA407B685A60684B5B6803F4D5
:10026000E0633B623B6A1B0A3B62674A3B6A13449A
:100270001B78DBB23B617B685A683B69DA407B687C
:100280009A605E4B5B6803F460533B623B6ADB0A37
:100290003B625D4A3B6A13441B78DBB2FB607B68C0
:1002A0005A68FB68DA407B68DA60544BDB6A03F417
:1002B000F8733B623B6A1B093B62544A3B6A32F863
:1002C00013309BB23B613B6903F01003002B06D057
:1002D0007A6A3B69B2FBF3F27B681A6103E07B68E0
:1002E0001A687B681A61454BDB6A03F478533B62FA
:1002F0003B6A5B0A3B62454A3B6A32F813309BB269
:100300003B613B6903F01003002B06D07A6A3B691E
:10031000B2FBF3F27B685A6103E07B681A687B6882
:100320005A61364B1B6B03F01003002B03D17B6823
:10033000334A9A6103E07B681A687B689A612F4BA5
:100340001B6B03F02003002B03D17B682C4ADA617E
:1003500003E07B681A687B68DA61284B1B6B03F447
:100360008073002B0DD07B681A687B6A9A4208D193
:10037000FA68BB689A4204D17B6A5A007B681A62A9
:1003800003E07B68DA687B681A621C4B1B6B03F422
:100390000073002B0DD07B681A687B6A9A4208D1E3
:1003A000FA68BB689A4204D17B6A5A007B685A6239
:1003B00003E07B68DA687B685A62104B1B6B03F0C2
:1003C0000303002B04D17B68DA687B689A6228E01B
:1003D0000A4B1B6B03F00303012B04D17B681A68E3
:1003E0007B689A621DE0054B1B6B03F00303022B35
:1003F0000ED17B684FF400429A6212E00010024076
:1004000000127A0000093D000000002010000020CA
:10041000604B1B6B03F00303032B02D17B685E4A26
:100420009A625C4B1B6B03F44033002B04D17B6856
:100430009A687B68DA6221E0564B1B6B03F4403309
:10044000B3F5803F04D17B681A687B68DA6215E0F7
:10045000504B1B6B03F44033B3F5003F04D17B6872
:100460004FF40042DA6209E04A4B1B6B03F440335D
:10047000B3F5403F02D17B68474ADA62454B1B6BBC
:1004800003F44023002B04D17B689A687B681A63CD
:1004900021E0404B1B6B03F44023B3F5802F04D1C4
:1004A0007B681A687B681A6315E03A4B1B6B03F490
:1004B0004023B3F5002F04D17B684FF400421A6348
:1004C00009E0344B1B6B03F44023B3F5402F02D1FA
:1004D0007B68314A1A632F4B1B6B03F44013002BCC
:1004E00004D17B689A687B685A6321E0294B1B6BB7
:1004F00003F44013B3F5801F04D17B681A687B684E
:100500005A6315E0234B1B6B03F44013B3F5001F34
:1005100004D17B684FF400425A6309E01D4B1B6B0A
:1005200003F44013B3F5401F02D17B681A4A5A63A3
:10053000184B1B6B03F44003002B04D17B689A68B3
:100540007B689A6321E0134B1B6B03F44003B3F504
:10055000800F04D17B681A687B689A6315E00D4BA5
:100560001B6B03F44003B3F5000F04D17B684FF419
:1005700000429A6309E0074B1B6B03F44003B3F599
:10058000400F02D17B68044A9A632C37BD465DF860
:10059000047B70470010024000127A0080B483B0E0
:1005A00000AF78600B46FB70FB78002B06D0094942
:1005B000084B5A697B6813434B6106E00549054BBC
:1005C0005A697B68DB4313404B610C37BD465DF8CD
:1005D000047B70470010024080B483B000AF7860A5
:1005E0000B46FB70FB78002B06D00949084B9A6933
:1005F0007B6813438B6106E00549054B9A697B686C
:10060000DB4313408B610C37BD465DF8047B7047BC
:100610000010024080B483B000AF78600B46FB70DE
:10062000FB78002B06D00949084BDA697B68134335
:10063000CB6106E00549054BDA697B68DB43134073
:10064000CB610C37BD465DF8047B7047001002405B
:1006500080B487B000AF7860396000237B610023ED
:100660003B610023FB6000237B617CE07B6901220E
:1006700002FA03F33B613B681A683B691340FB6075
:10068000FA683B699A426BD13B681B79012B03D016
:100690003B681B79022B34D17B689A687B695B00CD
:1006A000194603238B40DB431A407B689A607B68C2
:1006B0009A683B685B7919467B695B0001FA03F332
:1006C0001A437B689A607B689B889AB27B699BB26D
:1006D000194601238B409BB2DB439BB213409AB275
:1006E0007B689A807B689B889AB23B689B791946A5
:1006F0007B699BB201FA03F39BB213439AB27B6806
:100700009A807B681A687B695B00194603238B40DB
:10071000DB431A407B681A607B681A683B681B7968
:1007200019467B695B0001FA03F31A437B681A6080
:100730007B68DA687B699BB25B00032101FA03F3F3
:10074000DB431A407B68DA607B68DA683B68DB79F8
:1007500019467B695B0001FA03F31A437B68DA6090
:100760007B6901337B617B690F2B7FF67FAF1C3781
:10077000BD465DF8047B704780B485B000AF7860FB
:100780000B467B8013467B700023FB600023BB601D
:100790007B787A8802F0070292009340FB607B88A6
:1007A000DB089BB218467B88DB089BB21A467B6845
:1007B000083253F822207B8803F007039B00194678
:1007C0000F238B40DB4302EA03017B6800F1080240
:1007D00043F822107B88DB089BB21A467B680832FC
:1007E00053F82220FB681343BB607B88DB089BB275
:1007F0001A467B680832B96843F822101437BD46A0
:100800005DF8047B704700BF80B582B000AF4FF445
:1008100000300121FFF7C2FE4FF480200121FFF7D5
:10082000BDFE4FF400200121FFF7B8FE4FF4801009
:100830000121FFF7B3FE344805210722FFF79CFF93
:10084000314804210722FFF797FF3048082104228E
:10085000FFF792FF2D4809210422FFF78DFF2C4856
:100860000D210222FFF788FF29480F210222FFF7FE
:1008700083FF254806210222FFF77EFF24480E2130
:100880000222FFF779FF30233B6002233B710323F1
:100890007B710023BB710123FB713B461A4819464B
:1008A000FFF7D6FE4FF460433B6002233B71032306
:1008B0007B710023BB710123FB713B461448194631
:1008C000FFF7C6FE40233B6002233B7103237B718D
:1008D0000023BB710123FB713B460B481946FFF710
:1008E000B7FE4FF440733B6002233B7103237B71DF
:1008F0000023BB710123FB713B4604481946FFF7F7
:10090000A7FE0837BD4680BD000800480004004827
:10091000000C004880B586B000AF4FF48040012144
:10092000FFF75AFE4FF416533B6000237B60002311
:10093000BB600023FB6000237B610C233B613B46D3
:100940000548194600F00AFE0348012100F0C0FEE8
:100950001837BD4680BD00BF0038014080B588B063
:1009600000AF4FF400100121FFF754FE0023BB61DC
:100970000023FB6100237B610023BB600023FB603D
:1009800000233B61064B7B603B1D0648194600F087
:100990005DF80448012100F0BDF82037BD4680BD58
:1009A000FFC010F00054004080B5ADF5507D00AFA1
:1009B000FFF72AFFFFF7AEFFFFF7D0FF0023C7F8CE
:1009C0003C3300F039F9034687F83B3339E007F54B
:1009D0004D7107F54C7207F54B73084611461A46E0
:1009E00000F0A8FA034687F83B3307F54A7107F58C
:1009F000497207F54873084611461A4600F010FB85
:100A0000034687F83B33D7F83433184601F050F9E2
:100A1000034699B207F5C873D7F83C2323F81210A0
:100A2000D7F82833184601F043F9034699B23B46FC
:100A3000D7F83C2323F81210D7F83C330133C7F81A
:100A40003C33D7F83C33C72BC1DDBFE780B485B05A
:100A500000AF786039600023FB607B681B6823F07F
:100A600001027B681A607B681B68FB60FA68284B90
:100A70001340FB603B685A683B689B681B0213434A
:100A8000FA681343FB607B68FA681A603B681B686E
:100A900023F070627B681A617B681B6843F0010277
:100AA0007B681A600023FB607B68FA689A607B6849
:100AB000FA68DA603B689A693B681B691343FB601C
:100AC0007B68FA689A607B689B6843F400427B68A5
:100AD0009A603B68DB68FB607B681A68FB681A43B6
:100AE0007B681A607B685B68FB60FB6823F0784377
:100AF00023F40043FB603B685B69FA681343FB60C7
:100B00007B68FA685A601437BD465DF8047B70470D
:100B1000FFE0CF0080B483B000AF78600B46FB707D
:100B2000FB78002B06D07B681B6843F001027B68D2
:100B30001A6005E07B681B6823F001027B681A607D
:100B40000C37BD465DF8047B704700BF80B487B0AA
:100B500000AFF8607B600B467B8113467B720023FD
:100B60007B61FB685B687B617A690D4B13407B613D
:100B70007B89C3F309027B7A1B0403F47F031A43C6
:100B80007B681A433B6A13437A6913437B61FB68B2
:100B90007A695A601C37BD465DF8047B704700BF18
:100BA000009800FC80B483B000AF78600B46FB7007
:100BB000FA787B689A620C37BD465DF8047B704713
:100BC00080B483B000AF78607B685B6ADBB21846A4
:100BD0000C37BD465DF8047B704700BF80B485B01C
:100BE00000AF786039600023BB600023FB737B6833
:100BF0009B69BB60BA683B681340BB60BB68002B55
:100C000002D00123FB7301E00023FB73FB7B18463A
:100C10001437BD465DF8047B704700BF80B483B0D5
:100C200000AF786039607B683A68DA610C37BD469E
:100C30005DF8047B704700BF80B582B000AF012033
:100C400000F060F80346FB71FB79002B01D0FB79C3
:100C500014E0002000F016F80346FB71FB79002B2E
:100C600001D0FB790AE0002000F02CF80346FB716C
:100C7000FB79002B01D0FB7900E0002318460837F0
:100C8000BD4680BD80B584B000AF0346FB71FB79E3
:100C9000184600F0EFFD0246094B1A60FB1DD020FC
:100CA0001B211A4600F0E4FA0346FB73FB7B002B82
:100CB00001D0FB7B00E0002318461037BD4680BD05
:100CC0003000002080B584B000AF0346FB71FB7993
:100CD000184600F0CFFD0246094B5A60FB1DD0209C
:100CE0001C211A4600F0C4FA0346FB73FB7B002B61
:100CF00001D0FB7B00E0002318461037BD4680BDC5
:100D00003000002080B584B000AF0346FB71FB1DAE
:100D1000D0206B211A4600F0ABFA0346FB73FB7B35
:100D2000002B01D0FB7B00E0002318461037BD46A6
:100D300080BD00BF80B586B000AFF860B9607A6052
:100D400007F11603D02044211A46012300F0DAF9F6
:100D50000346FB75FB7D002B01D0FB7D66E007F1B0
:100D60001503D02043211A46012300F0CBF9034696
:100D7000FB75FB7D002B01D0FB7D57E007F11403D1
:100D8000D02046211A46012300F0BCF90346FB752A
:100D9000FB7D002B01D0FB7D48E007F11303D02041
:100DA00045211A46012300F0ADF90346FB75FB7D92
:100DB000002B01D0FB7D39E007F11203D020482140
:100DC0001A46012300F09EF90346FB75FB7D002BBC
:100DD00001D0FB7D2AE007F11103D02047211A46FC
:100DE000012300F08FF90346FB75FB7D002B01D03A
:100DF000FB7D1BE07B7D1B029AB2BB7D9BB2134344
:100E00009AB2FB681A80FB7C1B029AB23B7D9BB2B4
:100E100013439AB2BB681A807B7C1B029AB2BB7CDC
:100E20009BB213439AB27B681A8000231846183786
:100E3000BD4680BD80B586B000AFF860B9607A600D
:100E400007F11603D0203C211A46012300F05AF97D
:100E50000346FB75FB7D002B01D0FB7D66E007F1AF
:100E60001503D0203B211A46012300F04BF903461D
:100E7000FB75FB7D002B01D0FB7D57E007F11403D0
:100E8000D0203E211A46012300F03CF90346FB75B1
:100E9000FB7D002B01D0FB7D48E007F11303D02040
:100EA0003D211A46012300F02DF90346FB75FB7D19
:100EB000002B01D0FB7D39E007F11203D020402147
:100EC0001A46012300F01EF90346FB75FB7D002B3B
:100ED00001D0FB7D2AE007F11103D0203F211A4603
:100EE000012300F00FF90346FB75FB7D002B01D0B9
:100EF000FB7D1BE07B7D1B029AB2BB7D9BB2134343
:100F00009AB2FB681A80FB7C1B029AB23B7D9BB2B3
:100F100013439AB2BB681A807B7C1B029AB2BB7CDB
:100F20009BB213439AB27B681A8000231846183785
:100F3000BD4680BD80B588B000AFF860B9607A600A
:100F400007F1180107F1160207F1140308461146CC
:100F50001A46FFF7EFFE0346FB762C4B1B6818463C
:100F60004FF0000100F072FE0346002B02D0284B28
:100F7000FB611BE0254B1B6818464FF0824100F0D7
:100F800065FE0346002B02D0224BFB610EE01F4B97
:100F90001B6818464FF0834100F058FE0346002BB3
:100FA00002D01D4BFB6101E01C4BFB613B8B1BB274
:100FB000184600F063FC03461846F96900F0B2FCDD
:100FC00003461A46FB681A60FB8A1BB2184600F0FB
:100FD00055FC03461846F96900F0A4FC03461A467E
:100FE000BB681A60BB8A1BB2184600F047FC034678
:100FF0001846F96900F096FC03461A467B681A60A9
:10100000002318462037BD4680BD00BF30000020B9
:101010002D23FA3B2D237A3C90C1F93C90C1793DB8
:1010200080B588B000AFF860B9607A6007F1180148
:1010300007F1160207F11403084611461A46FFF796
:10104000F9FE0346FB762E4B5B6818464FF0000115
:1010500000F0FCFD0346002B03D04FF06253FB6110
:101060001EE0274B5B6818464FF0000100F0EEFDD4
:101070000346002B03D04FF06453FB6110E0204B7C
:101080005B6818464FF0000100F0E0FD0346002BBE
:1010900003D04FF06653FB6102E04FF06853FB61F1
:1010A0003B8B1BB2184600F0E9FB03461846F96972
:1010B00000F038FC03461A46FB681A60FB8A1BB234
:1010C000184600F0DBFB03461846F96900F02AFCDD
:1010D00003461A46BB681A60BB8A1BB2184600F06A
:1010E000CDFB03461846F96900F01CFC03461A467E
:1010F0007B681A60002318462037BD4680BD00BFBC
:101100003000002080B584B002AF3A601A46034632
:10111000FB710B46BB711346BB80534B4FF420420F
:101120001A6008E0504B1B685A1E4F490A60002B9A
:1011300001D1012394E04D484FF40041FFF74EFDEB
:101140000346002BEED1FB799AB24FF40053009383
:101150004648114601220023FFF7F8FC424B4FF4AA
:1011600020421A6008E0404B1B685A1E3E490A6044
:10117000002B01D1012373E03C480221FFF72EFD33
:101180000346002BEFD0BB88012B03D9BB7963F05A
:101190007F03BB71BB7935481946FFF703FD324B1E
:1011A0004FF420421A6008E02F4B1B685A1E2E494C
:1011B0000A60002B01D1022352E02C484021FFF7A6
:1011C0000DFD0346002BEFD0FB7999B2BB88DAB254
:1011D0004FF41053009325484FF00073FFF7B6FC0F
:1011E00021E0214B4FF420421A6008E01E4B1B689F
:1011F0005A1E1D490A60002B01D1032330E01B4811
:101200000421FFF7EBFC0346002BEFD01748FFF754
:10121000D7FC03461A463B681A703B6801333B60B3
:10122000BB88013BBB80BB88002BDAD10E4B4FF44F
:1012300020421A6008E00C4B1B685A1E0A490A60DB
:10124000002B01D101230BE008482021FFF7C6FC49
:101250000346002BEFD005482021FFF7DFFC0023D9
:1012600018460837BD4680BD2C00002000540040C1
:1012700080B584B002AF03463A60FB710B46BB7188
:101280004A4B4FF420421A6008E0484B1B685A1E34
:1012900046490A60002B01D1012382E044484FF403
:1012A0000041FFF79BFC0346002BEED1FB799AB27D
:1012B0004FF4005300933E48114601224FF08073D3
:1012C000FFF744FC394B4FF420421A6008E0374BDB
:1012D0001B685A1E35490A60002B01D1012360E0CA
:1012E00033480221FFF77AFC0346002BEFD0BB798D
:1012F0002F481946FFF756FC2C4B4FF420421A603A
:1013000008E02A4B1B685A1E28490A60002B01D1AD
:10131000012346E026488021FFF760FC0346002BAE
:10132000EFD0FB799AB200230093214811460122A5
:101330004FF00073FFF70AFC1C4B4FF420421A6079
:1013400008E01A4B1B685A1E18490A60002B01D18D
:10135000012326E016480221FFF740FC0346002B3C
:10136000EFD03B681B7812481946FFF71BFC0F4B68
:101370004FF420421A6008E00C4B1B685A1E0B49C0
:101380000A60002B01D101230BE009482021FFF75F
:1013900025FC0346002BEFD005482021FFF73EFC3B
:1013A000002318460837BD4680BD00BF2C00002032
:1013B0000054004080B500AF1A4A1A4B1B6843F036
:1013C000010313601749174B5A68174B13404B60C2
:1013D000144A144B1B6823F0847323F48033136086
:1013E000104A104B1B6823F4802313600D4A0D4BE9
:1013F0005B6823F4FE0353600A4A0A4BDB6A23F05E
:101400000F03D3620749074B1A6B084B13400B635A
:10141000044B00229A6000F00DF8054B4FF000627B
:101420009A6080BD001002400CC07FF8CCFC00FF29
:1014300000ED00E080B483B000AF00237B600023A8
:101440003B60324A314B1B6843F4803313602F4BAF
:101450001B6803F400333B607B6801337B603B68AF
:10146000002B03D17B68B3F5A06FF0D1274B1B682D
:1014700003F40033002B02D001233B6001E0002382
:101480003B603B68012B3CD1214B12221A601F4A62
:101490001E4B5B6853601D4A1C4B5B6853601B4AC4
:1014A0001A4B5B6843F480635360184A174B5B68C0
:1014B00023F47C135360154A144B5B6843F4E81320
:1014C0005360124A114B1B6843F08073136000BFD6
:1014D0000E4B1B6803F00073002BF9D00B4A0B4B2B
:1014E0005B6823F003035360084A084B5B6843F0D2
:1014F0000203536000BF054B5B6803F00C03082B2D
:10150000F9D10C37BD465DF8047B704700100240EE
:1015100000200240002103E00A4B5B584350043195
:1015200009480A4B42189A42F6D3094A02E00023BE
:1015300042F8043B074B9A42F9D3FFF73BFFFFF712
:1015400033FA7047FC1C0008000000203000002027
:101550003000002038000020FEE7000080B594B085
:1015600000AF786039600023FB640023BB64002374
:101570007B647B681B6823F001027B681A607B68D0
:101580005B687B647B6C23F440537B643B689B68A3
:101590007A6C13437B647B687A6C5A607B681B6847
:1015A0007B647B6C23F4B05323F00C037B643B68B7
:1015B0005A683B68DB681A433B681B6913437A6CC3
:1015C00013437B647B687A6C1A607B689B687B64DE
:1015D0007B6C23F440737B643B685B697A6C1343D8
:1015E0007B647B687A6C9A6007F108031846FEF703
:1015F000CBFD7B68324A934202D13B6BBB6416E061
:101600007B68304A934202D17B6BBB640FE07B68FE
:101610002D4A934202D1BB6BBB6408E07B682B4A26
:10162000934202D1FB6BBB6401E03B6CBB647B6803
:101630001B6803F40043002B11D0BB6C5A003B68BD
:101640001B68B2FBF3F3FB64BB6C5B003A68126887
:10165000B3FBF2F102FB01F29B1A7B640EE03B68E4
:101660001B68BA6CB2FBF3F3FB643B681A68BB6C93
:10167000B3FBF2F102FB01F29B1A7B643B681B682F
:101680005A087B6C9A4202D8FB6C0133FB647B687E
:101690001B6803F40043002B0BD0FB6C03F00F031B
:1016A0005B087B64FA6C4FF6F07313407A6C13435B
:1016B000FB64FB6C9AB27B689A815037BD4680BD53
:1016C000003801400044004000480040004C004009
:1016D00080B483B000AF78600B46FB70FB78002BC2
:1016E00006D07B681B6843F001027B681A6005E046
:1016F0007B681B6823F001027B681A600C37BD46CB
:101700005DF8047B704700BF80F0004002E000BF3E
:1017100081F0004142001FBF5FEA410392EA030FDC
:101720007FEA226C7FEA236C6AD04FEA1262D2EB26
:101730001363C1BFD218414048404140B8BF5B422B
:10174000192B88BF704710F0004F40F4000020F0C4
:101750007F4018BF404211F0004F41F4000121F0DA
:101760007F4118BF494292EA030F3FD0A2F1010224
:1017700041FA03FC10EB0C00C3F1200301FA03F162
:1017800000F0004302D5494260EB4000B0F5000F85
:1017900013D3B0F1807F06D340084FEA310102F144
:1017A0000102FE2A51D2B1F1004F40EBC25008BFF6
:1017B00020F0010040EA03007047490040EB0000C0
:1017C00010F4000FA2F10102EDD1B0FA80FCACF1EF
:1017D000080CB2EB0C0200FA0CF0AABF00EBC250EE
:1017E00052421843BCBFD0401843704792F0000FDC
:1017F00081F4000106BF80F400000132013BB5E72F
:101800004FEA41037FEA226C18BF7FEA236C21D0A4
:1018100092EA030F04D092F0000F08BF0846704709
:1018200090EA010F1CBF0020704712F07F4F04D1D7
:10183000400028BF40F00040704712F100723CBFEA
:1018400000F50000704700F0004343F0FE4040F414
:10185000000070477FEA226216BF08467FEA2363D2
:101860000146420206BF5FEA412390EA010F40F4BD
:10187000800070474FF0000304E000BF10F0004309
:1018800048BF40425FEA000C08BF704743F09643F0
:1018900001464FF000001CE050EA010208BF70470B
:1018A0004FF000030AE000BF50EA010208BF704792
:1018B00011F0004302D5404261EB41015FEA010CA7
:1018C00002BF84460146002043F0B64308BFA3F19F
:1018D0008053A3F50003BCFA8CF2083AA3EBC25381
:1018E00010DB01FA02FC634400FA02FCC2F12002A0
:1018F000BCF1004F20FA02F243EB020008BF20F0D7
:101900000100704702F1200201FA02FCC2F120023C
:1019100050EA4C0021FA02F243EB020008BF20EA31
:10192000DC7070474FF0FF0C1CEAD0521EBF1CEA5F
:10193000D15392EA0C0F93EA0C0F6FD01A4480EA4D
:10194000010C400218BF5FEA41211ED04FF0006336
:1019500043EA501043EA5111A0FB01310CF0004062
:10196000B1F5000F3EBF490041EAD3715B0040EA88
:10197000010062F17F02FD2A1DD8B3F1004F40EB58
:10198000C25008BF20F00100704790F0000F0CF02B
:10199000004C08BF49024CEA502040EA51207F3AEF
:1019A000C2BFD2F1FF0340EAC250704740F40000CA
:1019B0004FF00003013A5DDC12F1190FDCBF00F0BB
:1019C00000407047C2F10002410021FA02F1C2F169
:1019D000200200FA02FC5FEA310040F1000053EA05
:1019E0004C0308BF20EADC70704792F0000F00F053
:1019F000004C02BF400010F4000F013AF9D040EA59
:101A00000C0093F0000F01F0004C02BF490011F4EC
:101A1000000F013BF9D041EA0C018FE70CEAD153EA
:101A200092EA0C0F18BF93EA0C0F0AD030F0004C6A
:101A300018BF31F0004CD8D180EA010000F000401E
:101A4000704790F0000F17BF90F0004F084691F0DC
:101A5000000F91F0004F14D092EA0C0F01D1420216
:101A60000FD193EA0C0F03D14B0218BF084608D1DF
:101A700080EA010000F0004040F0FE4040F4000029
:101A8000704740F0FE4040F4400070474FF0FF0CBC
:101A90001CEAD0521EBF1CEAD15392EA0C0F93EA03
:101AA0000C0F69D0A2EB030280EA010C49024FEA55
:101AB000402037D04FF0805343EA111143EA10130E
:101AC0000CF000408B4238BF5B0042F17D024FF4C6
:101AD000000C8B4224BF5B1A40EA0C00B3EB510FA1
:101AE00024BFA3EB510340EA5C00B3EB910F24BF8A
:101AF000A3EB910340EA9C00B3EBD10F24BFA3EB0F
:101B0000D10340EADC001B0118BF5FEA1C1CE0D1D6
:101B1000FD2A3FF650AF8B4240EBC25008BF20F089
:101B2000010070470CF0004C4CEA50207F32C2BFDD
:101B3000D2F1FF0340EAC250704740F400004FF07A
:101B40000003013A37E792F0000F00F0004C02BFAB
:101B5000400010F4000F013AF9D040EA0C0093F075
:101B6000000F01F0004C02BF490011F4000F013BCF
:101B7000F9D041EA0C0195E70CEAD15392EA0C0F37
:101B800008D142027FF47DAF93EA0C0F7FF470AF6F
:101B9000084676E793EA0C0F04D14B023FF44CAFB2
:101BA00008466EE730F0004C18BF31F0004CCAD147
:101BB00030F000427FF45CAF31F000437FF43CAF83
:101BC0005FE700BF4FF0FF3C06E000BF4FF0010CA5
:101BD00002E000BF4FF0010C4DF804CD4FEA400287
:101BE0004FEA41037FEA226C18BF7FEA236C11D0D1
:101BF00001B052EA530C18BF90EA010F58BFB2EB84
:101C0000030088BFC81738BF6FEAE17018BF40F003
:101C1000010070477FEA226C02D15FEA402C05D1B7
:101C20007FEA236CE4D15FEA412CE1D05DF8040B3C
:101C3000704700BF844608466146FFE70FB5FFF7CF
:101C4000C9FF002848BF10F1000F0FBD4DF808ED87
:101C5000FFF7F4FF0CBF012000205DF808FB00BF78
:101C60004DF808EDFFF7EAFF34BF012000205DF8D2
:101C700008FB00BF4DF808EDFFF7E0FF94BF01201F
:101C800000205DF808FB00BF4DF808EDFFF7D2FF1C
:101C900094BF012000205DF808FB00BF4DF808ED5F
:101CA000FFF7C8FF34BF012000205DF808FB00BF2C
:101CB0004FEA4002B2F1FE4F0FD34FF09E03B3EB59
:101CC00012620DD94FEA002343F0004310F0004F99
:101CD00023FA02F018BF404270474FF000007047EF
:101CE00012F1610F01D1420205D110F0004008BF8E
:0C1CF0006FF0004070474FF0000070479C
:101CFC0000000000010203040102030406070809A6
:101D0C000000010002000400060008000A000C009C
:101D1C0010002000400080000001000000100000B6
:0400000508000000EF
:00000001FF
