:020000040800F2
:1000000000A00020311100087511000875110008CA
:100010007511000875110008751100080000000036
:100020000000000000000000000000007511000842
:100030007511000800000000751100087511000816
:100040007511000875110008751100087511000878
:100050007511000875110008751100087511000868
:100060007511000875110008751100087511000858
:100070007511000875110008751100087511000848
:100080007511000875110008751100087511000838
:100090007511000875110008751100087511000828
:1000A0007511000875110008751100087511000818
:1000B0007511000875110008751100087511000808
:1000C00075110008751100087511000875110008F8
:1000D00075110008751100087511000875110008E8
:1000E00075110008751100087511000875110008D8
:1000F00075110008751100087511000875110008C8
:100100000000000000000000000000007511000861
:1001100075110008751100087511000875110008A7
:100120007511000875110008751100087511000897
:1001300075110008751100080000000000000000A3
:100140007511000875110008751100080000000005
:10015000000000000000000000000000000000009F
:100160000000000000000000751100087511000873
:1001700075110008000000000000000000000000F1
:10018000000000007511000880B483B000AF7860F3
:100190000B46FB70FB78002B06D00949084B5A69C7
:1001A0007B6813434B6106E00549054B5A697B6840
:1001B000DB4313404B610C37BD465DF8047B704751
:1001C0000010024080B483B000AF78600B46FB7033
:1001D000FB78002B06D00949084BDA697B6813438A
:1001E000CB6106E00549054BDA697B68DB431340C8
:1001F000CB610C37BD465DF8047B704700100240B0
:1002000080B487B000AF7860396000237B61002341
:100210003B610023FB6000237B617CE07B69012262
:1002200002FA03F33B613B681A683B691340FB60C9
:10023000FA683B699A426BD13B681B79012B03D06A
:100240003B681B79022B34D17B689A687B695B0021
:10025000194603238B40DB431A407B689A607B6816
:100260009A683B685B7919467B695B0001FA03F386
:100270001A437B689A607B689B889AB27B699BB2C1
:10028000194601238B409BB2DB439BB213409AB2C9
:100290007B689A807B689B889AB23B689B791946F9
:1002A0007B699BB201FA03F39BB213439AB27B685A
:1002B0009A807B681A687B695B00194603238B4030
:1002C000DB431A407B681A607B681A683B681B79BD
:1002D00019467B695B0001FA03F31A437B681A60D5
:1002E0007B68DA687B699BB25B00032101FA03F348
:1002F000DB431A407B68DA607B68DA683B68DB794D
:1003000019467B695B0001FA03F31A437B68DA60E4
:100310007B6901337B617B690F2B7FF67FAF1C37D5
:10032000BD465DF8047B704780B485B000AF78604F
:100330000B467B8013467B700023FB600023BB6071
:100340007B787A8802F0070292009340FB607B88FA
:10035000DB089BB218467B88DB089BB21A467B6899
:10036000083253F822207B8803F007039B001946CC
:100370000F238B40DB4302EA03017B6800F1080294
:1003800043F822107B88DB089BB21A467B68083250
:1003900053F82220FB681343BB607B88DB089BB2C9
:1003A0001A467B680832B96843F822101437BD46F4
:1003B0005DF8047B704700BF80B582B000AF4FF49A
:1003C00000300121FFF7E0FE4FF480200121FFF70C
:1003D000DBFE4FF400200121FFF7D6FE4FF4801022
:1003E0000121FFF7D1FE344805210722FFF79CFFCA
:1003F000314804210722FFF797FF304808210422E3
:10040000FFF792FF2D4809210422FFF78DFF2C48AA
:100410000D210222FFF788FF29480F210222FFF752
:1004200083FF254806210222FFF77EFF24480E2184
:100430000222FFF779FF30233B6002233B71032345
:100440007B710023BB710123FB713B461A4819469F
:10045000FFF7D6FE4FF460433B6002233B7103235A
:100460007B710023BB710123FB713B461448194685
:10047000FFF7C6FE40233B6002233B7103237B71E1
:100480000023BB710123FB713B460B481946FFF764
:10049000B7FE4FF440733B6002233B7103237B7133
:1004A0000023BB710123FB713B4604481946FFF74B
:1004B000A7FE0837BD4680BD00080048000400487C
:1004C000000C004880B588B000AF4FF40010012147
:1004D000FFF778FE0023BB610023FB6100237B61F3
:1004E0000023BB600023FB6000233B61064B7B6065
:1004F0003B1D0648194600F0B7F80448012100F0FA
:1005000017F92037BD4680BDFFC010F000540040F1
:1005100080B5ADF5527D00AFFFF74EFFFFF7D2FF7C
:100520000023C7F8443300F095F9034687F84333B6
:100530008DE007F54D7107F54C7207F54B730846D2
:1005400011461A4600F004FB034687F8433307F5CB
:100550004A7107F5497207F54873084611461A466D
:1005600000F06CFB034687F84333D7F83433184662
:100570003A4901F051FB0346184600F061FF02467C
:100580000B46104619464FF00002354B00F0FAFDBD
:1005900002460B461046194601F0B8F903461846C4
:1005A00000F03CFF02460B46104619464FF0000291
:1005B0002C4B01F0C3F802460B461046194601F0D9
:1005C000CDF90346C7F83C33D7F8283318462349FA
:1005D00001F022FB0346184600F032FF02460B46AC
:1005E000104619464FF000021D4B00F0CBFD0246AD
:1005F0000B461046194601F089F90346184600F0EB
:100600000DFF02460B46104619464FF00002154BEF
:1006100001F094F802460B461046194601F09EF987
:100620000346C7F8383307F5C873D7F84423D7F81B
:100630003C1343F822103B46D7F84423D7F838132D
:1006400043F82210D7F844330133C7F84433D7F8BE
:100650004433632B7FF76DAF6AE700BF00007A4435
:100660000000E03F00408F4080B485B000AF78606C
:1006700039600023FB607B681B6823F001027B6804
:100680001A607B681B68FB60FA68284B1340FB60AC
:100690003B685A683B689B681B021343FA68134324
:1006A000FB607B68FA681A603B681B6823F0706225
:1006B0007B681A617B681B6843F001027B681A60E3
:1006C0000023FB607B68FA689A607B68FA68DA60EE
:1006D0003B689A693B681B691343FB607B68FA6857
:1006E0009A607B689B6843F400427B689A603B6831
:1006F000DB68FB607B681A68FB681A437B681A60DA
:100700007B685B68FB60FB6823F0784323F400435D
:10071000FB603B685B69FA681343FB607B68FA68BF
:100720005A601437BD465DF8047B7047FFE0CF0088
:1007300080B483B000AF78600B46FB70FB78002B71
:1007400006D07B681B6843F001027B681A6005E0F5
:100750007B681B6823F001027B681A600C37BD467A
:100760005DF8047B704700BF80B487B000AFF860CD
:100770007B600B467B8113467B7200237B61FB68A9
:100780005B687B617A690D4B13407B617B89C3F3A6
:1007900009027B7A1B0403F47F031A437B681A4324
:1007A0003B6A13437A6913437B61FB687A695A6039
:1007B0001C37BD465DF8047B704700BF009800FC05
:1007C00080B483B000AF78600B46FB70FA787B682A
:1007D0009A620C37BD465DF8047B704780B483B0E5
:1007E00000AF78607B685B6ADBB218460C37BD46A9
:1007F0005DF8047B704700BF80B485B000AF7860BF
:1008000039600023BB600023FB737B689B69BB607E
:10081000BA683B681340BB60BB68002B02D0012361
:10082000FB7301E00023FB73FB7B18461437BD46C6
:100830005DF8047B704700BF80B483B000AF786080
:1008400039607B683A68DA610C37BD465DF8047B35
:10085000704700BF80B582B000AF012000F060F8A3
:100860000346FB71FB79002B01D0FB7914E00020DB
:1008700000F016F80346FB71FB79002B01D0FB79E1
:100880000AE0002000F02CF80346FB71FB79002BF6
:1008900001D0FB7900E0002318460837BD4680BD33
:1008A00080B584B000AF0346FB71FB79184601F0B8
:1008B0005BF90246094B1A60FB1DD0201B211A462A
:1008C00000F0E4FA0346FB73FB7B002B01D0FB7BBB
:1008D00000E0002318461037BD4680BD040000200C
:1008E00080B584B000AF0346FB71FB79184601F078
:1008F0003BF90246094B5A60FB1DD0201C211A46C9
:1009000000F0C4FA0346FB73FB7B002B01D0FB7B9A
:1009100000E0002318461037BD4680BD04000020CB
:1009200080B584B000AF0346FB71FB1DD0206B2166
:100930001A4600F0ABFA0346FB73FB7B002B01D099
:10094000FB7B00E0002318461037BD4680BD00BF8A
:1009500080B586B000AFF860B9607A6007F1160321
:10096000D02044211A46012300F0DAF90346FB7532
:10097000FB7D002B01D0FB7D66E007F11503D02045
:1009800043211A46012300F0CBF90346FB75FB7D9A
:10099000002B01D0FB7D57E007F11403D020462146
:1009A0001A46012300F0BCF90346FB75FB7D002BC2
:1009B00001D0FB7D48E007F11303D02045211A4602
:1009C000012300F0ADF90346FB75FB7D002B01D040
:1009D000FB7D39E007F11203D02048211A4601239C
:1009E00000F09EF90346FB75FB7D002B01D0FB7DDB
:1009F0002AE007F11103D02047211A46012300F015
:100A00008FF90346FB75FB7D002B01D0FB7D1BE0BE
:100A10007B7D1B029AB2BB7D9BB213439AB2FB68EB
:100A20001A80FB7C1B029AB23B7D9BB213439AB2A5
:100A3000BB681A807B7C1B029AB2BB7C9BB21343BF
:100A40009AB27B681A80002318461837BD4680BDCD
:100A500080B586B000AFF860B9607A6007F1160320
:100A6000D0203C211A46012300F05AF90346FB75B9
:100A7000FB7D002B01D0FB7D66E007F11503D02044
:100A80003B211A46012300F04BF90346FB75FB7D21
:100A9000002B01D0FB7D57E007F11403D0203E214D
:100AA0001A46012300F03CF90346FB75FB7D002B41
:100AB00001D0FB7D48E007F11303D0203D211A4609
:100AC000012300F02DF90346FB75FB7D002B01D0BF
:100AD000FB7D39E007F11203D02040211A460123A3
:100AE00000F01EF90346FB75FB7D002B01D0FB7D5A
:100AF0002AE007F11103D0203F211A46012300F01C
:100B00000FF90346FB75FB7D002B01D0FB7D1BE03D
:100B10007B7D1B029AB2BB7D9BB213439AB2FB68EA
:100B20001A80FB7C1B029AB23B7D9BB213439AB2A4
:100B3000BB681A807B7C1B029AB2BB7C9BB21343BE
:100B40009AB27B681A80002318461837BD4680BDCC
:100B500080B588B000AFF860B9607A6007F118011D
:100B600007F1160207F11403084611461A46FFF76B
:100B7000EFFE0346FB762C4B1B6818464FF0000136
:100B800001F0DEF90346002B02D0284BFB611BE08D
:100B9000254B1B6818464FF0824101F0D1F90346FE
:100BA000002B02D0224BFB610EE01F4B1B68184646
:100BB0004FF0834101F0C4F90346002B02D01D4BD6
:100BC000FB6101E01C4BFB613B8B1BB2184600F044
:100BD000CFFF03461846F96901F01EF803461A468E
:100BE000FB681A60FB8A1BB2184600F0C1FF03467F
:100BF0001846F96901F010F803461A46BB681A60F6
:100C0000BB8A1BB2184600F0B3FF03461846F969C9
:100C100001F002F803461A467B681A600023184662
:100C20002037BD4680BD00BF040000202D23FA3BC5
:100C30002D237A3C90C1F93C90C1793D80B588B0B4
:100C400000AFF860B9607A6007F1180107F1160289
:100C500007F11403084611461A46FFF7F9FE03464A
:100C6000FB762E4B5B6818464FF0000101F068F9E7
:100C70000346002B03D04FF06253FB611EE0274B6D
:100C80005B6818464FF0000101F05AF90346002B4B
:100C900003D04FF06453FB6110E0204B5B681846B3
:100CA0004FF0000101F04CF90346002B03D04FF048
:100CB0006653FB6102E04FF06853FB613B8B1BB254
:100CC000184600F055FF03461846F96900F0A4FFE6
:100CD00003461A46FB681A60FB8A1BB2184600F0EE
:100CE00047FF03461846F96900F096FF03461A4687
:100CF000BB681A60BB8A1BB2184600F039FF034676
:100D00001846F96900F088FF03461A467B681A60A6
:100D1000002318462037BD4680BD00BF04000020D8
:100D200080B584B002AF3A601A460346FB710B46A9
:100D3000BB711346BB80534B4FF420421A6008E04E
:100D4000504B1B685A1E4F490A60002B01D10123EA
:100D500094E04D484FF40041FFF74EFD0346002B51
:100D6000EED1FB799AB24FF40053009346481146F6
:100D700001220023FFF7F8FC424B4FF420421A6097
:100D800008E0404B1B685A1E3E490A60002B01D107
:100D9000012373E03C480221FFF72EFD0346002BA0
:100DA000EFD0BB88012B03D9BB7963F07F03BB7104
:100DB000BB7935481946FFF703FD324B4FF420420B
:100DC0001A6008E02F4B1B685A1E2E490A60002B40
:100DD00001D1022352E02C484021FFF70DFD0346CC
:100DE000002BEFD0FB7999B2BB88DAB24FF41053E5
:100DF000009325484FF00073FFF7B6FC21E0214B2C
:100E00004FF420421A6008E01E4B1B685A1E1D4911
:100E10000A60002B01D1032330E01B480421FFF7B7
:100E2000EBFC0346002BEFD01748FFF7D7FC034637
:100E30001A463B681A703B6801333B60BB88013B34
:100E4000BB80BB88002BDAD10E4B4FF420421A60D6
:100E500008E00C4B1B685A1E0A490A60002B01D19E
:100E600001230BE008482021FFF7C6FC0346002BB6
:100E7000EFD005482021FFF7DFFC00231846083794
:100E8000BD4680BD000000200054004080B584B005
:100E900002AF03463A60FB710B46BB714A4B4FF4FD
:100EA00020421A6008E0484B1B685A1E46490A60F7
:100EB000002B01D1012382E044484FF40041FFF7A9
:100EC0009BFC0346002BEED1FB799AB24FF4005302
:100ED00000933E48114601224FF08073FFF744FC17
:100EE000394B4FF420421A6008E0374B1B685A1EFA
:100EF00035490A60002B01D1012360E0334802210B
:100F0000FFF77AFC0346002BEFD0BB792F48194638
:100F1000FFF756FC2C4B4FF420421A6008E02A4B96
:100F20001B685A1E28490A60002B01D1012346E0A4
:100F300026488021FFF760FC0346002BEFD0FB79A9
:100F40009AB2002300932148114601224FF000730A
:100F5000FFF70AFC1C4B4FF420421A6008E01A4BC2
:100F60001B685A1E18490A60002B01D1012326E094
:100F700016480221FFF740FC0346002BEFD03B68E8
:100F80001B7812481946FFF71BFC0F4B4FF4204209
:100F90001A6008E00C4B1B685A1E0B490A60002BB4
:100FA00001D101230BE009482021FFF725FC03466E
:100FB000002BEFD005482021FFF73EFC0023184608
:100FC0000837BD4680BD00BF00000020005400402F
:100FD00080B500AF1A4A1A4B1B6843F00103136037
:100FE0001749174B5A68174B13404B60144A144B60
:100FF0001B6823F0847323F480331360104A104B72
:101000001B6823F4802313600D4A0D4B5B6823F4A7
:10101000FE0353600A4A0A4BDB6A23F00F03D362D4
:101020000749074B1A6B084B13400B63044B002214
:101030009A6000F00DF8054B4FF000629A6080BD99
:10104000001002400CC07FF8CCFC00FF00ED00E077
:1010500080B483B000AF00237B6000233B60324A42
:10106000314B1B6843F4803313602F4B1B6803F430
:1010700000333B607B6801337B603B68002B03D10E
:101080007B68B3F5A06FF0D1274B1B6803F40033E6
:10109000002B02D001233B6001E000233B603B6852
:1010A000012B3CD1214B12221A601F4A1E4B5B6858
:1010B00053601D4A1C4B5B6853601B4A1A4B5B68AC
:1010C00043F480635360184A174B5B6823F47C1326
:1010D0005360154A144B5B6843F4E8135360124A9B
:1010E000114B1B6843F08073136000BF0E4B1B68ED
:1010F00003F00073002BF9D00B4A0B4B5B6823F015
:1011000003035360084A084B5B6843F002035360D3
:1011100000BF054B5B6803F00C03082BF9D10C37BB
:10112000BD465DF8047B704700100240002002407D
:10113000002103E00A4B5B584350043109480A4B35
:1011400042189A42F6D3094A02E0002342F8043BCF
:10115000074B9A42F9D3FFF73BFFFFF7D9F97047E6
:10116000A41F00080000002004000020040000204C
:101170000C000020FEE7000081F0004102E000BF0B
:1011800083F0004330B54FEA41044FEA430594EA47
:10119000050F08BF90EA020F1FBF54EA000C55EA82
:1011A000020C7FEA645C7FEA655C00F0E2804FEA53
:1011B0005454D4EB5555B8BF6D420CDD2C4480EA35
:1011C000020281EA030382EA000083EA010180EA65
:1011D000020281EA0303362D88BF30BD11F0004FB3
:1011E0004FEA01314FF4801C4CEA113102D04042E9
:1011F00061EB410113F0004F4FEA03334CEA133324
:1012000002D0524263EB430394EA050F00F0A7803B
:10121000A4F10104D5F1200E0DDB02FA0EFC22FA36
:1012200005F2801841F1000103FA0EF2801843FA2A
:1012300005F359410EE0A5F120050EF1200E012A1B
:1012400003FA0EFC28BF4CF0020C43FA05F3C01859
:1012500051EBE37101F0004507D54FF0000EDCF1D2
:10126000000C7EEB00006EEB0101B1F5801F1BD37B
:10127000B1F5001F0CD349085FEA30004FEA3C0C7F
:1012800004F101044FEA445212F5800F80F09A8075
:10129000BCF1004F08BF5FEA500C50F1000041EB79
:1012A000045141EA050130BD5FEA4C0C404141EB7D
:1012B000010111F4801FA4F10104E9D191F0000FA4
:1012C00004BF01460020B1FA81F308BF2033A3F127
:1012D0000B03B3F120020CDA0C3208DD02F1140C1E
:1012E000C2F10C0201FA0CF021FA02F10CE002F159
:1012F0001402D8BFC2F1200C01FA02F120FA0CFC52
:10130000DCBF41EA0C019040E41AA2BF01EB04519A
:10131000294330BD6FEA04041F3C1CDA0C340EDC98
:1013200004F11404C4F1200220FA04F001FA02F3DB
:1013300040EA030021FA04F345EA030130BDC4F199
:101340000C04C4F1200220FA02F001FA04F340EA8E
:101350000300294630BD21FA04F0294630BD94F03F
:10136000000F83F4801306BF81F480110134013D26
:101370004EE77FEA645C18BF7FEA655C29D094EA97
:10138000050F08BF90EA020F05D054EA000C04BF15
:101390001946104630BD91EA030F1EBF0021002000
:1013A00030BD5FEA545C05D14000494128BF41F09F
:1013B000004130BD14F580043CBF01F5801130BD03
:1013C00001F0004545F0FE4141F470014FF000008E
:1013D00030BD7FEA645C1ABF194610467FEA655C3F
:1013E0001CBF0B46024650EA013406BF52EA0335E1
:1013F00091EA030F41F4002130BD00BF90F0000FCF
:1014000004BF0021704730B54FF4806404F132040A
:101410004FF000054FF0000150E700BF90F0000FC3
:1014200004BF0021704730B54FF4806404F13204EA
:1014300010F0004548BF40424FF000013EE700BFBA
:1014400042004FEAE2014FEA31014FEA02701FBF4A
:1014500012F07F4393F07F4F81F06051704792F01C
:10146000000F14BF93F07F4F704730B54FF4607496
:1014700001F0004521F0004120E700BF50EA0102E1
:1014800008BF704730B54FF000050AE050EA01028E
:1014900008BF704730B511F0004502D5404261EBFE
:1014A00041014FF4806404F132045FEA915C3FF43F
:1014B000DCAE4FF003025FEADC0C18BF03325FEAD8
:1014C000DC0C18BF033202EBDC02C2F1200300FA8D
:1014D00003FC20FA02F001FA03FE40EA0E0021FAB2
:1014E00002F11444C1E600BF70B54FF0FF0C4CF49C
:1014F000E06C1CEA11541DBF1CEA135594EA0C0F52
:1015000095EA0C0F00F0DEF82C4481EA030621EA8C
:101510004C5123EA4C5350EA013518BF52EA0335C7
:1015200041F4801143F4801338D0A0FB02CE4FF079
:101530000005E1FB02E506F00042E0FB03E54FF0A9
:101540000006E1FB03569CF0000F18BF4EF0010EA1
:10155000A4F1FF04B6F5007F64F5407404D25FEA9D
:101560004E0E6D4146EB060642EAC62141EA555150
:101570004FEAC52040EA5E504FEACE2EB4F1FD0C92
:1015800088BFBCF5E06F1ED8BEF1004F08BF5FEA10
:10159000500E50F1000041EB045170BD06F00046C2
:1015A00046EA010140EA020081EA0301B4EB5C046F
:1015B000C2BFD4EB0C0541EA045170BD41F4801167
:1015C0004FF0000E013C00F3AB8014F1360FDEBF8C
:1015D000002001F0004170BDC4F10004203C35DA68
:1015E0000C341BDC04F11404C4F1200500FA05F3EB
:1015F00020FA04F001FA05F240EA020001F000428C
:1016000021F0004110EBD37021FA04F642EB060101
:101610005EEA430E08BF20EAD37070BDC4F10C042B
:10162000C4F1200500FA04F320FA05F001FA04F2EF
:1016300040EA020001F0004110EBD37041F10001DB
:101640005EEA430E08BF20EAD37070BDC4F12005E6
:1016500000FA05F24EEA020E20FA04F301FA05F24E
:1016600043EA020321FA04F001F0004121FA04F2F6
:1016700020EA020000EBD3705EEA430E08BF20EAC6
:10168000D37070BD94F0000F0FD101F00046400000
:1016900041EB010111F4801F08BF013CF7D041EA82
:1016A000060195F0000F18BF704703F00046520086
:1016B00043EB030313F4801F08BF013DF7D043EA57
:1016C0000603704794EA0C0F0CEA135518BF95EA0D
:1016D0000C0F0CD050EA410618BF52EA4306D1D194
:1016E00081EA030101F000414FF0000070BD50EAB3
:1016F000410606BF1046194652EA430619D094EA3D
:101700000C0F02D150EA013613D195EA0C0F05D126
:1017100052EA03361CBF104619460AD181EA03017A
:1017200001F0004141F0FE4141F470014FF0000032
:1017300070BD41F0FE4141F4780170BD70B54FF0CD
:10174000FF0C4CF4E06C1CEA11541DBF1CEA13554D
:1017500094EA0C0F95EA0C0F00F0A7F8A4EB05042F
:1017600081EA030E52EA03354FEA013100F0888026
:101770004FEA03334FF0805545EA131343EA1263EF
:101780004FEA022245EA111545EA10654FEA0026A4
:101790000EF000419D4208BF964244F1FD0404F55D
:1017A000407402D25B084FEA3202B61A65EB0305B9
:1017B0005B084FEA32024FF480104FF4002CB6EB76
:1017C000020E75EB030E22BFB61A754640EA0C00F6
:1017D0005B084FEA3202B6EB020E75EB030E22BF36
:1017E000B61A754640EA5C005B084FEA3202B6EB77
:1017F000020E75EB030E22BFB61A754640EA9C0036
:101800005B084FEA3202B6EB020E75EB030E22BF05
:10181000B61A754640EADC0055EA060E18D04FEAC3
:10182000051545EA16754FEA06164FEAC30343EA63
:1018300052734FEAC2025FEA1C1CC0D111F4801F30
:101840000BD141EA00014FF000004FF0004CB6E729
:1018500011F4801F04BF01430020B4F1FD0C88BFC8
:10186000BCF5E06F3FF6AFAEB5EB030C04BFB6EBD3
:10187000020C5FEA500C50F1000041EB045170BDC6
:101880000EF0004E4EEA113114EB5C04C2BFD4EBF3
:101890000C0541EA045170BD41F480114FF0000E77
:1018A000013C90E645EA060E8DE60CEA135594EAF3
:1018B0000C0F08BF95EA0C0F3FF43BAF94EA0C0FF6
:1018C0000AD150EA01347FF434AF95EA0C0F7FF46B
:1018D00025AF104619462CE795EA0C0F06D152EABF
:1018E00003353FF4FDAE1046194622E750EA4106A3
:1018F00018BF52EA43067FF4C5AE50EA41047FF4B4
:101900000DAF52EA43057FF4EBAE12E74FEA410216
:1019100012F5001215D211D56FF47873B3EB625241
:1019200012D94FEAC12343F0004343EA505311F068
:10193000004F23FA02F018BF404270474FF00000FA
:10194000704750EA013005D111F0004008BF6FF038
:10195000004070474FF00000704700BF4FEA41025F
:10196000B2F1E04324BFB3F5001CDCF1FE5C0DD9FD
:1019700001F0004C4FEAC0024CEA5070B2F1004F47
:1019800040EB830008BF20F00100704711F0804F4A
:1019900021D113F13872BCBF01F00040704741F40F
:1019A00080114FEA5252C2F11802C2F1200C10FA13
:1019B0000CF320FA02F018BF40F001004FEAC123F7
:1019C0004FEAD32303FA0CFC40EA0C0023FA02F39B
:1019D0004FEA4303CCE77FEA625307D150EA013371
:1019E0001EBF4FF0FE4040F44000704701F0004041
:1019F00040F0FE4040F40000704700BF80F000401F
:101A000002E000BF81F0004142001FBF5FEA4103D6
:101A100092EA030F7FEA226C7FEA236C6AD04FEAD6
:101A20001262D2EB1363C1BFD2184140484041401B
:101A3000B8BF5B42192B88BF704710F0004F40F4CD
:101A4000000020F07F4018BF404211F0004F41F4E9
:101A5000000121F07F4118BF494292EA030F3FD0B5
:101A6000A2F1010241FA03FC10EB0C00C3F12003C8
:101A700001FA03F100F0004302D5494260EB400057
:101A8000B0F5000F13D3B0F1807F06D340084FEAC2
:101A9000310102F10102FE2A51D2B1F1004F40EBB7
:101AA000C25008BF20F0010040EA0300704749001F
:101AB00040EB000010F4000FA2F10102EDD1B0FAEA
:101AC00080FCACF1080CB2EB0C0200FA0CF0AABFDF
:101AD00000EBC25052421843BCBFD040184370477D
:101AE00092F0000F81F4000106BF80F40000013283
:101AF000013BB5E74FEA41037FEA226C18BF7FEA5A
:101B0000236C21D092EA030F04D092F0000F08BF9B
:101B10000846704790EA010F1CBF0020704712F082
:101B20007F4F04D1400028BF40F00040704712F1C1
:101B300000723CBF00F50000704700F0004343F026
:101B4000FE4040F4000070477FEA226216BF08465C
:101B50007FEA23630146420206BF5FEA412390EA1F
:101B6000010F40F4800070474FF0000304E000BF15
:101B700010F0004348BF40425FEA000C08BF7047C6
:101B800043F0964301464FF000001CE050EA01028A
:101B900008BF70474FF000030AE000BF50EA01029F
:101BA00008BF704711F0004302D5404261EB41018C
:101BB0005FEA010C02BF84460146002043F0B643B1
:101BC00008BFA3F18053A3F50003BCFA8CF2083AD6
:101BD000A3EBC25310DB01FA02FC634400FA02FCDF
:101BE000C2F12002BCF1004F20FA02F243EB0200E6
:101BF00008BF20F00100704702F1200201FA02FC48
:101C0000C2F1200250EA4C0021FA02F243EB02003A
:101C100008BF20EADC7070474FF0FF0C1CEAD0527E
:101C20001EBF1CEAD15392EA0C0F93EA0C0F6FD03F
:101C30001A4480EA010C400218BF5FEA41211ED01D
:101C40004FF0006343EA501043EA5111A0FB013109
:101C50000CF00040B1F5000F3EBF490041EAD371DE
:101C60005B0040EA010062F17F02FD2A1DD8B3F15A
:101C7000004F40EBC25008BF20F00100704790F0C9
:101C8000000F0CF0004C08BF49024CEA502040EA1B
:101C900051207F3AC2BFD2F1FF0340EAC2507047E1
:101CA00040F400004FF00003013A5DDC12F1190F1F
:101CB000DCBF00F000407047C2F10002410021FA91
:101CC00002F1C2F1200200FA02FC5FEA310040F1A9
:101CD000000053EA4C0308BF20EADC70704792F022
:101CE000000F00F0004C02BF400010F4000F013A5A
:101CF000F9D040EA0C0093F0000F01F0004C02BF55
:101D0000490011F4000F013BF9D041EA0C018FE7C3
:101D10000CEAD15392EA0C0F18BF93EA0C0F0AD0C9
:101D200030F0004C18BF31F0004CD8D180EA0100EF
:101D300000F00040704790F0000F17BF90F0004F88
:101D4000084691F0000F91F0004F14D092EA0C0F6A
:101D500001D142020FD193EA0C0F03D14B0218BFFD
:101D6000084608D180EA010000F0004040F0FE4043
:101D700040F40000704740F0FE4040F440007047DF
:101D80004FF0FF0C1CEAD0521EBF1CEAD15392EA5E
:101D90000C0F93EA0C0F69D0A2EB030280EA010C4E
:101DA00049024FEA402037D04FF0805343EA1111E7
:101DB00043EA10130CF000408B4238BF5B0042F145
:101DC0007D024FF4000C8B4224BF5B1A40EA0C00EA
:101DD000B3EB510F24BFA3EB510340EA5C00B3EB1C
:101DE000910F24BFA3EB910340EA9C00B3EBD10F0A
:101DF00024BFA3EBD10340EADC001B0118BF5FEA5C
:101E00001C1CE0D1FD2A3FF650AF8B4240EBC25084
:101E100008BF20F0010070470CF0004C4CEA502045
:101E20007F32C2BFD2F1FF0340EAC250704740F494
:101E300000004FF00003013A37E792F0000F00F086
:101E4000004C02BF400010F4000F013AF9D040EA04
:101E50000C0093F0000F01F0004C02BF490011F498
:101E6000000F013BF9D041EA0C0195E70CEAD15390
:101E700092EA0C0F08D142027FF47DAF93EA0C0F77
:101E80007FF470AF084676E793EA0C0F04D14B025B
:101E90003FF44CAF08466EE730F0004C18BF31F00D
:101EA000004CCAD130F000427FF45CAF31F0004307
:101EB0007FF43CAF5FE700BF4FF0FF3C06E000BFA0
:101EC0004FF0010C02E000BF4FF0010C4DF804CDC3
:101ED0004FEA40024FEA41037FEA226C18BF7FEAD3
:101EE000236C11D001B052EA530C18BF90EA010FD5
:101EF00058BFB2EB030088BFC81738BF6FEAE17064
:101F000018BF40F0010070477FEA226C02D15FEAFF
:101F1000402C05D17FEA236CE4D15FEA412CE1D06B
:101F20005DF8040B704700BF844608466146FFE732
:101F30000FB5FFF7C9FF002848BF10F1000F0FBD14
:101F40004DF808EDFFF7F4FF0CBF012000205DF80D
:101F500008FB00BF4DF808EDFFF7EAFF34BF012092
:101F600000205DF808FB00BF4DF808EDFFF7E0FF2B
:101F700094BF012000205DF808FB00BF4DF808ED7C
:101F8000FFF7D2FF94BF012000205DF808FB00BFDF
:101F90004DF808EDFFF7C8FF34BF012000205DF8C1
:041FA00008FB00BF7B
:041FA4000010000029
:0400000508000000EF
:00000001FF
